{
  "fileName": "AggregatorValidatorMock.sol",
  "contractName": "AggregatorValidatorMock",
  "source": "pragma solidity 0.6.6;\n\nimport '../interfaces/AggregatorValidatorInterface.sol';\n\ncontract AggregatorValidatorMock is AggregatorValidatorInterface {\n  uint256 public previousRoundId;\n  int256 public previousAnswer;\n  uint256 public currentRoundId;\n  int256 public currentAnswer;\n\n  event Validated(\n    uint256 _previousRoundId,\n    int256 indexed _previousAnswer,\n    uint256 _currentRoundId,\n    int256 indexed _currentAnswer\n  );\n\n  function validate(\n    uint256 _previousRoundId,\n    int256 _previousAnswer,\n    uint256 _currentRoundId,\n    int256 _currentAnswer\n  )\n    external\n    override\n    returns (bool)\n  {\n    emit Validated(\n      _previousRoundId,\n      _previousAnswer,\n      _currentRoundId,\n      _currentAnswer\n    );\n    return true;\n  }\n\n}\n",
  "sourcePath": "contracts/chainlink_contracts/chainlink/tests/AggregatorValidatorMock.sol",
  "abi": [
    {
      "anonymous": false,
      "inputs": [
        {
          "indexed": false,
          "internalType": "uint256",
          "name": "_previousRoundId",
          "type": "uint256"
        },
        {
          "indexed": true,
          "internalType": "int256",
          "name": "_previousAnswer",
          "type": "int256"
        },
        {
          "indexed": false,
          "internalType": "uint256",
          "name": "_currentRoundId",
          "type": "uint256"
        },
        {
          "indexed": true,
          "internalType": "int256",
          "name": "_currentAnswer",
          "type": "int256"
        }
      ],
      "name": "Validated",
      "type": "event"
    },
    {
      "inputs": [],
      "name": "currentAnswer",
      "outputs": [
        {
          "internalType": "int256",
          "name": "",
          "type": "int256"
        }
      ],
      "stateMutability": "view",
      "type": "function"
    },
    {
      "inputs": [],
      "name": "currentRoundId",
      "outputs": [
        {
          "internalType": "uint256",
          "name": "",
          "type": "uint256"
        }
      ],
      "stateMutability": "view",
      "type": "function"
    },
    {
      "inputs": [],
      "name": "previousAnswer",
      "outputs": [
        {
          "internalType": "int256",
          "name": "",
          "type": "int256"
        }
      ],
      "stateMutability": "view",
      "type": "function"
    },
    {
      "inputs": [],
      "name": "previousRoundId",
      "outputs": [
        {
          "internalType": "uint256",
          "name": "",
          "type": "uint256"
        }
      ],
      "stateMutability": "view",
      "type": "function"
    },
    {
      "inputs": [
        {
          "internalType": "uint256",
          "name": "_previousRoundId",
          "type": "uint256"
        },
        {
          "internalType": "int256",
          "name": "_previousAnswer",
          "type": "int256"
        },
        {
          "internalType": "uint256",
          "name": "_currentRoundId",
          "type": "uint256"
        },
        {
          "internalType": "int256",
          "name": "_currentAnswer",
          "type": "int256"
        }
      ],
      "name": "validate",
      "outputs": [
        {
          "internalType": "bool",
          "name": "",
          "type": "bool"
        }
      ],
      "stateMutability": "nonpayable",
      "type": "function"
    }
  ],
  "bytecode": "0x608060405234801561001057600080fd5b506101d5806100206000396000f3fe608060405234801561001057600080fd5b50600436106100575760003560e01c8063308dd1911461005c5780637e1b4cb01461007a5780639cbe5efd146100985780639e8fcbe9146100b6578063beed9b51146100d4575b600080fd5b610064610138565b6040518082815260200191505060405180910390f35b61008261013e565b6040518082815260200191505060405180910390f35b6100a0610144565b6040518082815260200191505060405180910390f35b6100be61014a565b6040518082815260200191505060405180910390f35b61011e600480360360808110156100ea57600080fd5b8101908080359060200190929190803590602001909291908035906020019092919080359060200190929190505050610150565b604051808215151515815260200191505060405180910390f35b60015481565b60035481565b60025481565b60005481565b600081847f67153bf264f6b67e597cb9f55ec356e629048d2d8cfebb8da80fe1a3f7849aed8786604051808381526020018281526020019250505060405180910390a36001905094935050505056fea264697066735822122050197c1aaa18d9240cb80143616b48f086e29eb0b9dcae09823386472bf0509564736f6c63430006060033",
  "compiler": {
    "name": "solc",
    "version": "0.6.6+commit.6c089d02.Emscripten.clang",
    "optimizer": {
      "enabled": false,
      "runs": 200
    },
    "evmVersion": "petersburg"
  }
}