{
  "fileName": "AggregatorProxy.sol",
  "contractName": "AggregatorProxy",
  "source": "pragma solidity 0.6.6;\n\nimport \"./Owned.sol\";\nimport \"./interfaces/AggregatorV2V3Interface.sol\";\n\n/**\n * @title A trusted proxy for updating where current answers are read from\n * @notice This contract provides a consistent address for the\n * CurrentAnwerInterface but delegates where it reads from to the owner, who is\n * trusted to update it.\n */\ncontract AggregatorProxy is AggregatorV2V3Interface, Owned {\n\n  struct Phase {\n    uint16 id;\n    AggregatorV2V3Interface aggregator;\n  }\n  Phase private currentPhase;\n  AggregatorV2V3Interface public proposedAggregator;\n  mapping(uint16 => AggregatorV2V3Interface) public phaseAggregators;\n\n  uint256 constant private PHASE_OFFSET = 64;\n  uint256 constant private PHASE_SIZE = 16;\n  uint256 constant private MAX_ID = 2**(PHASE_OFFSET+PHASE_SIZE) - 1;\n\n  constructor(address _aggregator) public Owned() {\n    setAggregator(_aggregator);\n  }\n\n  /**\n   * @notice Reads the current answer from aggregator delegated to.\n   *\n   * @dev #[deprecated] Use latestRoundData instead. This does not error if no\n   * answer has been reached, it will simply return 0. Either wait to point to\n   * an already answered Aggregator or use the recommended latestRoundData\n   * instead which includes better verification information.\n   */\n  function latestAnswer()\n    public\n    view\n    virtual\n    override\n    returns (int256 answer)\n  {\n    return currentPhase.aggregator.latestAnswer();\n  }\n\n  /**\n   * @notice Reads the last updated height from aggregator delegated to.\n   *\n   * @dev #[deprecated] Use latestRoundData instead. This does not error if no\n   * answer has been reached, it will simply return 0. Either wait to point to\n   * an already answered Aggregator or use the recommended latestRoundData\n   * instead which includes better verification information.\n   */\n  function latestTimestamp()\n    public\n    view\n    virtual\n    override\n    returns (uint256 updatedAt)\n  {\n    return currentPhase.aggregator.latestTimestamp();\n  }\n\n  /**\n   * @notice get past rounds answers\n   * @param _roundId the answer number to retrieve the answer for\n   *\n   * @dev #[deprecated] Use getRoundData instead. This does not error if no\n   * answer has been reached, it will simply return 0. Either wait to point to\n   * an already answered Aggregator or use the recommended getRoundData\n   * instead which includes better verification information.\n   */\n  function getAnswer(uint256 _roundId)\n    public\n    view\n    virtual\n    override\n    returns (int256 answer)\n  {\n    if (_roundId > MAX_ID) return 0;\n\n    (uint16 phaseId, uint64 aggregatorRoundId) = parseIds(_roundId);\n    AggregatorV2V3Interface aggregator = phaseAggregators[phaseId];\n    if (address(aggregator) == address(0)) return 0;\n\n    return aggregator.getAnswer(aggregatorRoundId);\n  }\n\n  /**\n   * @notice get block timestamp when an answer was last updated\n   * @param _roundId the answer number to retrieve the updated timestamp for\n   *\n   * @dev #[deprecated] Use getRoundData instead. This does not error if no\n   * answer has been reached, it will simply return 0. Either wait to point to\n   * an already answered Aggregator or use the recommended getRoundData\n   * instead which includes better verification information.\n   */\n  function getTimestamp(uint256 _roundId)\n    public\n    view\n    virtual\n    override\n    returns (uint256 updatedAt)\n  {\n    if (_roundId > MAX_ID) return 0;\n\n    (uint16 phaseId, uint64 aggregatorRoundId) = parseIds(_roundId);\n    AggregatorV2V3Interface aggregator = phaseAggregators[phaseId];\n    if (address(aggregator) == address(0)) return 0;\n\n    return aggregator.getTimestamp(aggregatorRoundId);\n  }\n\n  /**\n   * @notice get the latest completed round where the answer was updated. This\n   * ID includes the proxy's phase, to make sure round IDs increase even when\n   * switching to a newly deployed aggregator.\n   *\n   * @dev #[deprecated] Use latestRoundData instead. This does not error if no\n   * answer has been reached, it will simply return 0. Either wait to point to\n   * an already answered Aggregator or use the recommended latestRoundData\n   * instead which includes better verification information.\n   */\n  function latestRound()\n    public\n    view\n    virtual\n    override\n    returns (uint256 roundId)\n  {\n    Phase memory phase = currentPhase; // cache storage reads\n    return addPhase(phase.id, uint64(phase.aggregator.latestRound()));\n  }\n\n  /**\n   * @notice get data about a round. Consumers are encouraged to check\n   * that they're receiving fresh data by inspecting the updatedAt and\n   * answeredInRound return values.\n   * Note that different underlying implementations of AggregatorV3Interface\n   * have slightly different semantics for some of the return values. Consumers\n   * should determine what implementations they expect to receive\n   * data from and validate that they can properly handle return data from all\n   * of them.\n   * @param _roundId the requested round ID as presented through the proxy, this\n   * is made up of the aggregator's round ID with the phase ID encoded in the\n   * two highest order bytes\n   * @return roundId is the round ID from the aggregator for which the data was\n   * retrieved combined with an phase to ensure that round IDs get larger as\n   * time moves forward.\n   * @return answer is the answer for the given round\n   * @return startedAt is the timestamp when the round was started.\n   * (Only some AggregatorV3Interface implementations return meaningful values)\n   * @return updatedAt is the timestamp when the round last was updated (i.e.\n   * answer was last computed)\n   * @return answeredInRound is the round ID of the round in which the answer\n   * was computed.\n   * (Only some AggregatorV3Interface implementations return meaningful values)\n   * @dev Note that answer and updatedAt may change between queries.\n   */\n  function getRoundData(uint80 _roundId)\n    public\n    view\n    virtual\n    override\n    returns (\n      uint80 roundId,\n      int256 answer,\n      uint256 startedAt,\n      uint256 updatedAt,\n      uint80 answeredInRound\n    )\n  {\n    (uint16 phaseId, uint64 aggregatorRoundId) = parseIds(_roundId);\n\n    (\n      uint80 roundId,\n      int256 answer,\n      uint256 startedAt,\n      uint256 updatedAt,\n      uint80 ansIn\n    ) = phaseAggregators[phaseId].getRoundData(aggregatorRoundId);\n\n    return addPhaseIds(roundId, answer, startedAt, updatedAt, ansIn, phaseId);\n  }\n\n  /**\n   * @notice get data about the latest round. Consumers are encouraged to check\n   * that they're receiving fresh data by inspecting the updatedAt and\n   * answeredInRound return values.\n   * Note that different underlying implementations of AggregatorV3Interface\n   * have slightly different semantics for some of the return values. Consumers\n   * should determine what implementations they expect to receive\n   * data from and validate that they can properly handle return data from all\n   * of them.\n   * @return roundId is the round ID from the aggregator for which the data was\n   * retrieved combined with an phase to ensure that round IDs get larger as\n   * time moves forward.\n   * @return answer is the answer for the given round\n   * @return startedAt is the timestamp when the round was started.\n   * (Only some AggregatorV3Interface implementations return meaningful values)\n   * @return updatedAt is the timestamp when the round last was updated (i.e.\n   * answer was last computed)\n   * @return answeredInRound is the round ID of the round in which the answer\n   * was computed.\n   * (Only some AggregatorV3Interface implementations return meaningful values)\n   * @dev Note that answer and updatedAt may change between queries.\n   */\n  function latestRoundData()\n    public\n    view\n    virtual\n    override\n    returns (\n      uint80 roundId,\n      int256 answer,\n      uint256 startedAt,\n      uint256 updatedAt,\n      uint80 answeredInRound\n    )\n  {\n    Phase memory current = currentPhase; // cache storage reads\n\n    (\n      uint80 roundId,\n      int256 answer,\n      uint256 startedAt,\n      uint256 updatedAt,\n      uint80 ansIn\n    ) = current.aggregator.latestRoundData();\n\n    return addPhaseIds(roundId, answer, startedAt, updatedAt, ansIn, current.id);\n  }\n\n  /**\n   * @notice Used if an aggregator contract has been proposed.\n   * @param _roundId the round ID to retrieve the round data for\n   * @return roundId is the round ID for which data was retrieved\n   * @return answer is the answer for the given round\n   * @return startedAt is the timestamp when the round was started.\n   * (Only some AggregatorV3Interface implementations return meaningful values)\n   * @return updatedAt is the timestamp when the round last was updated (i.e.\n   * answer was last computed)\n   * @return answeredInRound is the round ID of the round in which the answer\n   * was computed.\n  */\n  function proposedGetRoundData(uint80 _roundId)\n    public\n    view\n    virtual\n    hasProposal()\n    returns (\n      uint80 roundId,\n      int256 answer,\n      uint256 startedAt,\n      uint256 updatedAt,\n      uint80 answeredInRound\n    )\n  {\n    return proposedAggregator.getRoundData(_roundId);\n  }\n\n  /**\n   * @notice Used if an aggregator contract has been proposed.\n   * @return roundId is the round ID for which data was retrieved\n   * @return answer is the answer for the given round\n   * @return startedAt is the timestamp when the round was started.\n   * (Only some AggregatorV3Interface implementations return meaningful values)\n   * @return updatedAt is the timestamp when the round last was updated (i.e.\n   * answer was last computed)\n   * @return answeredInRound is the round ID of the round in which the answer\n   * was computed.\n  */\n  function proposedLatestRoundData()\n    public\n    view\n    virtual\n    hasProposal()\n    returns (\n      uint80 roundId,\n      int256 answer,\n      uint256 startedAt,\n      uint256 updatedAt,\n      uint80 answeredInRound\n    )\n  {\n    return proposedAggregator.latestRoundData();\n  }\n\n  /**\n   * @notice returns the current phase's aggregator address.\n   */\n  function aggregator()\n    external\n    view\n    returns (address)\n  {\n    return address(currentPhase.aggregator);\n  }\n\n  /**\n   * @notice returns the current phase's ID.\n   */\n  function phaseId()\n    external\n    view\n    returns (uint16)\n  {\n    return currentPhase.id;\n  }\n\n  /**\n   * @notice represents the number of decimals the aggregator responses represent.\n   */\n  function decimals()\n    external\n    view\n    override\n    returns (uint8)\n  {\n    return currentPhase.aggregator.decimals();\n  }\n\n  /**\n   * @notice the version number representing the type of aggregator the proxy\n   * points to.\n   */\n  function version()\n    external\n    view\n    override\n    returns (uint256)\n  {\n    return currentPhase.aggregator.version();\n  }\n\n  /**\n   * @notice returns the description of the aggregator the proxy points to.\n   */\n  function description()\n    external\n    view\n    override\n    returns (string memory)\n  {\n    return currentPhase.aggregator.description();\n  }\n\n  /**\n   * @notice Allows the owner to propose a new address for the aggregator\n   * @param _aggregator The new address for the aggregator contract\n   */\n  function proposeAggregator(address _aggregator)\n    external\n    onlyOwner()\n  {\n    proposedAggregator = AggregatorV2V3Interface(_aggregator);\n  }\n\n  /**\n   * @notice Allows the owner to confirm and change the address\n   * to the proposed aggregator\n   * @dev Reverts if the given address doesn't match what was previously\n   * proposed\n   * @param _aggregator The new address for the aggregator contract\n   */\n  function confirmAggregator(address _aggregator)\n    external\n    onlyOwner()\n  {\n    require(_aggregator == address(proposedAggregator), \"Invalid proposed aggregator\");\n    delete proposedAggregator;\n    setAggregator(_aggregator);\n  }\n\n\n  /*\n   * Internal\n   */\n\n  function setAggregator(address _aggregator)\n    internal\n  {\n    uint16 id = currentPhase.id + 1;\n    currentPhase = Phase(id, AggregatorV2V3Interface(_aggregator));\n    phaseAggregators[id] = AggregatorV2V3Interface(_aggregator);\n  }\n\n  function addPhase(\n    uint16 _phase,\n    uint64 _originalId\n  )\n    internal\n    view\n    returns (uint80)\n  {\n    return uint80(uint256(_phase) << PHASE_OFFSET | _originalId);\n  }\n\n  function parseIds(\n    uint256 _roundId\n  )\n    internal\n    view\n    returns (uint16, uint64)\n  {\n    uint16 phaseId = uint16(_roundId >> PHASE_OFFSET);\n    uint64 aggregatorRoundId = uint64(_roundId);\n\n    return (phaseId, aggregatorRoundId);\n  }\n\n  function addPhaseIds(\n      uint80 roundId,\n      int256 answer,\n      uint256 startedAt,\n      uint256 updatedAt,\n      uint80 answeredInRound,\n      uint16 phaseId\n  )\n    internal\n    view\n    returns (uint80, int256, uint256, uint256, uint80)\n  {\n    return (\n      addPhase(phaseId, uint64(roundId)),\n      answer,\n      startedAt,\n      updatedAt,\n      addPhase(phaseId, uint64(answeredInRound))\n    );\n  }\n\n  /*\n   * Modifiers\n   */\n\n  modifier hasProposal() {\n    require(address(proposedAggregator) != address(0), \"No proposed aggregator present\");\n    _;\n  }\n\n}\n",
  "sourcePath": "contracts/chainlink_contracts/chainlink/AggregatorProxy.sol",
  "abi": [
    {
      "inputs": [
        {
          "internalType": "address",
          "name": "_aggregator",
          "type": "address"
        }
      ],
      "stateMutability": "nonpayable",
      "type": "constructor"
    },
    {
      "anonymous": false,
      "inputs": [
        {
          "indexed": true,
          "internalType": "int256",
          "name": "current",
          "type": "int256"
        },
        {
          "indexed": true,
          "internalType": "uint256",
          "name": "roundId",
          "type": "uint256"
        },
        {
          "indexed": false,
          "internalType": "uint256",
          "name": "updatedAt",
          "type": "uint256"
        }
      ],
      "name": "AnswerUpdated",
      "type": "event"
    },
    {
      "anonymous": false,
      "inputs": [
        {
          "indexed": true,
          "internalType": "uint256",
          "name": "roundId",
          "type": "uint256"
        },
        {
          "indexed": true,
          "internalType": "address",
          "name": "startedBy",
          "type": "address"
        },
        {
          "indexed": false,
          "internalType": "uint256",
          "name": "startedAt",
          "type": "uint256"
        }
      ],
      "name": "NewRound",
      "type": "event"
    },
    {
      "anonymous": false,
      "inputs": [
        {
          "indexed": true,
          "internalType": "address",
          "name": "from",
          "type": "address"
        },
        {
          "indexed": true,
          "internalType": "address",
          "name": "to",
          "type": "address"
        }
      ],
      "name": "OwnershipTransferRequested",
      "type": "event"
    },
    {
      "anonymous": false,
      "inputs": [
        {
          "indexed": true,
          "internalType": "address",
          "name": "from",
          "type": "address"
        },
        {
          "indexed": true,
          "internalType": "address",
          "name": "to",
          "type": "address"
        }
      ],
      "name": "OwnershipTransferred",
      "type": "event"
    },
    {
      "inputs": [],
      "name": "acceptOwnership",
      "outputs": [],
      "stateMutability": "nonpayable",
      "type": "function"
    },
    {
      "inputs": [],
      "name": "aggregator",
      "outputs": [
        {
          "internalType": "address",
          "name": "",
          "type": "address"
        }
      ],
      "stateMutability": "view",
      "type": "function"
    },
    {
      "inputs": [
        {
          "internalType": "address",
          "name": "_aggregator",
          "type": "address"
        }
      ],
      "name": "confirmAggregator",
      "outputs": [],
      "stateMutability": "nonpayable",
      "type": "function"
    },
    {
      "inputs": [],
      "name": "decimals",
      "outputs": [
        {
          "internalType": "uint8",
          "name": "",
          "type": "uint8"
        }
      ],
      "stateMutability": "view",
      "type": "function"
    },
    {
      "inputs": [],
      "name": "description",
      "outputs": [
        {
          "internalType": "string",
          "name": "",
          "type": "string"
        }
      ],
      "stateMutability": "view",
      "type": "function"
    },
    {
      "inputs": [
        {
          "internalType": "uint256",
          "name": "_roundId",
          "type": "uint256"
        }
      ],
      "name": "getAnswer",
      "outputs": [
        {
          "internalType": "int256",
          "name": "answer",
          "type": "int256"
        }
      ],
      "stateMutability": "view",
      "type": "function"
    },
    {
      "inputs": [
        {
          "internalType": "uint80",
          "name": "_roundId",
          "type": "uint80"
        }
      ],
      "name": "getRoundData",
      "outputs": [
        {
          "internalType": "uint80",
          "name": "roundId",
          "type": "uint80"
        },
        {
          "internalType": "int256",
          "name": "answer",
          "type": "int256"
        },
        {
          "internalType": "uint256",
          "name": "startedAt",
          "type": "uint256"
        },
        {
          "internalType": "uint256",
          "name": "updatedAt",
          "type": "uint256"
        },
        {
          "internalType": "uint80",
          "name": "answeredInRound",
          "type": "uint80"
        }
      ],
      "stateMutability": "view",
      "type": "function"
    },
    {
      "inputs": [
        {
          "internalType": "uint256",
          "name": "_roundId",
          "type": "uint256"
        }
      ],
      "name": "getTimestamp",
      "outputs": [
        {
          "internalType": "uint256",
          "name": "updatedAt",
          "type": "uint256"
        }
      ],
      "stateMutability": "view",
      "type": "function"
    },
    {
      "inputs": [],
      "name": "latestAnswer",
      "outputs": [
        {
          "internalType": "int256",
          "name": "answer",
          "type": "int256"
        }
      ],
      "stateMutability": "view",
      "type": "function"
    },
    {
      "inputs": [],
      "name": "latestRound",
      "outputs": [
        {
          "internalType": "uint256",
          "name": "roundId",
          "type": "uint256"
        }
      ],
      "stateMutability": "view",
      "type": "function"
    },
    {
      "inputs": [],
      "name": "latestRoundData",
      "outputs": [
        {
          "internalType": "uint80",
          "name": "roundId",
          "type": "uint80"
        },
        {
          "internalType": "int256",
          "name": "answer",
          "type": "int256"
        },
        {
          "internalType": "uint256",
          "name": "startedAt",
          "type": "uint256"
        },
        {
          "internalType": "uint256",
          "name": "updatedAt",
          "type": "uint256"
        },
        {
          "internalType": "uint80",
          "name": "answeredInRound",
          "type": "uint80"
        }
      ],
      "stateMutability": "view",
      "type": "function"
    },
    {
      "inputs": [],
      "name": "latestTimestamp",
      "outputs": [
        {
          "internalType": "uint256",
          "name": "updatedAt",
          "type": "uint256"
        }
      ],
      "stateMutability": "view",
      "type": "function"
    },
    {
      "inputs": [],
      "name": "owner",
      "outputs": [
        {
          "internalType": "address",
          "name": "",
          "type": "address"
        }
      ],
      "stateMutability": "view",
      "type": "function"
    },
    {
      "inputs": [
        {
          "internalType": "uint16",
          "name": "",
          "type": "uint16"
        }
      ],
      "name": "phaseAggregators",
      "outputs": [
        {
          "internalType": "contract AggregatorV2V3Interface",
          "name": "",
          "type": "address"
        }
      ],
      "stateMutability": "view",
      "type": "function"
    },
    {
      "inputs": [],
      "name": "phaseId",
      "outputs": [
        {
          "internalType": "uint16",
          "name": "",
          "type": "uint16"
        }
      ],
      "stateMutability": "view",
      "type": "function"
    },
    {
      "inputs": [
        {
          "internalType": "address",
          "name": "_aggregator",
          "type": "address"
        }
      ],
      "name": "proposeAggregator",
      "outputs": [],
      "stateMutability": "nonpayable",
      "type": "function"
    },
    {
      "inputs": [],
      "name": "proposedAggregator",
      "outputs": [
        {
          "internalType": "contract AggregatorV2V3Interface",
          "name": "",
          "type": "address"
        }
      ],
      "stateMutability": "view",
      "type": "function"
    },
    {
      "inputs": [
        {
          "internalType": "uint80",
          "name": "_roundId",
          "type": "uint80"
        }
      ],
      "name": "proposedGetRoundData",
      "outputs": [
        {
          "internalType": "uint80",
          "name": "roundId",
          "type": "uint80"
        },
        {
          "internalType": "int256",
          "name": "answer",
          "type": "int256"
        },
        {
          "internalType": "uint256",
          "name": "startedAt",
          "type": "uint256"
        },
        {
          "internalType": "uint256",
          "name": "updatedAt",
          "type": "uint256"
        },
        {
          "internalType": "uint80",
          "name": "answeredInRound",
          "type": "uint80"
        }
      ],
      "stateMutability": "view",
      "type": "function"
    },
    {
      "inputs": [],
      "name": "proposedLatestRoundData",
      "outputs": [
        {
          "internalType": "uint80",
          "name": "roundId",
          "type": "uint80"
        },
        {
          "internalType": "int256",
          "name": "answer",
          "type": "int256"
        },
        {
          "internalType": "uint256",
          "name": "startedAt",
          "type": "uint256"
        },
        {
          "internalType": "uint256",
          "name": "updatedAt",
          "type": "uint256"
        },
        {
          "internalType": "uint80",
          "name": "answeredInRound",
          "type": "uint80"
        }
      ],
      "stateMutability": "view",
      "type": "function"
    },
    {
      "inputs": [
        {
          "internalType": "address",
          "name": "_to",
          "type": "address"
        }
      ],
      "name": "transferOwnership",
      "outputs": [],
      "stateMutability": "nonpayable",
      "type": "function"
    },
    {
      "inputs": [],
      "name": "version",
      "outputs": [
        {
          "internalType": "uint256",
          "name": "",
          "type": "uint256"
        }
      ],
      "stateMutability": "view",
      "type": "function"
    }
  ],
  "bytecode": "0x608060405234801561001057600080fd5b50604051611ff7380380611ff78339818101604052602081101561003357600080fd5b8101908080519060200190929190505050336000806101000a81548173ffffffffffffffffffffffffffffffffffffffff021916908373ffffffffffffffffffffffffffffffffffffffff1602179055506100938161009960201b60201c565b506101b0565b60006001600260000160009054906101000a900461ffff1601905060405180604001604052808261ffff1681526020018373ffffffffffffffffffffffffffffffffffffffff16815250600260008201518160000160006101000a81548161ffff021916908361ffff16021790555060208201518160000160026101000a81548173ffffffffffffffffffffffffffffffffffffffff021916908373ffffffffffffffffffffffffffffffffffffffff16021790555090505081600460008361ffff1661ffff16815260200190815260200160002060006101000a81548173ffffffffffffffffffffffffffffffffffffffff021916908373ffffffffffffffffffffffffffffffffffffffff1602179055505050565b611e38806101bf6000396000f3fe608060405234801561001057600080fd5b50600436106101375760003560e01c80638da5cb5b116100b8578063b633620c1161007c578063b633620c14610543578063c159730414610585578063e8c4be30146105f7578063f2fde38b14610641578063f8a2abd314610685578063feaf968c146106c957610137565b80638da5cb5b1461036f5780638f6b4d91146103b95780639a6fc8f514610423578063a928c096146104bd578063b5ab58dc1461050157610137565b80636001ac53116100ff5780636001ac531461020c578063668a0f02146102a65780637284e416146102c457806379ba5097146103475780638205bf6a1461035157610137565b8063245a7bfc1461013c578063313ce5671461018657806350d25bcd146101aa57806354fd4d50146101c857806358303b10146101e6575b600080fd5b610144610733565b604051808273ffffffffffffffffffffffffffffffffffffffff1673ffffffffffffffffffffffffffffffffffffffff16815260200191505060405180910390f35b61018e610760565b604051808260ff1660ff16815260200191505060405180910390f35b6101b261080d565b6040518082815260200191505060405180910390f35b6101d06108ba565b6040518082815260200191505060405180910390f35b6101ee610967565b604051808261ffff1661ffff16815260200191505060405180910390f35b6102446004803603602081101561022257600080fd5b81019080803569ffffffffffffffffffff169060200190929190505050610982565b604051808669ffffffffffffffffffff1669ffffffffffffffffffff1681526020018581526020018481526020018381526020018269ffffffffffffffffffff1669ffffffffffffffffffff1681526020019550505050505060405180910390f35b6102ae610b4f565b6040518082815260200191505060405180910390f35b6102cc610c82565b6040518080602001828103825283818151815260200191508051906020019080838360005b8381101561030c5780820151818401526020810190506102f1565b50505050905090810190601f1680156103395780820380516001836020036101000a031916815260200191505b509250505060405180910390f35b61034f610ded565b005b610359610fb5565b6040518082815260200191505060405180910390f35b610377611062565b604051808273ffffffffffffffffffffffffffffffffffffffff1673ffffffffffffffffffffffffffffffffffffffff16815260200191505060405180910390f35b6103c1611087565b604051808669ffffffffffffffffffff1669ffffffffffffffffffff1681526020018581526020018481526020018381526020018269ffffffffffffffffffff1669ffffffffffffffffffff1681526020019550505050505060405180910390f35b61045b6004803603602081101561043957600080fd5b81019080803569ffffffffffffffffffff16906020019092919050505061122f565b604051808669ffffffffffffffffffff1669ffffffffffffffffffff1681526020018581526020018481526020018381526020018269ffffffffffffffffffff1669ffffffffffffffffffff1681526020019550505050505060405180910390f35b6104ff600480360360208110156104d357600080fd5b81019080803573ffffffffffffffffffffffffffffffffffffffff169060200190929190505050611392565b005b61052d6004803603602081101561051757600080fd5b8101908080359060200190929190505050611548565b6040518082815260200191505060405180910390f35b61056f6004803603602081101561055957600080fd5b8101908080359060200190929190505050611697565b6040518082815260200191505060405180910390f35b6105b56004803603602081101561059b57600080fd5b81019080803561ffff1690602001909291905050506117e6565b604051808273ffffffffffffffffffffffffffffffffffffffff1673ffffffffffffffffffffffffffffffffffffffff16815260200191505060405180910390f35b6105ff611819565b604051808273ffffffffffffffffffffffffffffffffffffffff1673ffffffffffffffffffffffffffffffffffffffff16815260200191505060405180910390f35b6106836004803603602081101561065757600080fd5b81019080803573ffffffffffffffffffffffffffffffffffffffff16906020019092919050505061183f565b005b6106c76004803603602081101561069b57600080fd5b81019080803573ffffffffffffffffffffffffffffffffffffffff1690602001909291905050506119c0565b005b6106d1611ac6565b604051808669ffffffffffffffffffff1669ffffffffffffffffffff1681526020018581526020018481526020018381526020018269ffffffffffffffffffff1669ffffffffffffffffffff1681526020019550505050505060405180910390f35b6000600260000160029054906101000a900473ffffffffffffffffffffffffffffffffffffffff16905090565b6000600260000160029054906101000a900473ffffffffffffffffffffffffffffffffffffffff1673ffffffffffffffffffffffffffffffffffffffff1663313ce5676040518163ffffffff1660e01b815260040160206040518083038186803b1580156107cd57600080fd5b505afa1580156107e1573d6000803e3d6000fd5b505050506040513d60208110156107f757600080fd5b8101908080519060200190929190505050905090565b6000600260000160029054906101000a900473ffffffffffffffffffffffffffffffffffffffff1673ffffffffffffffffffffffffffffffffffffffff166350d25bcd6040518163ffffffff1660e01b815260040160206040518083038186803b15801561087a57600080fd5b505afa15801561088e573d6000803e3d6000fd5b505050506040513d60208110156108a457600080fd5b8101908080519060200190929190505050905090565b6000600260000160029054906101000a900473ffffffffffffffffffffffffffffffffffffffff1673ffffffffffffffffffffffffffffffffffffffff166354fd4d506040518163ffffffff1660e01b815260040160206040518083038186803b15801561092757600080fd5b505afa15801561093b573d6000803e3d6000fd5b505050506040513d602081101561095157600080fd5b8101908080519060200190929190505050905090565b6000600260000160009054906101000a900461ffff16905090565b60008060008060008073ffffffffffffffffffffffffffffffffffffffff16600360009054906101000a900473ffffffffffffffffffffffffffffffffffffffff1673ffffffffffffffffffffffffffffffffffffffff161415610a4e576040517f08c379a000000000000000000000000000000000000000000000000000000000815260040180806020018281038252601e8152602001807f4e6f2070726f706f7365642061676772656761746f722070726573656e74000081525060200191505060405180910390fd5b600360009054906101000a900473ffffffffffffffffffffffffffffffffffffffff1673ffffffffffffffffffffffffffffffffffffffff16639a6fc8f5876040518263ffffffff1660e01b8152600401808269ffffffffffffffffffff1669ffffffffffffffffffff16815260200191505060a06040518083038186803b158015610ad957600080fd5b505afa158015610aed573d6000803e3d6000fd5b505050506040513d60a0811015610b0357600080fd5b8101908080519060200190929190805190602001909291908051906020019092919080519060200190929190805190602001909291905050509450945094509450945091939590929450565b6000610b59611dce565b60026040518060400160405290816000820160009054906101000a900461ffff1661ffff1661ffff1681526020016000820160029054906101000a900473ffffffffffffffffffffffffffffffffffffffff1673ffffffffffffffffffffffffffffffffffffffff1673ffffffffffffffffffffffffffffffffffffffff16815250509050610c708160000151826020015173ffffffffffffffffffffffffffffffffffffffff1663668a0f026040518163ffffffff1660e01b815260040160206040518083038186803b158015610c3057600080fd5b505afa158015610c44573d6000803e3d6000fd5b505050506040513d6020811015610c5a57600080fd5b8101908080519060200190929190505050611c43565b69ffffffffffffffffffff1691505090565b6060600260000160029054906101000a900473ffffffffffffffffffffffffffffffffffffffff1673ffffffffffffffffffffffffffffffffffffffff16637284e4166040518163ffffffff1660e01b815260040160006040518083038186803b158015610cef57600080fd5b505afa158015610d03573d6000803e3d6000fd5b505050506040513d6000823e3d601f19601f820116820180604052506020811015610d2d57600080fd5b8101908080516040519392919084640100000000821115610d4d57600080fd5b83820191506020820185811115610d6357600080fd5b8251866001820283011164010000000082111715610d8057600080fd5b8083526020830192505050908051906020019080838360005b83811015610db4578082015181840152602081019050610d99565b50505050905090810190601f168015610de15780820380516001836020036101000a031916815260200191505b50604052505050905090565b600160009054906101000a900473ffffffffffffffffffffffffffffffffffffffff1673ffffffffffffffffffffffffffffffffffffffff163373ffffffffffffffffffffffffffffffffffffffff1614610eb0576040517f08c379a00000000000000000000000000000000000000000000000000000000081526004018080602001828103825260168152602001807f4d7573742062652070726f706f736564206f776e65720000000000000000000081525060200191505060405180910390fd5b60008060009054906101000a900473ffffffffffffffffffffffffffffffffffffffff169050336000806101000a81548173ffffffffffffffffffffffffffffffffffffffff021916908373ffffffffffffffffffffffffffffffffffffffff1602179055506000600160006101000a81548173ffffffffffffffffffffffffffffffffffffffff021916908373ffffffffffffffffffffffffffffffffffffffff1602179055503373ffffffffffffffffffffffffffffffffffffffff168173ffffffffffffffffffffffffffffffffffffffff167f8be0079c531659141344cd1fd0a4f28419497f9722a3daafe3b4186f6b6457e060405160405180910390a350565b6000600260000160029054906101000a900473ffffffffffffffffffffffffffffffffffffffff1673ffffffffffffffffffffffffffffffffffffffff16638205bf6a6040518163ffffffff1660e01b815260040160206040518083038186803b15801561102257600080fd5b505afa158015611036573d6000803e3d6000fd5b505050506040513d602081101561104c57600080fd5b8101908080519060200190929190505050905090565b6000809054906101000a900473ffffffffffffffffffffffffffffffffffffffff1681565b60008060008060008073ffffffffffffffffffffffffffffffffffffffff16600360009054906101000a900473ffffffffffffffffffffffffffffffffffffffff1673ffffffffffffffffffffffffffffffffffffffff161415611153576040517f08c379a000000000000000000000000000000000000000000000000000000000815260040180806020018281038252601e8152602001807f4e6f2070726f706f7365642061676772656761746f722070726573656e74000081525060200191505060405180910390fd5b600360009054906101000a900473ffffffffffffffffffffffffffffffffffffffff1673ffffffffffffffffffffffffffffffffffffffff1663feaf968c6040518163ffffffff1660e01b815260040160a06040518083038186803b1580156111bb57600080fd5b505afa1580156111cf573d6000803e3d6000fd5b505050506040513d60a08110156111e557600080fd5b810190808051906020019092919080519060200190929190805190602001909291908051906020019092919080519060200190929190505050945094509450945094509091929394565b600080600080600080600061124f8869ffffffffffffffffffff16611c62565b915091506000806000806000600460008861ffff1661ffff16815260200190815260200160002060009054906101000a900473ffffffffffffffffffffffffffffffffffffffff1673ffffffffffffffffffffffffffffffffffffffff16639a6fc8f5876040518263ffffffff1660e01b8152600401808267ffffffffffffffff1669ffffffffffffffffffff16815260200191505060a06040518083038186803b1580156112fd57600080fd5b505afa158015611311573d6000803e3d6000fd5b505050506040513d60a081101561132757600080fd5b8101908080519060200190929190805190602001909291908051906020019092919080519060200190929190805190602001909291905050509450945094509450945061137885858585858c611c80565b9b509b509b509b509b505050505050505091939590929450565b6000809054906101000a900473ffffffffffffffffffffffffffffffffffffffff1673ffffffffffffffffffffffffffffffffffffffff163373ffffffffffffffffffffffffffffffffffffffff1614611454576040517f08c379a00000000000000000000000000000000000000000000000000000000081526004018080602001828103825260168152602001807f4f6e6c792063616c6c61626c65206279206f776e65720000000000000000000081525060200191505060405180910390fd5b600360009054906101000a900473ffffffffffffffffffffffffffffffffffffffff1673ffffffffffffffffffffffffffffffffffffffff168173ffffffffffffffffffffffffffffffffffffffff1614611517576040517f08c379a000000000000000000000000000000000000000000000000000000000815260040180806020018281038252601b8152602001807f496e76616c69642070726f706f7365642061676772656761746f72000000000081525060200191505060405180910390fd5b600360006101000a81549073ffffffffffffffffffffffffffffffffffffffff021916905561154581611cb7565b50565b60006001601060400160020a038211156115655760009050611692565b60008061157184611c62565b915091506000600460008461ffff1661ffff16815260200190815260200160002060009054906101000a900473ffffffffffffffffffffffffffffffffffffffff169050600073ffffffffffffffffffffffffffffffffffffffff168173ffffffffffffffffffffffffffffffffffffffff1614156115f65760009350505050611692565b8073ffffffffffffffffffffffffffffffffffffffff1663b5ab58dc836040518263ffffffff1660e01b8152600401808267ffffffffffffffff16815260200191505060206040518083038186803b15801561165157600080fd5b505afa158015611665573d6000803e3d6000fd5b505050506040513d602081101561167b57600080fd5b810190808051906020019092919050505093505050505b919050565b60006001601060400160020a038211156116b457600090506117e1565b6000806116c084611c62565b915091506000600460008461ffff1661ffff16815260200190815260200160002060009054906101000a900473ffffffffffffffffffffffffffffffffffffffff169050600073ffffffffffffffffffffffffffffffffffffffff168173ffffffffffffffffffffffffffffffffffffffff16141561174557600093505050506117e1565b8073ffffffffffffffffffffffffffffffffffffffff1663b633620c836040518263ffffffff1660e01b8152600401808267ffffffffffffffff16815260200191505060206040518083038186803b1580156117a057600080fd5b505afa1580156117b4573d6000803e3d6000fd5b505050506040513d60208110156117ca57600080fd5b810190808051906020019092919050505093505050505b919050565b60046020528060005260406000206000915054906101000a900473ffffffffffffffffffffffffffffffffffffffff1681565b600360009054906101000a900473ffffffffffffffffffffffffffffffffffffffff1681565b6000809054906101000a900473ffffffffffffffffffffffffffffffffffffffff1673ffffffffffffffffffffffffffffffffffffffff163373ffffffffffffffffffffffffffffffffffffffff1614611901576040517f08c379a00000000000000000000000000000000000000000000000000000000081526004018080602001828103825260168152602001807f4f6e6c792063616c6c61626c65206279206f776e65720000000000000000000081525060200191505060405180910390fd5b80600160006101000a81548173ffffffffffffffffffffffffffffffffffffffff021916908373ffffffffffffffffffffffffffffffffffffffff1602179055508073ffffffffffffffffffffffffffffffffffffffff166000809054906101000a900473ffffffffffffffffffffffffffffffffffffffff1673ffffffffffffffffffffffffffffffffffffffff167fed8889f560326eb138920d842192f0eb3dd22b4f139c87a2c57538e05bae127860405160405180910390a350565b6000809054906101000a900473ffffffffffffffffffffffffffffffffffffffff1673ffffffffffffffffffffffffffffffffffffffff163373ffffffffffffffffffffffffffffffffffffffff1614611a82576040517f08c379a00000000000000000000000000000000000000000000000000000000081526004018080602001828103825260168152602001807f4f6e6c792063616c6c61626c65206279206f776e65720000000000000000000081525060200191505060405180910390fd5b80600360006101000a81548173ffffffffffffffffffffffffffffffffffffffff021916908373ffffffffffffffffffffffffffffffffffffffff16021790555050565b6000806000806000611ad6611dce565b60026040518060400160405290816000820160009054906101000a900461ffff1661ffff1661ffff1681526020016000820160029054906101000a900473ffffffffffffffffffffffffffffffffffffffff1673ffffffffffffffffffffffffffffffffffffffff1673ffffffffffffffffffffffffffffffffffffffff168152505090506000806000806000856020015173ffffffffffffffffffffffffffffffffffffffff1663feaf968c6040518163ffffffff1660e01b815260040160a06040518083038186803b158015611bad57600080fd5b505afa158015611bc1573d6000803e3d6000fd5b505050506040513d60a0811015611bd757600080fd5b81019080805190602001909291908051906020019092919080519060200190929190805190602001909291908051906020019092919050505094509450945094509450611c2c85858585858b60000151611c80565b9a509a509a509a509a505050505050509091929394565b60008167ffffffffffffffff1660408461ffff16901b17905092915050565b6000806000604084901c905060008490508181935093505050915091565b6000806000806000611c92868c611c43565b8a8a8a611c9f8a8c611c43565b94509450945094509450965096509650965096915050565b60006001600260000160009054906101000a900461ffff1601905060405180604001604052808261ffff1681526020018373ffffffffffffffffffffffffffffffffffffffff16815250600260008201518160000160006101000a81548161ffff021916908361ffff16021790555060208201518160000160026101000a81548173ffffffffffffffffffffffffffffffffffffffff021916908373ffffffffffffffffffffffffffffffffffffffff16021790555090505081600460008361ffff1661ffff16815260200190815260200160002060006101000a81548173ffffffffffffffffffffffffffffffffffffffff021916908373ffffffffffffffffffffffffffffffffffffffff1602179055505050565b6040518060400160405280600061ffff168152602001600073ffffffffffffffffffffffffffffffffffffffff168152509056fea26469706673582212202ca55757e711a011d8e9526afb068394aec0e11d3d739bb8ff17623ab2f23db964736f6c63430006060033",
  "compiler": {
    "name": "solc",
    "version": "0.6.6+commit.6c089d02.Emscripten.clang",
    "optimizer": {
      "enabled": false,
      "runs": 200
    },
    "evmVersion": "petersburg"
  }
}