{
  "fileName": "consumer.sol",
  "contractName": "ATestnetConsumer",
  "source": "pragma solidity 0.6.6;\r\n\r\nimport \"./chainlink_contracts/chainlink/ChainlinkClient.sol\";\r\nimport \"./chainlink_contracts/chainlink/vendor/Ownable.sol\";\r\n\r\ncontract ATestnetConsumer is ChainlinkClient, Ownable {\r\n    uint256 private constant ORACLE_PAYMENT = 1 * LINK;\r\n\r\n    uint256 public currentPrice;\r\n    int256 public changeDay;\r\n    bytes32 public lastMarket;\r\n\r\n    event RequestEthereumPriceFulfilled(\r\n        bytes32 indexed requestId,\r\n        uint256 indexed price\r\n    );\r\n\r\n    event RequestEthereumChangeFulfilled(\r\n        bytes32 indexed requestId,\r\n        int256 indexed change\r\n    );\r\n\r\n    event RequestEthereumLastMarket(\r\n        bytes32 indexed requestId,\r\n        bytes32 indexed market\r\n    );\r\n\r\n    constructor() public Ownable() {\r\n        setPublicChainlinkToken();\r\n    }\r\n\r\n    function requestEthereumPrice(address _oracle, string memory _jobId)\r\n        public\r\n        onlyOwner\r\n    {\r\n        Chainlink.Request memory req = buildChainlinkRequest(\r\n            stringToBytes32(_jobId),\r\n            address(this),\r\n            this.fulfillEthereumPrice.selector\r\n        );\r\n        req.add(\r\n            \"get\",\r\n            \"https://min-api.cryptocompare.com/data/price?fsym=ETH&tsyms=USD\"\r\n        );\r\n        req.add(\"path\", \"USD\");\r\n        req.addInt(\"times\", 100);\r\n        sendChainlinkRequestTo(_oracle, req, ORACLE_PAYMENT);\r\n    }\r\n\r\n    function requestEthereumChange(address _oracle, string memory _jobId)\r\n        public\r\n        onlyOwner\r\n    {\r\n        Chainlink.Request memory req = buildChainlinkRequest(\r\n            stringToBytes32(_jobId),\r\n            address(this),\r\n            this.fulfillEthereumChange.selector\r\n        );\r\n        req.add(\r\n            \"get\",\r\n            \"https://min-api.cryptocompare.com/data/pricemultifull?fsyms=ETH&tsyms=USD\"\r\n        );\r\n        req.add(\"path\", \"RAW.ETH.USD.CHANGEPCTDAY\");\r\n        req.addInt(\"times\", 1000000000);\r\n        sendChainlinkRequestTo(_oracle, req, ORACLE_PAYMENT);\r\n    }\r\n\r\n    function requestEthereumLastMarket(address _oracle, string memory _jobId)\r\n        public\r\n        onlyOwner\r\n    {\r\n        Chainlink.Request memory req = buildChainlinkRequest(\r\n            stringToBytes32(_jobId),\r\n            address(this),\r\n            this.fulfillEthereumLastMarket.selector\r\n        );\r\n        req.add(\r\n            \"get\",\r\n            \"https://min-api.cryptocompare.com/data/pricemultifull?fsyms=ETH&tsyms=USD\"\r\n        );\r\n        string[] memory path = new string[](4);\r\n        path[0] = \"RAW\";\r\n        path[1] = \"ETH\";\r\n        path[2] = \"USD\";\r\n        path[3] = \"LASTMARKET\";\r\n        req.addStringArray(\"path\", path);\r\n        sendChainlinkRequestTo(_oracle, req, ORACLE_PAYMENT);\r\n    }\r\n\r\n    function fulfillEthereumPrice(bytes32 _requestId, uint256 _price)\r\n        public\r\n        recordChainlinkFulfillment(_requestId)\r\n    {\r\n        emit RequestEthereumPriceFulfilled(_requestId, _price);\r\n        currentPrice = _price;\r\n    }\r\n\r\n    function fulfillEthereumChange(bytes32 _requestId, int256 _change)\r\n        public\r\n        recordChainlinkFulfillment(_requestId)\r\n    {\r\n        emit RequestEthereumChangeFulfilled(_requestId, _change);\r\n        changeDay = _change;\r\n    }\r\n\r\n    function fulfillEthereumLastMarket(bytes32 _requestId, bytes32 _market)\r\n        public\r\n        recordChainlinkFulfillment(_requestId)\r\n    {\r\n        emit RequestEthereumLastMarket(_requestId, _market);\r\n        lastMarket = _market;\r\n    }\r\n\r\n    function getChainlinkToken() public view returns (address) {\r\n        return chainlinkTokenAddress();\r\n    }\r\n\r\n    function withdrawLink() public onlyOwner {\r\n        LinkTokenInterface link = LinkTokenInterface(chainlinkTokenAddress());\r\n        require(\r\n            link.transfer(msg.sender, link.balanceOf(address(this))),\r\n            \"Unable to transfer\"\r\n        );\r\n    }\r\n\r\n    function cancelRequest(\r\n        bytes32 _requestId,\r\n        uint256 _payment,\r\n        bytes4 _callbackFunctionId,\r\n        uint256 _expiration\r\n    ) public onlyOwner {\r\n        cancelChainlinkRequest(\r\n            _requestId,\r\n            _payment,\r\n            _callbackFunctionId,\r\n            _expiration\r\n        );\r\n    }\r\n\r\n    function stringToBytes32(string memory source)\r\n        private\r\n        pure\r\n        returns (bytes32 result)\r\n    {\r\n        bytes memory tempEmptyStringTest = bytes(source);\r\n        if (tempEmptyStringTest.length == 0) {\r\n            return 0x0;\r\n        }\r\n\r\n        assembly {\r\n            // solhint-disable-line no-inline-assembly\r\n            result := mload(add(source, 32))\r\n        }\r\n    }\r\n}\r\n",
  "sourcePath": "contracts/consumer.sol",
  "abi": [
    {
      "inputs": [],
      "stateMutability": "nonpayable",
      "type": "constructor"
    },
    {
      "anonymous": false,
      "inputs": [
        {
          "indexed": true,
          "internalType": "bytes32",
          "name": "id",
          "type": "bytes32"
        }
      ],
      "name": "ChainlinkCancelled",
      "type": "event"
    },
    {
      "anonymous": false,
      "inputs": [
        {
          "indexed": true,
          "internalType": "bytes32",
          "name": "id",
          "type": "bytes32"
        }
      ],
      "name": "ChainlinkFulfilled",
      "type": "event"
    },
    {
      "anonymous": false,
      "inputs": [
        {
          "indexed": true,
          "internalType": "bytes32",
          "name": "id",
          "type": "bytes32"
        }
      ],
      "name": "ChainlinkRequested",
      "type": "event"
    },
    {
      "anonymous": false,
      "inputs": [
        {
          "indexed": true,
          "internalType": "address",
          "name": "previousOwner",
          "type": "address"
        },
        {
          "indexed": true,
          "internalType": "address",
          "name": "newOwner",
          "type": "address"
        }
      ],
      "name": "OwnershipTransferred",
      "type": "event"
    },
    {
      "anonymous": false,
      "inputs": [
        {
          "indexed": true,
          "internalType": "bytes32",
          "name": "requestId",
          "type": "bytes32"
        },
        {
          "indexed": true,
          "internalType": "int256",
          "name": "change",
          "type": "int256"
        }
      ],
      "name": "RequestEthereumChangeFulfilled",
      "type": "event"
    },
    {
      "anonymous": false,
      "inputs": [
        {
          "indexed": true,
          "internalType": "bytes32",
          "name": "requestId",
          "type": "bytes32"
        },
        {
          "indexed": true,
          "internalType": "bytes32",
          "name": "market",
          "type": "bytes32"
        }
      ],
      "name": "RequestEthereumLastMarket",
      "type": "event"
    },
    {
      "anonymous": false,
      "inputs": [
        {
          "indexed": true,
          "internalType": "bytes32",
          "name": "requestId",
          "type": "bytes32"
        },
        {
          "indexed": true,
          "internalType": "uint256",
          "name": "price",
          "type": "uint256"
        }
      ],
      "name": "RequestEthereumPriceFulfilled",
      "type": "event"
    },
    {
      "inputs": [
        {
          "internalType": "bytes32",
          "name": "_requestId",
          "type": "bytes32"
        },
        {
          "internalType": "uint256",
          "name": "_payment",
          "type": "uint256"
        },
        {
          "internalType": "bytes4",
          "name": "_callbackFunctionId",
          "type": "bytes4"
        },
        {
          "internalType": "uint256",
          "name": "_expiration",
          "type": "uint256"
        }
      ],
      "name": "cancelRequest",
      "outputs": [],
      "stateMutability": "nonpayable",
      "type": "function"
    },
    {
      "inputs": [],
      "name": "changeDay",
      "outputs": [
        {
          "internalType": "int256",
          "name": "",
          "type": "int256"
        }
      ],
      "stateMutability": "view",
      "type": "function"
    },
    {
      "inputs": [],
      "name": "currentPrice",
      "outputs": [
        {
          "internalType": "uint256",
          "name": "",
          "type": "uint256"
        }
      ],
      "stateMutability": "view",
      "type": "function"
    },
    {
      "inputs": [
        {
          "internalType": "bytes32",
          "name": "_requestId",
          "type": "bytes32"
        },
        {
          "internalType": "int256",
          "name": "_change",
          "type": "int256"
        }
      ],
      "name": "fulfillEthereumChange",
      "outputs": [],
      "stateMutability": "nonpayable",
      "type": "function"
    },
    {
      "inputs": [
        {
          "internalType": "bytes32",
          "name": "_requestId",
          "type": "bytes32"
        },
        {
          "internalType": "bytes32",
          "name": "_market",
          "type": "bytes32"
        }
      ],
      "name": "fulfillEthereumLastMarket",
      "outputs": [],
      "stateMutability": "nonpayable",
      "type": "function"
    },
    {
      "inputs": [
        {
          "internalType": "bytes32",
          "name": "_requestId",
          "type": "bytes32"
        },
        {
          "internalType": "uint256",
          "name": "_price",
          "type": "uint256"
        }
      ],
      "name": "fulfillEthereumPrice",
      "outputs": [],
      "stateMutability": "nonpayable",
      "type": "function"
    },
    {
      "inputs": [],
      "name": "getChainlinkToken",
      "outputs": [
        {
          "internalType": "address",
          "name": "",
          "type": "address"
        }
      ],
      "stateMutability": "view",
      "type": "function"
    },
    {
      "inputs": [],
      "name": "isOwner",
      "outputs": [
        {
          "internalType": "bool",
          "name": "",
          "type": "bool"
        }
      ],
      "stateMutability": "view",
      "type": "function"
    },
    {
      "inputs": [],
      "name": "lastMarket",
      "outputs": [
        {
          "internalType": "bytes32",
          "name": "",
          "type": "bytes32"
        }
      ],
      "stateMutability": "view",
      "type": "function"
    },
    {
      "inputs": [],
      "name": "owner",
      "outputs": [
        {
          "internalType": "address",
          "name": "",
          "type": "address"
        }
      ],
      "stateMutability": "view",
      "type": "function"
    },
    {
      "inputs": [
        {
          "internalType": "address",
          "name": "_oracle",
          "type": "address"
        },
        {
          "internalType": "string",
          "name": "_jobId",
          "type": "string"
        }
      ],
      "name": "requestEthereumChange",
      "outputs": [],
      "stateMutability": "nonpayable",
      "type": "function"
    },
    {
      "inputs": [
        {
          "internalType": "address",
          "name": "_oracle",
          "type": "address"
        },
        {
          "internalType": "string",
          "name": "_jobId",
          "type": "string"
        }
      ],
      "name": "requestEthereumLastMarket",
      "outputs": [],
      "stateMutability": "nonpayable",
      "type": "function"
    },
    {
      "inputs": [
        {
          "internalType": "address",
          "name": "_oracle",
          "type": "address"
        },
        {
          "internalType": "string",
          "name": "_jobId",
          "type": "string"
        }
      ],
      "name": "requestEthereumPrice",
      "outputs": [],
      "stateMutability": "nonpayable",
      "type": "function"
    },
    {
      "inputs": [
        {
          "internalType": "address",
          "name": "newOwner",
          "type": "address"
        }
      ],
      "name": "transferOwnership",
      "outputs": [],
      "stateMutability": "nonpayable",
      "type": "function"
    },
    {
      "inputs": [],
      "name": "withdrawLink",
      "outputs": [],
      "stateMutability": "nonpayable",
      "type": "function"
    }
  ],
  "bytecode": "0x608060405260016004553480156200001657600080fd5b5033600660006101000a81548173ffffffffffffffffffffffffffffffffffffffff021916908373ffffffffffffffffffffffffffffffffffffffff160217905550600660009054906101000a900473ffffffffffffffffffffffffffffffffffffffff1673ffffffffffffffffffffffffffffffffffffffff16600073ffffffffffffffffffffffffffffffffffffffff167f8be0079c531659141344cd1fd0a4f28419497f9722a3daafe3b4186f6b6457e060405160405180910390a3620000e5620000eb60201b60201c565b620001d9565b6200019373c89bd4e1632d3a43cb03aaad5262cbe4038bc57173ffffffffffffffffffffffffffffffffffffffff166338cc48316040518163ffffffff1660e01b815260040160206040518083038186803b1580156200014a57600080fd5b505afa1580156200015f573d6000803e3d6000fd5b505050506040513d60208110156200017657600080fd5b81019080805190602001909291905050506200019560201b60201c565b565b80600260006101000a81548173ffffffffffffffffffffffffffffffffffffffff021916908373ffffffffffffffffffffffffffffffffffffffff16021790555050565b61243380620001e96000396000f3fe608060405234801561001057600080fd5b50600436106100f55760003560e01c806392cdaaf311610097578063e9edbf0311610066578063e9edbf0314610454578063ec65d0f814610472578063f2fde38b146104dd578063f3bdf8ba14610521576100f5565b806392cdaaf3146102eb5780639d1b464a14610323578063a46fbe1a14610341578063ab643c1014610379576100f5565b8063619cba1a116100d3578063619cba1a1461019a5780638da5cb5b146102755780638dc654a2146102bf5780638f32d59b146102c9576100f5565b8063165d35e1146100fa5780632183abd11461014457806349556aff14610162575b600080fd5b6101026105fc565b604051808273ffffffffffffffffffffffffffffffffffffffff1673ffffffffffffffffffffffffffffffffffffffff16815260200191505060405180910390f35b61014c61060b565b6040518082815260200191505060405180910390f35b6101986004803603604081101561017857600080fd5b810190808035906020019092919080359060200190929190505050610611565b005b610273600480360360408110156101b057600080fd5b81019080803573ffffffffffffffffffffffffffffffffffffffff169060200190929190803590602001906401000000008111156101ed57600080fd5b8201836020820111156101ff57600080fd5b8035906020019184600183028401116401000000008311171561022157600080fd5b91908080601f016020809104026020016040519081016040528093929190818152602001838380828437600081840152601f19601f820116905080830192505050505050509192919290505050610766565b005b61027d61094f565b604051808273ffffffffffffffffffffffffffffffffffffffff1673ffffffffffffffffffffffffffffffffffffffff16815260200191505060405180910390f35b6102c7610979565b005b6102d1610bed565b604051808215151515815260200191505060405180910390f35b6103216004803603604081101561030157600080fd5b810190808035906020019092919080359060200190929190505050610c45565b005b61032b610d9a565b6040518082815260200191505060405180910390f35b6103776004803603604081101561035757600080fd5b810190808035906020019092919080359060200190929190505050610da0565b005b6104526004803603604081101561038f57600080fd5b81019080803573ffffffffffffffffffffffffffffffffffffffff169060200190929190803590602001906401000000008111156103cc57600080fd5b8201836020820111156103de57600080fd5b8035906020019184600183028401116401000000008311171561040057600080fd5b91908080601f016020809104026020016040519081016040528093929190818152602001838380828437600081840152601f19601f820116905080830192505050505050509192919290505050610ef5565b005b61045c6110db565b6040518082815260200191505060405180910390f35b6104db6004803603608081101561048857600080fd5b81019080803590602001909291908035906020019092919080357bffffffffffffffffffffffffffffffffffffffffffffffffffffffff19169060200190929190803590602001909291905050506110e1565b005b61051f600480360360208110156104f357600080fd5b81019080803573ffffffffffffffffffffffffffffffffffffffff16906020019092919050505061116d565b005b6105fa6004803603604081101561053757600080fd5b81019080803573ffffffffffffffffffffffffffffffffffffffff1690602001909291908035906020019064010000000081111561057457600080fd5b82018360208201111561058657600080fd5b803590602001918460018302840111640100000000831117156105a857600080fd5b91908080601f016020809104026020016040519081016040528093929190818152602001838380828437600081840152601f19601f8201169050808301925050505050505091929192905050506111f3565b005b60006106066114e3565b905090565b60085481565b816005600082815260200190815260200160002060009054906101000a900473ffffffffffffffffffffffffffffffffffffffff1673ffffffffffffffffffffffffffffffffffffffff163373ffffffffffffffffffffffffffffffffffffffff16146106c9576040517f08c379a000000000000000000000000000000000000000000000000000000000815260040180806020018281038252602881526020018061238d6028913960400191505060405180910390fd5b6005600082815260200190815260200160002060006101000a81549073ffffffffffffffffffffffffffffffffffffffff0219169055807f7cc135e0cebb02c3480ae5d74d377283180a2601f8f644edf7987b009316c63a60405160405180910390a281837f1a7783cfc5355cd0706abec2229662cda9cefcfc8aeb31fec8b391ba5eb67cbe60405160405180910390a381600981905550505050565b61076e610bed565b6107e0576040517f08c379a00000000000000000000000000000000000000000000000000000000081526004018080602001828103825260208152602001807f4f776e61626c653a2063616c6c6572206973206e6f7420746865206f776e657281525060200191505060405180910390fd5b6107e861227d565b6108026107f48361150d565b3063a46fbe1a60e01b611538565b90506108666040518060400160405280600381526020017f67657400000000000000000000000000000000000000000000000000000000008152506040518060800160405280604981526020016123b560499139836115699092919063ffffffff16565b6108e56040518060400160405280600481526020017f70617468000000000000000000000000000000000000000000000000000000008152506040518060400160405280601881526020017f5241572e4554482e5553442e4348414e47455043544441590000000000000000815250836115699092919063ffffffff16565b6109336040518060400160405280600581526020017f74696d6573000000000000000000000000000000000000000000000000000000815250633b9aca008361159c9092919063ffffffff16565b6109498382670de0b6b3a76400006001026115cf565b50505050565b6000600660009054906101000a900473ffffffffffffffffffffffffffffffffffffffff16905090565b610981610bed565b6109f3576040517f08c379a00000000000000000000000000000000000000000000000000000000081526004018080602001828103825260208152602001807f4f776e61626c653a2063616c6c6572206973206e6f7420746865206f776e657281525060200191505060405180910390fd5b60006109fd6114e3565b90508073ffffffffffffffffffffffffffffffffffffffff1663a9059cbb338373ffffffffffffffffffffffffffffffffffffffff166370a08231306040518263ffffffff1660e01b8152600401808273ffffffffffffffffffffffffffffffffffffffff1673ffffffffffffffffffffffffffffffffffffffff16815260200191505060206040518083038186803b158015610a9957600080fd5b505afa158015610aad573d6000803e3d6000fd5b505050506040513d6020811015610ac357600080fd5b81019080805190602001909291905050506040518363ffffffff1660e01b8152600401808373ffffffffffffffffffffffffffffffffffffffff1673ffffffffffffffffffffffffffffffffffffffff16815260200182815260200192505050602060405180830381600087803b158015610b3d57600080fd5b505af1158015610b51573d6000803e3d6000fd5b505050506040513d6020811015610b6757600080fd5b8101908080519060200190929190505050610bea576040517f08c379a00000000000000000000000000000000000000000000000000000000081526004018080602001828103825260128152602001807f556e61626c6520746f207472616e73666572000000000000000000000000000081525060200191505060405180910390fd5b50565b6000600660009054906101000a900473ffffffffffffffffffffffffffffffffffffffff1673ffffffffffffffffffffffffffffffffffffffff163373ffffffffffffffffffffffffffffffffffffffff1614905090565b816005600082815260200190815260200160002060009054906101000a900473ffffffffffffffffffffffffffffffffffffffff1673ffffffffffffffffffffffffffffffffffffffff163373ffffffffffffffffffffffffffffffffffffffff1614610cfd576040517f08c379a000000000000000000000000000000000000000000000000000000000815260040180806020018281038252602881526020018061238d6028913960400191505060405180910390fd5b6005600082815260200190815260200160002060006101000a81549073ffffffffffffffffffffffffffffffffffffffff0219169055807f7cc135e0cebb02c3480ae5d74d377283180a2601f8f644edf7987b009316c63a60405160405180910390a281837f794eb9e29f6750ede99e05248d997a9ab9fa23c4a7eaff8afa729080eb7c642860405160405180910390a381600781905550505050565b60075481565b816005600082815260200190815260200160002060009054906101000a900473ffffffffffffffffffffffffffffffffffffffff1673ffffffffffffffffffffffffffffffffffffffff163373ffffffffffffffffffffffffffffffffffffffff1614610e58576040517f08c379a000000000000000000000000000000000000000000000000000000000815260040180806020018281038252602881526020018061238d6028913960400191505060405180910390fd5b6005600082815260200190815260200160002060006101000a81549073ffffffffffffffffffffffffffffffffffffffff0219169055807f7cc135e0cebb02c3480ae5d74d377283180a2601f8f644edf7987b009316c63a60405160405180910390a281837f36f03c766dbeb725bf2a1e6cf2d934a02bf3cd9644b55767c8f41ef2d4af061260405160405180910390a381600881905550505050565b610efd610bed565b610f6f576040517f08c379a00000000000000000000000000000000000000000000000000000000081526004018080602001828103825260208152602001807f4f776e61626c653a2063616c6c6572206973206e6f7420746865206f776e657281525060200191505060405180910390fd5b610f7761227d565b610f91610f838361150d565b306392cdaaf360e01b611538565b9050610ff56040518060400160405280600381526020017f67657400000000000000000000000000000000000000000000000000000000008152506040518060600160405280603f815260200161234e603f9139836115699092919063ffffffff16565b6110746040518060400160405280600481526020017f70617468000000000000000000000000000000000000000000000000000000008152506040518060400160405280600381526020017f5553440000000000000000000000000000000000000000000000000000000000815250836115699092919063ffffffff16565b6110bf6040518060400160405280600581526020017f74696d657300000000000000000000000000000000000000000000000000000081525060648361159c9092919063ffffffff16565b6110d58382670de0b6b3a76400006001026115cf565b50505050565b60095481565b6110e9610bed565b61115b576040517f08c379a00000000000000000000000000000000000000000000000000000000081526004018080602001828103825260208152602001807f4f776e61626c653a2063616c6c6572206973206e6f7420746865206f776e657281525060200191505060405180910390fd5b61116784848484611887565b50505050565b611175610bed565b6111e7576040517f08c379a00000000000000000000000000000000000000000000000000000000081526004018080602001828103825260208152602001807f4f776e61626c653a2063616c6c6572206973206e6f7420746865206f776e657281525060200191505060405180910390fd5b6111f0816119ea565b50565b6111fb610bed565b61126d576040517f08c379a00000000000000000000000000000000000000000000000000000000081526004018080602001828103825260208152602001807f4f776e61626c653a2063616c6c6572206973206e6f7420746865206f776e657281525060200191505060405180910390fd5b61127561227d565b61128f6112818361150d565b306349556aff60e01b611538565b90506112f36040518060400160405280600381526020017f67657400000000000000000000000000000000000000000000000000000000008152506040518060800160405280604981526020016123b560499139836115699092919063ffffffff16565b6060600467ffffffffffffffff8111801561130d57600080fd5b5060405190808252806020026020018201604052801561134157816020015b606081526020019060019003908161132c5790505b5090506040518060400160405280600381526020017f52415700000000000000000000000000000000000000000000000000000000008152508160008151811061138757fe5b60200260200101819052506040518060400160405280600381526020017f4554480000000000000000000000000000000000000000000000000000000000815250816001815181106113d557fe5b60200260200101819052506040518060400160405280600381526020017f55534400000000000000000000000000000000000000000000000000000000008152508160028151811061142357fe5b60200260200101819052506040518060400160405280600a81526020017f4c4153544d41524b4554000000000000000000000000000000000000000000008152508160038151811061147157fe5b60200260200101819052506114c66040518060400160405280600481526020017f70617468000000000000000000000000000000000000000000000000000000008152508284611b309092919063ffffffff16565b6114dc8483670de0b6b3a76400006001026115cf565b5050505050565b6000600260009054906101000a900473ffffffffffffffffffffffffffffffffffffffff16905090565b6000606082905060008151141561152a576000801b915050611533565b60208301519150505b919050565b61154061227d565b61154861227d565b61155f85858584611bad909392919063ffffffff16565b9150509392505050565b611580828460800151611c5d90919063ffffffff16565b611597818460800151611c5d90919063ffffffff16565b505050565b6115b3828460800151611c5d90919063ffffffff16565b6115ca818460800151611c8290919063ffffffff16565b505050565b600030600454604051602001808373ffffffffffffffffffffffffffffffffffffffff1673ffffffffffffffffffffffffffffffffffffffff1660601b815260140182815260200192505050604051602081830303815290604052805190602001209050600454836060018181525050836005600083815260200190815260200160002060006101000a81548173ffffffffffffffffffffffffffffffffffffffff021916908373ffffffffffffffffffffffffffffffffffffffff160217905550807fb5e6e01e79f91267dc17b4e6314d5d4d03593d2ceee0fbb452b750bd70ea5af960405160405180910390a2600260009054906101000a900473ffffffffffffffffffffffffffffffffffffffff1673ffffffffffffffffffffffffffffffffffffffff16634000aea0858461170787611cce565b6040518463ffffffff1660e01b8152600401808473ffffffffffffffffffffffffffffffffffffffff1673ffffffffffffffffffffffffffffffffffffffff16815260200183815260200180602001828103825283818151815260200191508051906020019080838360005b8381101561178e578082015181840152602081019050611773565b50505050905090810190601f1680156117bb5780820380516001836020036101000a031916815260200191505b50945050505050602060405180830381600087803b1580156117dc57600080fd5b505af11580156117f0573d6000803e3d6000fd5b505050506040513d602081101561180657600080fd5b810190808051906020019092919050505061186c576040517f08c379a000000000000000000000000000000000000000000000000000000000815260040180806020018281038252602381526020018061232b6023913960400191505060405180910390fd5b60016004600082825401925050819055508090509392505050565b60006005600086815260200190815260200160002060009054906101000a900473ffffffffffffffffffffffffffffffffffffffff1690506005600086815260200190815260200160002060006101000a81549073ffffffffffffffffffffffffffffffffffffffff0219169055847fe1fe3afa0f7f761ff0a8b89086790efd5140d2907ebd5b7ff6bfcb5e075fd4c560405160405180910390a28073ffffffffffffffffffffffffffffffffffffffff16636ee4d553868686866040518563ffffffff1660e01b815260040180858152602001848152602001837bffffffffffffffffffffffffffffffffffffffffffffffffffffffff19167bffffffffffffffffffffffffffffffffffffffffffffffffffffffff19168152602001828152602001945050505050600060405180830381600087803b1580156119cb57600080fd5b505af11580156119df573d6000803e3d6000fd5b505050505050505050565b600073ffffffffffffffffffffffffffffffffffffffff168173ffffffffffffffffffffffffffffffffffffffff161415611a70576040517f08c379a00000000000000000000000000000000000000000000000000000000081526004018080602001828103825260268152602001806123056026913960400191505060405180910390fd5b8073ffffffffffffffffffffffffffffffffffffffff16600660009054906101000a900473ffffffffffffffffffffffffffffffffffffffff1673ffffffffffffffffffffffffffffffffffffffff167f8be0079c531659141344cd1fd0a4f28419497f9722a3daafe3b4186f6b6457e060405160405180910390a380600660006101000a81548173ffffffffffffffffffffffffffffffffffffffff021916908373ffffffffffffffffffffffffffffffffffffffff16021790555050565b611b47828460800151611c5d90919063ffffffff16565b611b548360800151611e9a565b60008090505b8151811015611b9a57611b8d828281518110611b7257fe5b60200260200101518560800151611c5d90919063ffffffff16565b8080600101915050611b5a565b50611ba88360800151611ea8565b505050565b611bb561227d565b611bc58560800151610100611eb6565b508385600001818152505082856020019073ffffffffffffffffffffffffffffffffffffffff16908173ffffffffffffffffffffffffffffffffffffffff16815250508185604001907bffffffffffffffffffffffffffffffffffffffffffffffffffffffff191690817bffffffffffffffffffffffffffffffffffffffffffffffffffffffff191681525050849050949350505050565b611c6a8260038351611f0a565b611c7d818361204f90919063ffffffff16565b505050565b60008112611c9b57611c9682600083611f0a565b611cca565b611cc9826001837fffffffffffffffffffffffffffffffffffffffffffffffffffffffffffffffff03611f0a565b5b5050565b6060634042994660e01b60008084600001518560200151866040015187606001516001896080015160000151604051602401808973ffffffffffffffffffffffffffffffffffffffff1673ffffffffffffffffffffffffffffffffffffffff1681526020018881526020018781526020018673ffffffffffffffffffffffffffffffffffffffff1673ffffffffffffffffffffffffffffffffffffffff168152602001857bffffffffffffffffffffffffffffffffffffffffffffffffffffffff19167bffffffffffffffffffffffffffffffffffffffffffffffffffffffff1916815260200184815260200183815260200180602001828103825283818151815260200191508051906020019080838360005b83811015611dfd578082015181840152602081019050611de2565b50505050905090810190601f168015611e2a5780820380516001836020036101000a031916815260200191505b509950505050505050505050604051602081830303815290604052907bffffffffffffffffffffffffffffffffffffffffffffffffffffffff19166020820180517bffffffffffffffffffffffffffffffffffffffffffffffffffffffff83818316178352505050509050919050565b611ea5816004612071565b50565b611eb3816007612071565b50565b611ebe6122ea565b600060208381611eca57fe5b0614611ee35760208281611eda57fe5b06602003820191505b81836020018181525050604051808452600081528281016020016040525082905092915050565b60178111611f3757611f318160058460ff16901b60ff16178461209390919063ffffffff16565b5061204a565b60ff8111611f7957611f5c601860058460ff16901b178461209390919063ffffffff16565b50611f73816001856120b39092919063ffffffff16565b50612049565b61ffff8111611fbc57611f9f601960058460ff16901b178461209390919063ffffffff16565b50611fb6816002856120b39092919063ffffffff16565b50612048565b63ffffffff811161200157611fe4601a60058460ff16901b178461209390919063ffffffff16565b50611ffb816004856120b39092919063ffffffff16565b50612047565b67ffffffffffffffff81116120465761202d601b60058460ff16901b178461209390919063ffffffff16565b50612044816008856120b39092919063ffffffff16565b505b5b5b5b5b505050565b6120576122ea565b612069838460000151518485516120d5565b905092915050565b61208e601f60058360ff16901b178361209390919063ffffffff16565b505050565b61209b6122ea565b6120ab838460000151518461218e565b905092915050565b6120bb6122ea565b6120cc8485600001515185856121dc565b90509392505050565b6120dd6122ea565b82518211156120eb57600080fd5b846020015182850111156121165761211585600261210f886020015188870161223d565b02612259565b5b6000808651805187602083010193508088870111156121355787860182525b60208701925050505b60208410612161578051825260208201915060208101905060208403935061213e565b60006001856020036101000a03905080198251168184511681811785525050879350505050949350505050565b6121966122ea565b836020015183106121b3576121b2846002866020015102612259565b5b83518051602085830101848153818614156121cf576001820183525b5050508390509392505050565b6121e46122ea565b846020015184830111156122025761220185600286850102612259565b5b60006001836101000a039050855183868201018583198251161781528151858801111561222f5784870182525b505085915050949350505050565b60008183111561224f57829050612253565b8190505b92915050565b60608260000151905061226c8383611eb6565b50612277838261204f565b50505050565b6040518060a0016040528060008019168152602001600073ffffffffffffffffffffffffffffffffffffffff16815260200160007bffffffffffffffffffffffffffffffffffffffffffffffffffffffff19168152602001600081526020016122e46122ea565b81525090565b60405180604001604052806060815260200160008152509056fe4f776e61626c653a206e6577206f776e657220697320746865207a65726f2061646472657373756e61626c6520746f207472616e73666572416e6443616c6c20746f206f7261636c6568747470733a2f2f6d696e2d6170692e63727970746f636f6d706172652e636f6d2f646174612f70726963653f6673796d3d455448267473796d733d555344536f75726365206d75737420626520746865206f7261636c65206f6620746865207265717565737468747470733a2f2f6d696e2d6170692e63727970746f636f6d706172652e636f6d2f646174612f70726963656d756c746966756c6c3f6673796d733d455448267473796d733d555344a26469706673582212209aa4e6646107470ace29263a3ea9509019bd4d2607d84bfcc6a11417e6b3afa064736f6c63430006060033",
  "compiler": {
    "name": "solc",
    "version": "0.6.6+commit.6c089d02.Emscripten.clang",
    "optimizer": {
      "enabled": false,
      "runs": 200
    },
    "evmVersion": "petersburg"
  }
}