{
  "fileName": "BlockhashStoreTestHelper.sol",
  "contractName": "BlockhashStoreTestHelper",
  "source": "pragma solidity 0.6.6;\n\nimport \"../dev/BlockhashStore.sol\";\n\ncontract BlockhashStoreTestHelper is BlockhashStore {\n  function godmodeSetHash(uint256 n, bytes32 h) public {\n    s_blockhashes[n] = h;\n  }\n}\n",
  "sourcePath": "contracts/chainlink_contracts/chainlink/tests/BlockhashStoreTestHelper.sol",
  "abi": [
    {
      "inputs": [
        {
          "internalType": "uint256",
          "name": "n",
          "type": "uint256"
        }
      ],
      "name": "getBlockhash",
      "outputs": [
        {
          "internalType": "bytes32",
          "name": "",
          "type": "bytes32"
        }
      ],
      "stateMutability": "view",
      "type": "function"
    },
    {
      "inputs": [
        {
          "internalType": "uint256",
          "name": "n",
          "type": "uint256"
        },
        {
          "internalType": "bytes32",
          "name": "h",
          "type": "bytes32"
        }
      ],
      "name": "godmodeSetHash",
      "outputs": [],
      "stateMutability": "nonpayable",
      "type": "function"
    },
    {
      "inputs": [
        {
          "internalType": "uint256",
          "name": "n",
          "type": "uint256"
        }
      ],
      "name": "store",
      "outputs": [],
      "stateMutability": "nonpayable",
      "type": "function"
    },
    {
      "inputs": [],
      "name": "storeEarliest",
      "outputs": [],
      "stateMutability": "nonpayable",
      "type": "function"
    },
    {
      "inputs": [
        {
          "internalType": "uint256",
          "name": "n",
          "type": "uint256"
        },
        {
          "internalType": "bytes",
          "name": "header",
          "type": "bytes"
        }
      ],
      "name": "storeVerifyHeader",
      "outputs": [],
      "stateMutability": "nonpayable",
      "type": "function"
    }
  ],
  "bytecode": "0x608060405234801561001057600080fd5b5061041d806100206000396000f3fe608060405234801561001057600080fd5b50600436106100575760003560e01c80636057361d1461005c57806383b6d6b71461008a578063898faab214610094578063e9413d38146100cc578063fadff0e11461010e575b600080fd5b6100886004803603602081101561007257600080fd5b81019080803590602001909291905050506101d3565b005b61009261026d565b005b6100ca600480360360408110156100aa57600080fd5b81019080803590602001909291908035906020019092919050505061027c565b005b6100f8600480360360208110156100e257600080fd5b8101908080359060200190929190505050610297565b6040518082815260200191505060405180910390f35b6101d16004803603604081101561012457600080fd5b81019080803590602001909291908035906020019064010000000081111561014b57600080fd5b82018360208201111561015d57600080fd5b8035906020019184600183028401116401000000008311171561017f57600080fd5b91908080601f016020809104026020016040519081016040528093929190818152602001838380828437600081840152601f19601f820116905080830192505050505050509192919290505050610331565b005b6000814090506000801b811415610252576040517f08c379a00000000000000000000000000000000000000000000000000000000081526004018080602001828103825260138152602001807f626c6f636b68617368286e29206661696c65640000000000000000000000000081525060200191505060405180910390fd5b80600080848152602001908152602001600020819055505050565b61027a61010043036101d3565b565b80600080848152602001908152602001600020819055505050565b6000806000808481526020019081526020016000205490506000801b811415610328576040517f08c379a000000000000000000000000000000000000000000000000000000000815260040180806020018281038252601c8152602001807f626c6f636b68617368206e6f7420666f756e6420696e2073746f72650000000081525060200191505060405180910390fd5b80915050919050565b600080600184018152602001908152602001600020548180519060200120146103c2576040517f08c379a000000000000000000000000000000000000000000000000000000000815260040180806020018281038252601c8152602001807f6865616465722068617320756e6b6e6f776e20626c6f636b686173680000000081525060200191505060405180910390fd5b600060248201519050806000808581526020019081526020016000208190555050505056fea26469706673582212205dc53bb5bde5b04f1f31460b1f1bf0e82a8a8a6601425ef4239b7a061cc5e1db64736f6c63430006060033",
  "compiler": {
    "name": "solc",
    "version": "0.6.6+commit.6c089d02.Emscripten.clang",
    "optimizer": {
      "enabled": false,
      "runs": 200
    },
    "evmVersion": "petersburg"
  }
}