{
  "fileName": "BlockhashStore.sol",
  "contractName": "BlockhashStore",
  "source": "pragma solidity 0.6.6;\n\n/**\n * @title BlockhashStore\n * @notice This contract provides a way to access blockhashes older than\n *   the 256 block limit imposed by the BLOCKHASH opcode.\n *   You may assume that any blockhash stored by the contract is correct.\n *   Note that the contract depends on the format of serialized Ethereum\n *   blocks. If a future hardfork of Ethereum changes that format, the \n *   logic in this contract may become incorrect and an updated version \n *   would have to be deployed.\n */\ncontract BlockhashStore {\n\n  mapping(uint => bytes32) internal s_blockhashes;\n\n  /**\n   * @notice stores blockhash of a given block, assuming it is available through BLOCKHASH\n   * @param n the number of the block whose blockhash should be stored\n   */\n  function store(uint256 n) public {\n    bytes32 h = blockhash(n);\n    require(h != 0x0, \"blockhash(n) failed\");\n    s_blockhashes[n] = h;\n  }\n\n\n  /**\n   * @notice stores blockhash of the earliest block still available through BLOCKHASH.\n   */\n  function storeEarliest() external {\n    store(block.number - 256);\n  }\n\n  /**\n   * @notice stores blockhash after verifying blockheader of child/subsequent block\n   * @param n the number of the block whose blockhash should be stored\n   * @param header the rlp-encoded blockheader of block n+1. We verify its correctness by checking\n   *   that it hashes to a stored blockhash, and then extract parentHash to get the n-th blockhash.\n   */\n  function storeVerifyHeader(uint256 n, bytes memory header) public {\n    require(keccak256(header) == s_blockhashes[n + 1], \"header has unknown blockhash\");\n\n    // At this point, we know that header is the correct blockheader for block n+1.\n\n    // The header is an rlp-encoded list. The head item of that list is the 32-byte blockhash of the parent block.\n    // Based on how rlp works, we know that blockheaders always have the following form:\n    // 0xf9____a0PARENTHASH...\n    //   ^ ^   ^\n    //   | |   |\n    //   | |   +--- PARENTHASH is 32 bytes. rlpenc(PARENTHASH) is 0xa || PARENTHASH.\n    //   | |\n    //   | +--- 2 bytes containing the sum of the lengths of the encoded list items\n    //   |\n    //   +--- 0xf9 because we have a list and (sum of lengths of encoded list items) fits exactly into two bytes.\n    //\n    // As a consequence, the PARENTHASH is always at offset 4 of the rlp-encoded block header.\n\n    bytes32 parentHash;\n    assembly {\n      parentHash := mload(add(header, 36)) // 36 = 32 byte offset for length prefix of ABI-encoded array\n                                           //    +  4 byte offset of PARENTHASH (see above)\n    }\n\n    s_blockhashes[n] = parentHash;\n  }\n\n  /**\n   * @notice gets a blockhash from the store. If no hash is known, this function reverts.\n   * @param n the number of the block whose blockhash should be returned\n   */\n  function getBlockhash(uint256 n) external view returns (bytes32) {\n    bytes32 h = s_blockhashes[n];\n    require(h != 0x0, \"blockhash not found in store\");\n    return h;\n  }\n}\n",
  "sourcePath": "contracts/chainlink_contracts/chainlink/dev/BlockhashStore.sol",
  "abi": [
    {
      "inputs": [
        {
          "internalType": "uint256",
          "name": "n",
          "type": "uint256"
        }
      ],
      "name": "getBlockhash",
      "outputs": [
        {
          "internalType": "bytes32",
          "name": "",
          "type": "bytes32"
        }
      ],
      "stateMutability": "view",
      "type": "function"
    },
    {
      "inputs": [
        {
          "internalType": "uint256",
          "name": "n",
          "type": "uint256"
        }
      ],
      "name": "store",
      "outputs": [],
      "stateMutability": "nonpayable",
      "type": "function"
    },
    {
      "inputs": [],
      "name": "storeEarliest",
      "outputs": [],
      "stateMutability": "nonpayable",
      "type": "function"
    },
    {
      "inputs": [
        {
          "internalType": "uint256",
          "name": "n",
          "type": "uint256"
        },
        {
          "internalType": "bytes",
          "name": "header",
          "type": "bytes"
        }
      ],
      "name": "storeVerifyHeader",
      "outputs": [],
      "stateMutability": "nonpayable",
      "type": "function"
    }
  ],
  "bytecode": "0x608060405234801561001057600080fd5b506103bf806100206000396000f3fe608060405234801561001057600080fd5b506004361061004c5760003560e01c80636057361d1461005157806383b6d6b71461007f578063e9413d3814610089578063fadff0e1146100cb575b600080fd5b61007d6004803603602081101561006757600080fd5b8101908080359060200190929190505050610190565b005b61008761022a565b005b6100b56004803603602081101561009f57600080fd5b8101908080359060200190929190505050610239565b6040518082815260200191505060405180910390f35b61018e600480360360408110156100e157600080fd5b81019080803590602001909291908035906020019064010000000081111561010857600080fd5b82018360208201111561011a57600080fd5b8035906020019184600183028401116401000000008311171561013c57600080fd5b91908080601f016020809104026020016040519081016040528093929190818152602001838380828437600081840152601f19601f8201169050808301925050505050505091929192905050506102d3565b005b6000814090506000801b81141561020f576040517f08c379a00000000000000000000000000000000000000000000000000000000081526004018080602001828103825260138152602001807f626c6f636b68617368286e29206661696c65640000000000000000000000000081525060200191505060405180910390fd5b80600080848152602001908152602001600020819055505050565b6102376101004303610190565b565b6000806000808481526020019081526020016000205490506000801b8114156102ca576040517f08c379a000000000000000000000000000000000000000000000000000000000815260040180806020018281038252601c8152602001807f626c6f636b68617368206e6f7420666f756e6420696e2073746f72650000000081525060200191505060405180910390fd5b80915050919050565b60008060018401815260200190815260200160002054818051906020012014610364576040517f08c379a000000000000000000000000000000000000000000000000000000000815260040180806020018281038252601c8152602001807f6865616465722068617320756e6b6e6f776e20626c6f636b686173680000000081525060200191505060405180910390fd5b600060248201519050806000808581526020019081526020016000208190555050505056fea26469706673582212201792f8a5f5d7b3081b601a58356ce8f9f34cce606796c6a32bc2390e79633f0b64736f6c63430006060033",
  "compiler": {
    "name": "solc",
    "version": "0.6.6+commit.6c089d02.Emscripten.clang",
    "optimizer": {
      "enabled": false,
      "runs": 200
    },
    "evmVersion": "petersburg"
  }
}