{
  "fileName": "CheckedMathTestHelper.sol",
  "contractName": "CheckedMathTestHelper",
  "source": "pragma solidity ^0.6.0;\n\nimport '../CheckedMath.sol';\n\ncontract CheckedMathTestHelper {\n  using CheckedMath for int256;\n\n  function add(int256 a, int256 b)\n    external\n    pure\n    returns (int256 result, bool ok)\n  {\n    return a.add(b);\n  }\n\n  function sub(int256 a, int256 b)\n    external\n    pure\n    returns (int256 result, bool ok)\n  {\n    return a.sub(b);\n  }\n\n  function mul(int256 a, int256 b)\n    external\n    pure\n    returns (int256 result, bool ok)\n  {\n    return a.mul(b);\n  }\n\n  function div(int256 a, int256 b)\n    external\n    pure\n    returns (int256 result, bool ok)\n  {\n    return a.div(b);\n  }\n\n}\n",
  "sourcePath": "contracts/chainlink_contracts/chainlink/tests/CheckedMathTestHelper.sol",
  "abi": [
    {
      "inputs": [
        {
          "internalType": "int256",
          "name": "a",
          "type": "int256"
        },
        {
          "internalType": "int256",
          "name": "b",
          "type": "int256"
        }
      ],
      "name": "add",
      "outputs": [
        {
          "internalType": "int256",
          "name": "result",
          "type": "int256"
        },
        {
          "internalType": "bool",
          "name": "ok",
          "type": "bool"
        }
      ],
      "stateMutability": "pure",
      "type": "function"
    },
    {
      "inputs": [
        {
          "internalType": "int256",
          "name": "a",
          "type": "int256"
        },
        {
          "internalType": "int256",
          "name": "b",
          "type": "int256"
        }
      ],
      "name": "div",
      "outputs": [
        {
          "internalType": "int256",
          "name": "result",
          "type": "int256"
        },
        {
          "internalType": "bool",
          "name": "ok",
          "type": "bool"
        }
      ],
      "stateMutability": "pure",
      "type": "function"
    },
    {
      "inputs": [
        {
          "internalType": "int256",
          "name": "a",
          "type": "int256"
        },
        {
          "internalType": "int256",
          "name": "b",
          "type": "int256"
        }
      ],
      "name": "mul",
      "outputs": [
        {
          "internalType": "int256",
          "name": "result",
          "type": "int256"
        },
        {
          "internalType": "bool",
          "name": "ok",
          "type": "bool"
        }
      ],
      "stateMutability": "pure",
      "type": "function"
    },
    {
      "inputs": [
        {
          "internalType": "int256",
          "name": "a",
          "type": "int256"
        },
        {
          "internalType": "int256",
          "name": "b",
          "type": "int256"
        }
      ],
      "name": "sub",
      "outputs": [
        {
          "internalType": "int256",
          "name": "result",
          "type": "int256"
        },
        {
          "internalType": "bool",
          "name": "ok",
          "type": "bool"
        }
      ],
      "stateMutability": "pure",
      "type": "function"
    }
  ],
  "bytecode": "0x608060405234801561001057600080fd5b50610463806100206000396000f3fe608060405234801561001057600080fd5b506004361061004c5760003560e01c80634350913814610051578063a5f3c23b146100a8578063adefc37b146100ff578063bbe93d9114610156575b600080fd5b6100876004803603604081101561006757600080fd5b8101908080359060200190929190803590602001909291905050506101ad565b60405180838152602001821515151581526020019250505060405180910390f35b6100de600480360360408110156100be57600080fd5b8101908080359060200190929190803590602001909291905050506101ce565b60405180838152602001821515151581526020019250505060405180910390f35b6101356004803603604081101561011557600080fd5b8101908080359060200190929190803590602001909291905050506101ef565b60405180838152602001821515151581526020019250505060405180910390f35b61018c6004803603604081101561016c57600080fd5b810190808035906020019092919080359060200190929190505050610210565b60405180838152602001821515151581526020019250505060405180910390f35b6000806101c3838561023190919063ffffffff16565b915091509250929050565b6000806101e483856102cc90919063ffffffff16565b915091509250929050565b600080610205838561032290919063ffffffff16565b915091509250929050565b600080610226838561037890919063ffffffff16565b915091509250929050565b600080600083141561024c57600080819150915091506102c5565b7fffffffffffffffffffffffffffffffffffffffffffffffffffffffffffffffff8314801561029a57507f800000000000000000000000000000000000000000000000000000000000000084145b156102ae57600080819150915091506102c5565b60008385816102b957fe5b05905080600192509250505b9250929050565b60008060008385019050600084121580156102e657508481125b806102fd57506000841280156102fc5750848112155b5b1561031257600080819150925092505061031b565b80600192509250505b9250929050565b6000806000838503905060008412801561033c5750848113155b8061035357506000841215801561035257508481135b5b15610368576000808191509250925050610371565b80600192509250505b9250929050565b6000806000841415610394576000600181915091509150610426565b7fffffffffffffffffffffffffffffffffffffffffffffffffffffffffffffffff841480156103e257507f800000000000000000000000000000000000000000000000000000000000000083145b156103f65760008081915091509150610426565b600083850290508385828161040757fe5b051461041d576000808191509250925050610426565b80600192509250505b925092905056fea26469706673582212208195134047dd51ae3ba758f43c51e4f4129776548c74f674088b903601a2941664736f6c63430006060033",
  "compiler": {
    "name": "solc",
    "version": "0.6.6+commit.6c089d02.Emscripten.clang",
    "optimizer": {
      "enabled": false,
      "runs": 200
    },
    "evmVersion": "petersburg"
  }
}