{
  "fileName": "ConcreteSignedSafeMath.sol",
  "contractName": "ConcreteSignedSafeMath",
  "source": "pragma solidity ^0.6.0;\n\nimport \"../SignedSafeMath.sol\";\n\ncontract ConcreteSignedSafeMath {\n  function testAdd(int256 _a, int256 _b)\n    external\n    pure\n    returns (int256)\n  {\n    return SignedSafeMath.add(_a, _b);\n  }\n\n  function testAvg(int256 _a, int256 _b)\n    external\n    pure\n    returns (int256)\n  {\n    return SignedSafeMath.avg(_a, _b);\n  }\n}\n",
  "sourcePath": "contracts/chainlink_contracts/chainlink/tests/ConcreteSignedSafeMath.sol",
  "abi": [
    {
      "inputs": [
        {
          "internalType": "int256",
          "name": "_a",
          "type": "int256"
        },
        {
          "internalType": "int256",
          "name": "_b",
          "type": "int256"
        }
      ],
      "name": "testAdd",
      "outputs": [
        {
          "internalType": "int256",
          "name": "",
          "type": "int256"
        }
      ],
      "stateMutability": "pure",
      "type": "function"
    },
    {
      "inputs": [
        {
          "internalType": "int256",
          "name": "_a",
          "type": "int256"
        },
        {
          "internalType": "int256",
          "name": "_b",
          "type": "int256"
        }
      ],
      "name": "testAvg",
      "outputs": [
        {
          "internalType": "int256",
          "name": "",
          "type": "int256"
        }
      ],
      "stateMutability": "pure",
      "type": "function"
    }
  ],
  "bytecode": "0x608060405234801561001057600080fd5b5061027d806100206000396000f3fe608060405234801561001057600080fd5b50600436106100365760003560e01c806347037c901461003b5780634c64959614610087575b600080fd5b6100716004803603604081101561005157600080fd5b8101908080359060200190929190803590602001909291905050506100d3565b6040518082815260200191505060405180910390f35b6100bd6004803603604081101561009d57600080fd5b8101908080359060200190929190803590602001909291905050506100e7565b6040518082815260200191505060405180910390f35b60006100df83836100fb565b905092915050565b60006100f38383610189565b905092915050565b6000808284019050600083121580156101145750838112155b8061012a575060008312801561012957508381125b5b61017f576040517f08c379a00000000000000000000000000000000000000000000000000000000081526004018080602001828103825260218152602001806102276021913960400191505060405180910390fd5b8091505092915050565b6000808312801561019a5750600082135b806101b157506000831380156101b05750600082125b5b156101d15760026101c284846100fb565b816101c957fe5b059050610220565b600060028084816101de57fe5b07600286816101e957fe5b0701816101f257fe5b05905061021c6102166002868161020557fe5b056002868161021057fe5b056100fb565b826100fb565b9150505b9291505056fe5369676e6564536166654d6174683a206164646974696f6e206f766572666c6f77a2646970667358221220921ed4d88a80910700ab97fbc4665d80e4ece6d3226bd28e3c61761c5811234e64736f6c63430006060033",
  "compiler": {
    "name": "solc",
    "version": "0.6.6+commit.6c089d02.Emscripten.clang",
    "optimizer": {
      "enabled": false,
      "runs": 200
    },
    "evmVersion": "petersburg"
  }
}