{
  "fileName": "Consumer.sol",
  "contractName": "Consumer",
  "source": "pragma solidity ^0.6.0;\n\nimport \"../ChainlinkClient.sol\";\n\ncontract Consumer is ChainlinkClient {\n  bytes32 internal specId;\n  bytes32 public currentPrice;\n\n  event RequestFulfilled(\n    bytes32 indexed requestId,  // User-defined ID\n    bytes32 indexed price\n  );\n\n  function requestEthereumPrice(string memory _currency, uint256 _payment) public {\n    requestEthereumPriceByCallback(_currency, _payment, address(this));\n  }\n\n  function requestEthereumPriceByCallback(string memory _currency, uint256 _payment, address _callback) public {\n    Chainlink.Request memory req = buildChainlinkRequest(specId, _callback, this.fulfill.selector);\n    req.add(\"get\", \"https://min-api.cryptocompare.com/data/price?fsym=ETH&tsyms=USD,EUR,JPY\");\n    string[] memory path = new string[](1);\n    path[0] = _currency;\n    req.addStringArray(\"path\", path);\n    sendChainlinkRequest(req, _payment);\n  }\n\n  function cancelRequest(\n    address _oracle,\n    bytes32 _requestId,\n    uint256 _payment,\n    bytes4 _callbackFunctionId,\n    uint256 _expiration\n  ) public {\n    ChainlinkRequestInterface requested = ChainlinkRequestInterface(_oracle);\n    requested.cancelOracleRequest(_requestId, _payment, _callbackFunctionId, _expiration);\n  }\n\n  function withdrawLink() public {\n    LinkTokenInterface _link = LinkTokenInterface(chainlinkTokenAddress());\n    require(_link.transfer(msg.sender, _link.balanceOf(address(this))), \"Unable to transfer\");\n  }\n\n  function addExternalRequest(address _oracle, bytes32 _requestId) external {\n    addChainlinkExternalRequest(_oracle, _requestId);\n  }\n\n  function fulfill(bytes32 _requestId, bytes32 _price)\n    public\n    recordChainlinkFulfillment(_requestId)\n  {\n    emit RequestFulfilled(_requestId, _price);\n    currentPrice = _price;\n  }\n\n}\n",
  "sourcePath": "contracts/chainlink_contracts/chainlink/tests/Consumer.sol",
  "abi": [
    {
      "anonymous": false,
      "inputs": [
        {
          "indexed": true,
          "internalType": "bytes32",
          "name": "id",
          "type": "bytes32"
        }
      ],
      "name": "ChainlinkCancelled",
      "type": "event"
    },
    {
      "anonymous": false,
      "inputs": [
        {
          "indexed": true,
          "internalType": "bytes32",
          "name": "id",
          "type": "bytes32"
        }
      ],
      "name": "ChainlinkFulfilled",
      "type": "event"
    },
    {
      "anonymous": false,
      "inputs": [
        {
          "indexed": true,
          "internalType": "bytes32",
          "name": "id",
          "type": "bytes32"
        }
      ],
      "name": "ChainlinkRequested",
      "type": "event"
    },
    {
      "anonymous": false,
      "inputs": [
        {
          "indexed": true,
          "internalType": "bytes32",
          "name": "requestId",
          "type": "bytes32"
        },
        {
          "indexed": true,
          "internalType": "bytes32",
          "name": "price",
          "type": "bytes32"
        }
      ],
      "name": "RequestFulfilled",
      "type": "event"
    },
    {
      "inputs": [
        {
          "internalType": "address",
          "name": "_oracle",
          "type": "address"
        },
        {
          "internalType": "bytes32",
          "name": "_requestId",
          "type": "bytes32"
        }
      ],
      "name": "addExternalRequest",
      "outputs": [],
      "stateMutability": "nonpayable",
      "type": "function"
    },
    {
      "inputs": [
        {
          "internalType": "address",
          "name": "_oracle",
          "type": "address"
        },
        {
          "internalType": "bytes32",
          "name": "_requestId",
          "type": "bytes32"
        },
        {
          "internalType": "uint256",
          "name": "_payment",
          "type": "uint256"
        },
        {
          "internalType": "bytes4",
          "name": "_callbackFunctionId",
          "type": "bytes4"
        },
        {
          "internalType": "uint256",
          "name": "_expiration",
          "type": "uint256"
        }
      ],
      "name": "cancelRequest",
      "outputs": [],
      "stateMutability": "nonpayable",
      "type": "function"
    },
    {
      "inputs": [],
      "name": "currentPrice",
      "outputs": [
        {
          "internalType": "bytes32",
          "name": "",
          "type": "bytes32"
        }
      ],
      "stateMutability": "view",
      "type": "function"
    },
    {
      "inputs": [
        {
          "internalType": "bytes32",
          "name": "_requestId",
          "type": "bytes32"
        },
        {
          "internalType": "bytes32",
          "name": "_price",
          "type": "bytes32"
        }
      ],
      "name": "fulfill",
      "outputs": [],
      "stateMutability": "nonpayable",
      "type": "function"
    },
    {
      "inputs": [
        {
          "internalType": "string",
          "name": "_currency",
          "type": "string"
        },
        {
          "internalType": "uint256",
          "name": "_payment",
          "type": "uint256"
        }
      ],
      "name": "requestEthereumPrice",
      "outputs": [],
      "stateMutability": "nonpayable",
      "type": "function"
    },
    {
      "inputs": [
        {
          "internalType": "string",
          "name": "_currency",
          "type": "string"
        },
        {
          "internalType": "uint256",
          "name": "_payment",
          "type": "uint256"
        },
        {
          "internalType": "address",
          "name": "_callback",
          "type": "address"
        }
      ],
      "name": "requestEthereumPriceByCallback",
      "outputs": [],
      "stateMutability": "nonpayable",
      "type": "function"
    },
    {
      "inputs": [],
      "name": "withdrawLink",
      "outputs": [],
      "stateMutability": "nonpayable",
      "type": "function"
    }
  ],
  "bytecode": "0x6080604052600160045534801561001557600080fd5b506115e5806100256000396000f3fe608060405234801561001057600080fd5b506004361061007d5760003560e01c806383db5cbc1161005b57806383db5cbc1461022a5780638dc654a2146102ef5780639d1b464a146102f9578063e8d5359d146103175761007d565b8063042f2b65146100825780635591a608146100ba57806374961d4d14610145575b600080fd5b6100b86004803603604081101561009857600080fd5b810190808035906020019092919080359060200190929190505050610365565b005b610143600480360360a08110156100d057600080fd5b81019080803573ffffffffffffffffffffffffffffffffffffffff169060200190929190803590602001909291908035906020019092919080357bffffffffffffffffffffffffffffffffffffffffffffffffffffffff19169060200190929190803590602001909291905050506104ba565b005b6102286004803603606081101561015b57600080fd5b810190808035906020019064010000000081111561017857600080fd5b82018360208201111561018a57600080fd5b803590602001918460018302840111640100000000831117156101ac57600080fd5b91908080601f016020809104026020016040519081016040528093929190818152602001838380828437600081840152601f19601f82011690508083019250505050505050919291929080359060200190929190803573ffffffffffffffffffffffffffffffffffffffff169060200190929190505050610588565b005b6102ed6004803603604081101561024057600080fd5b810190808035906020019064010000000081111561025d57600080fd5b82018360208201111561026f57600080fd5b8035906020019184600183028401116401000000008311171561029157600080fd5b91908080601f016020809104026020016040519081016040528093929190818152602001838380828437600081840152601f19601f820116905080830192505050505050509192919290803590602001909291905050506106ce565b005b6102f76106dd565b005b6103016108d7565b6040518082815260200191505060405180910390f35b6103636004803603604081101561032d57600080fd5b81019080803573ffffffffffffffffffffffffffffffffffffffff169060200190929190803590602001909291905050506108dd565b005b816005600082815260200190815260200160002060009054906101000a900473ffffffffffffffffffffffffffffffffffffffff1673ffffffffffffffffffffffffffffffffffffffff163373ffffffffffffffffffffffffffffffffffffffff161461041d576040517f08c379a00000000000000000000000000000000000000000000000000000000081526004018080602001828103825260288152602001806115416028913960400191505060405180910390fd5b6005600082815260200190815260200160002060006101000a81549073ffffffffffffffffffffffffffffffffffffffff0219169055807f7cc135e0cebb02c3480ae5d74d377283180a2601f8f644edf7987b009316c63a60405160405180910390a281837f0c2366233f634048c0f0458060d1228fab36d00f7c0ecf6bdf2d9c458503631160405160405180910390a381600781905550505050565b60008590508073ffffffffffffffffffffffffffffffffffffffff16636ee4d553868686866040518563ffffffff1660e01b815260040180858152602001848152602001837bffffffffffffffffffffffffffffffffffffffffffffffffffffffff19167bffffffffffffffffffffffffffffffffffffffffffffffffffffffff19168152602001828152602001945050505050600060405180830381600087803b15801561056857600080fd5b505af115801561057c573d6000803e3d6000fd5b50505050505050505050565b610590611496565b6105a46006548363042f2b6560e01b6108eb565b90506106086040518060400160405280600381526020017f6765740000000000000000000000000000000000000000000000000000000000815250604051806080016040528060478152602001611569604791398361091c9092919063ffffffff16565b6060600167ffffffffffffffff8111801561062257600080fd5b5060405190808252806020026020018201604052801561065657816020015b60608152602001906001900390816106415790505b509050848160008151811061066757fe5b60200260200101819052506106bc6040518060400160405280600481526020017f7061746800000000000000000000000000000000000000000000000000000000815250828461094f9092919063ffffffff16565b6106c682856109cc565b505050505050565b6106d9828230610588565b5050565b60006106e7610a03565b90508073ffffffffffffffffffffffffffffffffffffffff1663a9059cbb338373ffffffffffffffffffffffffffffffffffffffff166370a08231306040518263ffffffff1660e01b8152600401808273ffffffffffffffffffffffffffffffffffffffff1673ffffffffffffffffffffffffffffffffffffffff16815260200191505060206040518083038186803b15801561078357600080fd5b505afa158015610797573d6000803e3d6000fd5b505050506040513d60208110156107ad57600080fd5b81019080805190602001909291905050506040518363ffffffff1660e01b8152600401808373ffffffffffffffffffffffffffffffffffffffff1673ffffffffffffffffffffffffffffffffffffffff16815260200182815260200192505050602060405180830381600087803b15801561082757600080fd5b505af115801561083b573d6000803e3d6000fd5b505050506040513d602081101561085157600080fd5b81019080805190602001909291905050506108d4576040517f08c379a00000000000000000000000000000000000000000000000000000000081526004018080602001828103825260128152602001807f556e61626c6520746f207472616e73666572000000000000000000000000000081525060200191505060405180910390fd5b50565b60075481565b6108e78282610a2d565b5050565b6108f3611496565b6108fb611496565b61091285858584610b5a909392919063ffffffff16565b9150509392505050565b610933828460800151610c0a90919063ffffffff16565b61094a818460800151610c0a90919063ffffffff16565b505050565b610966828460800151610c0a90919063ffffffff16565b6109738360800151610c2f565b60008090505b81518110156109b9576109ac82828151811061099157fe5b60200260200101518560800151610c0a90919063ffffffff16565b8080600101915050610979565b506109c78360800151610c3d565b505050565b60006109fb600360009054906101000a900473ffffffffffffffffffffffffffffffffffffffff168484610c4b565b905092915050565b6000600260009054906101000a900473ffffffffffffffffffffffffffffffffffffffff16905090565b80600073ffffffffffffffffffffffffffffffffffffffff166005600083815260200190815260200160002060009054906101000a900473ffffffffffffffffffffffffffffffffffffffff1673ffffffffffffffffffffffffffffffffffffffff1614610b03576040517f08c379a000000000000000000000000000000000000000000000000000000000815260040180806020018281038252601a8152602001807f5265717565737420697320616c72656164792070656e64696e6700000000000081525060200191505060405180910390fd5b826005600084815260200190815260200160002060006101000a81548173ffffffffffffffffffffffffffffffffffffffff021916908373ffffffffffffffffffffffffffffffffffffffff160217905550505050565b610b62611496565b610b728560800151610100610f03565b508385600001818152505082856020019073ffffffffffffffffffffffffffffffffffffffff16908173ffffffffffffffffffffffffffffffffffffffff16815250508185604001907bffffffffffffffffffffffffffffffffffffffffffffffffffffffff191690817bffffffffffffffffffffffffffffffffffffffffffffffffffffffff191681525050849050949350505050565b610c178260038351610f57565b610c2a818361109c90919063ffffffff16565b505050565b610c3a8160046110be565b50565b610c488160076110be565b50565b600030600454604051602001808373ffffffffffffffffffffffffffffffffffffffff1673ffffffffffffffffffffffffffffffffffffffff1660601b815260140182815260200192505050604051602081830303815290604052805190602001209050600454836060018181525050836005600083815260200190815260200160002060006101000a81548173ffffffffffffffffffffffffffffffffffffffff021916908373ffffffffffffffffffffffffffffffffffffffff160217905550807fb5e6e01e79f91267dc17b4e6314d5d4d03593d2ceee0fbb452b750bd70ea5af960405160405180910390a2600260009054906101000a900473ffffffffffffffffffffffffffffffffffffffff1673ffffffffffffffffffffffffffffffffffffffff16634000aea08584610d83876110e0565b6040518463ffffffff1660e01b8152600401808473ffffffffffffffffffffffffffffffffffffffff1673ffffffffffffffffffffffffffffffffffffffff16815260200183815260200180602001828103825283818151815260200191508051906020019080838360005b83811015610e0a578082015181840152602081019050610def565b50505050905090810190601f168015610e375780820380516001836020036101000a031916815260200191505b50945050505050602060405180830381600087803b158015610e5857600080fd5b505af1158015610e6c573d6000803e3d6000fd5b505050506040513d6020811015610e8257600080fd5b8101908080519060200190929190505050610ee8576040517f08c379a000000000000000000000000000000000000000000000000000000000815260040180806020018281038252602381526020018061151e6023913960400191505060405180910390fd5b60016004600082825401925050819055508090509392505050565b610f0b611503565b600060208381610f1757fe5b0614610f305760208281610f2757fe5b06602003820191505b81836020018181525050604051808452600081528281016020016040525082905092915050565b60178111610f8457610f7e8160058460ff16901b60ff1617846112ac90919063ffffffff16565b50611097565b60ff8111610fc657610fa9601860058460ff16901b17846112ac90919063ffffffff16565b50610fc0816001856112cc9092919063ffffffff16565b50611096565b61ffff811161100957610fec601960058460ff16901b17846112ac90919063ffffffff16565b50611003816002856112cc9092919063ffffffff16565b50611095565b63ffffffff811161104e57611031601a60058460ff16901b17846112ac90919063ffffffff16565b50611048816004856112cc9092919063ffffffff16565b50611094565b67ffffffffffffffff81116110935761107a601b60058460ff16901b17846112ac90919063ffffffff16565b50611091816008856112cc9092919063ffffffff16565b505b5b5b5b5b505050565b6110a4611503565b6110b6838460000151518485516112ee565b905092915050565b6110db601f60058360ff16901b17836112ac90919063ffffffff16565b505050565b6060634042994660e01b60008084600001518560200151866040015187606001516001896080015160000151604051602401808973ffffffffffffffffffffffffffffffffffffffff1673ffffffffffffffffffffffffffffffffffffffff1681526020018881526020018781526020018673ffffffffffffffffffffffffffffffffffffffff1673ffffffffffffffffffffffffffffffffffffffff168152602001857bffffffffffffffffffffffffffffffffffffffffffffffffffffffff19167bffffffffffffffffffffffffffffffffffffffffffffffffffffffff1916815260200184815260200183815260200180602001828103825283818151815260200191508051906020019080838360005b8381101561120f5780820151818401526020810190506111f4565b50505050905090810190601f16801561123c5780820380516001836020036101000a031916815260200191505b509950505050505050505050604051602081830303815290604052907bffffffffffffffffffffffffffffffffffffffffffffffffffffffff19166020820180517bffffffffffffffffffffffffffffffffffffffffffffffffffffffff83818316178352505050509050919050565b6112b4611503565b6112c483846000015151846113a7565b905092915050565b6112d4611503565b6112e58485600001515185856113f5565b90509392505050565b6112f6611503565b825182111561130457600080fd5b8460200151828501111561132f5761132e8560026113288860200151888701611456565b02611472565b5b60008086518051876020830101935080888701111561134e5787860182525b60208701925050505b6020841061137a5780518252602082019150602081019050602084039350611357565b60006001856020036101000a03905080198251168184511681811785525050879350505050949350505050565b6113af611503565b836020015183106113cc576113cb846002866020015102611472565b5b83518051602085830101848153818614156113e8576001820183525b5050508390509392505050565b6113fd611503565b8460200151848301111561141b5761141a85600286850102611472565b5b60006001836101000a03905085518386820101858319825116178152815185880111156114485784870182525b505085915050949350505050565b6000818311156114685782905061146c565b8190505b92915050565b6060826000015190506114858383610f03565b50611490838261109c565b50505050565b6040518060a0016040528060008019168152602001600073ffffffffffffffffffffffffffffffffffffffff16815260200160007bffffffffffffffffffffffffffffffffffffffffffffffffffffffff19168152602001600081526020016114fd611503565b81525090565b60405180604001604052806060815260200160008152509056fe756e61626c6520746f207472616e73666572416e6443616c6c20746f206f7261636c65536f75726365206d75737420626520746865206f7261636c65206f6620746865207265717565737468747470733a2f2f6d696e2d6170692e63727970746f636f6d706172652e636f6d2f646174612f70726963653f6673796d3d455448267473796d733d5553442c4555522c4a5059a2646970667358221220bd558db49c1439a6d055c3f76ab4716562b420ff4128c3a952f3ae727c5980a664736f6c63430006060033",
  "compiler": {
    "name": "solc",
    "version": "0.6.6+commit.6c089d02.Emscripten.clang",
    "optimizer": {
      "enabled": false,
      "runs": 200
    },
    "evmVersion": "petersburg"
  }
}