{
  "fileName": "EACAggregatorProxy.sol",
  "contractName": "EACAggregatorProxy",
  "source": "pragma solidity 0.6.6;\n\nimport \"./AggregatorProxy.sol\";\nimport \"./interfaces/AccessControllerInterface.sol\";\n\n/**\n * @title External Access Controlled Aggregator Proxy\n * @notice A trusted proxy for updating where current answers are read from\n * @notice This contract provides a consistent address for the\n * Aggregator and AggregatorV3Interface but delegates where it reads from to the owner, who is\n * trusted to update it.\n * @notice Only access enabled addresses are allowed to access getters for\n * aggregated answers and round information.\n */\ncontract EACAggregatorProxy is AggregatorProxy {\n\n  AccessControllerInterface public accessController;\n\n  constructor(\n    address _aggregator,\n    address _accessController\n  )\n    public\n    AggregatorProxy(_aggregator)\n  {\n    setController(_accessController);\n  }\n\n  /**\n   * @notice Allows the owner to update the accessController contract address.\n   * @param _accessController The new address for the accessController contract\n   */\n  function setController(address _accessController)\n    public\n    onlyOwner()\n  {\n    accessController = AccessControllerInterface(_accessController);\n  }\n\n  /**\n   * @notice Reads the current answer from aggregator delegated to.\n   * @dev overridden function to add the checkAccess() modifier\n   *\n   * @dev #[deprecated] Use latestRoundData instead. This does not error if no\n   * answer has been reached, it will simply return 0. Either wait to point to\n   * an already answered Aggregator or use the recommended latestRoundData\n   * instead which includes better verification information.\n   */\n  function latestAnswer()\n    public\n    view\n    override\n    checkAccess()\n    returns (int256)\n  {\n    return super.latestAnswer();\n  }\n\n  /**\n   * @notice get the latest completed round where the answer was updated. This\n   * ID includes the proxy's phase, to make sure round IDs increase even when\n   * switching to a newly deployed aggregator.\n   *\n   * @dev #[deprecated] Use latestRoundData instead. This does not error if no\n   * answer has been reached, it will simply return 0. Either wait to point to\n   * an already answered Aggregator or use the recommended latestRoundData\n   * instead which includes better verification information.\n   */\n  function latestTimestamp()\n    public\n    view\n    override\n    checkAccess()\n    returns (uint256)\n  {\n    return super.latestTimestamp();\n  }\n\n  /**\n   * @notice get past rounds answers\n   * @param _roundId the answer number to retrieve the answer for\n   * @dev overridden function to add the checkAccess() modifier\n   *\n   * @dev #[deprecated] Use getRoundData instead. This does not error if no\n   * answer has been reached, it will simply return 0. Either wait to point to\n   * an already answered Aggregator or use the recommended getRoundData\n   * instead which includes better verification information.\n   */\n  function getAnswer(uint256 _roundId)\n    public\n    view\n    override\n    checkAccess()\n    returns (int256)\n  {\n    return super.getAnswer(_roundId);\n  }\n\n  /**\n   * @notice get block timestamp when an answer was last updated\n   * @param _roundId the answer number to retrieve the updated timestamp for\n   * @dev overridden function to add the checkAccess() modifier\n   *\n   * @dev #[deprecated] Use getRoundData instead. This does not error if no\n   * answer has been reached, it will simply return 0. Either wait to point to\n   * an already answered Aggregator or use the recommended getRoundData\n   * instead which includes better verification information.\n   */\n  function getTimestamp(uint256 _roundId)\n    public\n    view\n    override\n    checkAccess()\n    returns (uint256)\n  {\n    return super.getTimestamp(_roundId);\n  }\n\n  /**\n   * @notice get the latest completed round where the answer was updated\n   * @dev overridden function to add the checkAccess() modifier\n   *\n   * @dev #[deprecated] Use latestRoundData instead. This does not error if no\n   * answer has been reached, it will simply return 0. Either wait to point to\n   * an already answered Aggregator or use the recommended latestRoundData\n   * instead which includes better verification information.\n   */\n  function latestRound()\n    public\n    view\n    override\n    checkAccess()\n    returns (uint256)\n  {\n    return super.latestRound();\n  }\n\n  /**\n   * @notice get data about a round. Consumers are encouraged to check\n   * that they're receiving fresh data by inspecting the updatedAt and\n   * answeredInRound return values.\n   * Note that different underlying implementations of AggregatorV3Interface\n   * have slightly different semantics for some of the return values. Consumers\n   * should determine what implementations they expect to receive\n   * data from and validate that they can properly handle return data from all\n   * of them.\n   * @param _roundId the round ID to retrieve the round data for\n   * @return roundId is the round ID from the aggregator for which the data was\n   * retrieved combined with a phase to ensure that round IDs get larger as\n   * time moves forward.\n   * @return answer is the answer for the given round\n   * @return startedAt is the timestamp when the round was started.\n   * (Only some AggregatorV3Interface implementations return meaningful values)\n   * @return updatedAt is the timestamp when the round last was updated (i.e.\n   * answer was last computed)\n   * @return answeredInRound is the round ID of the round in which the answer\n   * was computed.\n   * (Only some AggregatorV3Interface implementations return meaningful values)\n   * @dev Note that answer and updatedAt may change between queries.\n   */\n  function getRoundData(uint80 _roundId)\n    public\n    view\n    checkAccess()\n    override\n    returns (\n      uint80 roundId,\n      int256 answer,\n      uint256 startedAt,\n      uint256 updatedAt,\n      uint80 answeredInRound\n    )\n  {\n    return super.getRoundData(_roundId);\n  }\n\n  /**\n   * @notice get data about the latest round. Consumers are encouraged to check\n   * that they're receiving fresh data by inspecting the updatedAt and\n   * answeredInRound return values.\n   * Note that different underlying implementations of AggregatorV3Interface\n   * have slightly different semantics for some of the return values. Consumers\n   * should determine what implementations they expect to receive\n   * data from and validate that they can properly handle return data from all\n   * of them.\n   * @return roundId is the round ID from the aggregator for which the data was\n   * retrieved combined with a phase to ensure that round IDs get larger as\n   * time moves forward.\n   * @return answer is the answer for the given round\n   * @return startedAt is the timestamp when the round was started.\n   * (Only some AggregatorV3Interface implementations return meaningful values)\n   * @return updatedAt is the timestamp when the round last was updated (i.e.\n   * answer was last computed)\n   * @return answeredInRound is the round ID of the round in which the answer\n   * was computed.\n   * (Only some AggregatorV3Interface implementations return meaningful values)\n   * @dev Note that answer and updatedAt may change between queries.\n   */\n  function latestRoundData()\n    public\n    view\n    checkAccess()\n    override\n    returns (\n      uint80 roundId,\n      int256 answer,\n      uint256 startedAt,\n      uint256 updatedAt,\n      uint80 answeredInRound\n    )\n  {\n    return super.latestRoundData();\n  }\n\n  /**\n   * @notice Used if an aggregator contract has been proposed.\n   * @param _roundId the round ID to retrieve the round data for\n   * @return roundId is the round ID for which data was retrieved\n   * @return answer is the answer for the given round\n   * @return startedAt is the timestamp when the round was started.\n   * (Only some AggregatorV3Interface implementations return meaningful values)\n   * @return updatedAt is the timestamp when the round last was updated (i.e.\n   * answer was last computed)\n   * @return answeredInRound is the round ID of the round in which the answer\n   * was computed.\n  */\n  function proposedGetRoundData(uint80 _roundId)\n    public\n    view\n    checkAccess()\n    hasProposal()\n    override\n    returns (\n      uint80 roundId,\n      int256 answer,\n      uint256 startedAt,\n      uint256 updatedAt,\n      uint80 answeredInRound\n    )\n  {\n    return super.proposedGetRoundData(_roundId);\n  }\n\n  /**\n   * @notice Used if an aggregator contract has been proposed.\n   * @return roundId is the round ID for which data was retrieved\n   * @return answer is the answer for the given round\n   * @return startedAt is the timestamp when the round was started.\n   * (Only some AggregatorV3Interface implementations return meaningful values)\n   * @return updatedAt is the timestamp when the round last was updated (i.e.\n   * answer was last computed)\n   * @return answeredInRound is the round ID of the round in which the answer\n   * was computed.\n  */\n  function proposedLatestRoundData()\n    public\n    view\n    checkAccess()\n    hasProposal()\n    override\n    returns (\n      uint80 roundId,\n      int256 answer,\n      uint256 startedAt,\n      uint256 updatedAt,\n      uint80 answeredInRound\n    )\n  {\n    return super.proposedLatestRoundData();\n  }\n\n  /**\n   * @dev reverts if the caller does not have access by the accessController\n   * contract or is the contract itself.\n   */\n  modifier checkAccess() {\n    AccessControllerInterface ac = accessController;\n    require(address(ac) == address(0) || ac.hasAccess(msg.sender, msg.data), \"No access\");\n    _;\n  }\n}\n",
  "sourcePath": "contracts/chainlink_contracts/chainlink/EACAggregatorProxy.sol",
  "abi": [
    {
      "inputs": [
        {
          "internalType": "address",
          "name": "_aggregator",
          "type": "address"
        },
        {
          "internalType": "address",
          "name": "_accessController",
          "type": "address"
        }
      ],
      "stateMutability": "nonpayable",
      "type": "constructor"
    },
    {
      "anonymous": false,
      "inputs": [
        {
          "indexed": true,
          "internalType": "int256",
          "name": "current",
          "type": "int256"
        },
        {
          "indexed": true,
          "internalType": "uint256",
          "name": "roundId",
          "type": "uint256"
        },
        {
          "indexed": false,
          "internalType": "uint256",
          "name": "updatedAt",
          "type": "uint256"
        }
      ],
      "name": "AnswerUpdated",
      "type": "event"
    },
    {
      "anonymous": false,
      "inputs": [
        {
          "indexed": true,
          "internalType": "uint256",
          "name": "roundId",
          "type": "uint256"
        },
        {
          "indexed": true,
          "internalType": "address",
          "name": "startedBy",
          "type": "address"
        },
        {
          "indexed": false,
          "internalType": "uint256",
          "name": "startedAt",
          "type": "uint256"
        }
      ],
      "name": "NewRound",
      "type": "event"
    },
    {
      "anonymous": false,
      "inputs": [
        {
          "indexed": true,
          "internalType": "address",
          "name": "from",
          "type": "address"
        },
        {
          "indexed": true,
          "internalType": "address",
          "name": "to",
          "type": "address"
        }
      ],
      "name": "OwnershipTransferRequested",
      "type": "event"
    },
    {
      "anonymous": false,
      "inputs": [
        {
          "indexed": true,
          "internalType": "address",
          "name": "from",
          "type": "address"
        },
        {
          "indexed": true,
          "internalType": "address",
          "name": "to",
          "type": "address"
        }
      ],
      "name": "OwnershipTransferred",
      "type": "event"
    },
    {
      "inputs": [],
      "name": "acceptOwnership",
      "outputs": [],
      "stateMutability": "nonpayable",
      "type": "function"
    },
    {
      "inputs": [],
      "name": "accessController",
      "outputs": [
        {
          "internalType": "contract AccessControllerInterface",
          "name": "",
          "type": "address"
        }
      ],
      "stateMutability": "view",
      "type": "function"
    },
    {
      "inputs": [],
      "name": "aggregator",
      "outputs": [
        {
          "internalType": "address",
          "name": "",
          "type": "address"
        }
      ],
      "stateMutability": "view",
      "type": "function"
    },
    {
      "inputs": [
        {
          "internalType": "address",
          "name": "_aggregator",
          "type": "address"
        }
      ],
      "name": "confirmAggregator",
      "outputs": [],
      "stateMutability": "nonpayable",
      "type": "function"
    },
    {
      "inputs": [],
      "name": "decimals",
      "outputs": [
        {
          "internalType": "uint8",
          "name": "",
          "type": "uint8"
        }
      ],
      "stateMutability": "view",
      "type": "function"
    },
    {
      "inputs": [],
      "name": "description",
      "outputs": [
        {
          "internalType": "string",
          "name": "",
          "type": "string"
        }
      ],
      "stateMutability": "view",
      "type": "function"
    },
    {
      "inputs": [
        {
          "internalType": "uint256",
          "name": "_roundId",
          "type": "uint256"
        }
      ],
      "name": "getAnswer",
      "outputs": [
        {
          "internalType": "int256",
          "name": "",
          "type": "int256"
        }
      ],
      "stateMutability": "view",
      "type": "function"
    },
    {
      "inputs": [
        {
          "internalType": "uint80",
          "name": "_roundId",
          "type": "uint80"
        }
      ],
      "name": "getRoundData",
      "outputs": [
        {
          "internalType": "uint80",
          "name": "roundId",
          "type": "uint80"
        },
        {
          "internalType": "int256",
          "name": "answer",
          "type": "int256"
        },
        {
          "internalType": "uint256",
          "name": "startedAt",
          "type": "uint256"
        },
        {
          "internalType": "uint256",
          "name": "updatedAt",
          "type": "uint256"
        },
        {
          "internalType": "uint80",
          "name": "answeredInRound",
          "type": "uint80"
        }
      ],
      "stateMutability": "view",
      "type": "function"
    },
    {
      "inputs": [
        {
          "internalType": "uint256",
          "name": "_roundId",
          "type": "uint256"
        }
      ],
      "name": "getTimestamp",
      "outputs": [
        {
          "internalType": "uint256",
          "name": "",
          "type": "uint256"
        }
      ],
      "stateMutability": "view",
      "type": "function"
    },
    {
      "inputs": [],
      "name": "latestAnswer",
      "outputs": [
        {
          "internalType": "int256",
          "name": "",
          "type": "int256"
        }
      ],
      "stateMutability": "view",
      "type": "function"
    },
    {
      "inputs": [],
      "name": "latestRound",
      "outputs": [
        {
          "internalType": "uint256",
          "name": "",
          "type": "uint256"
        }
      ],
      "stateMutability": "view",
      "type": "function"
    },
    {
      "inputs": [],
      "name": "latestRoundData",
      "outputs": [
        {
          "internalType": "uint80",
          "name": "roundId",
          "type": "uint80"
        },
        {
          "internalType": "int256",
          "name": "answer",
          "type": "int256"
        },
        {
          "internalType": "uint256",
          "name": "startedAt",
          "type": "uint256"
        },
        {
          "internalType": "uint256",
          "name": "updatedAt",
          "type": "uint256"
        },
        {
          "internalType": "uint80",
          "name": "answeredInRound",
          "type": "uint80"
        }
      ],
      "stateMutability": "view",
      "type": "function"
    },
    {
      "inputs": [],
      "name": "latestTimestamp",
      "outputs": [
        {
          "internalType": "uint256",
          "name": "",
          "type": "uint256"
        }
      ],
      "stateMutability": "view",
      "type": "function"
    },
    {
      "inputs": [],
      "name": "owner",
      "outputs": [
        {
          "internalType": "address",
          "name": "",
          "type": "address"
        }
      ],
      "stateMutability": "view",
      "type": "function"
    },
    {
      "inputs": [
        {
          "internalType": "uint16",
          "name": "",
          "type": "uint16"
        }
      ],
      "name": "phaseAggregators",
      "outputs": [
        {
          "internalType": "contract AggregatorV2V3Interface",
          "name": "",
          "type": "address"
        }
      ],
      "stateMutability": "view",
      "type": "function"
    },
    {
      "inputs": [],
      "name": "phaseId",
      "outputs": [
        {
          "internalType": "uint16",
          "name": "",
          "type": "uint16"
        }
      ],
      "stateMutability": "view",
      "type": "function"
    },
    {
      "inputs": [
        {
          "internalType": "address",
          "name": "_aggregator",
          "type": "address"
        }
      ],
      "name": "proposeAggregator",
      "outputs": [],
      "stateMutability": "nonpayable",
      "type": "function"
    },
    {
      "inputs": [],
      "name": "proposedAggregator",
      "outputs": [
        {
          "internalType": "contract AggregatorV2V3Interface",
          "name": "",
          "type": "address"
        }
      ],
      "stateMutability": "view",
      "type": "function"
    },
    {
      "inputs": [
        {
          "internalType": "uint80",
          "name": "_roundId",
          "type": "uint80"
        }
      ],
      "name": "proposedGetRoundData",
      "outputs": [
        {
          "internalType": "uint80",
          "name": "roundId",
          "type": "uint80"
        },
        {
          "internalType": "int256",
          "name": "answer",
          "type": "int256"
        },
        {
          "internalType": "uint256",
          "name": "startedAt",
          "type": "uint256"
        },
        {
          "internalType": "uint256",
          "name": "updatedAt",
          "type": "uint256"
        },
        {
          "internalType": "uint80",
          "name": "answeredInRound",
          "type": "uint80"
        }
      ],
      "stateMutability": "view",
      "type": "function"
    },
    {
      "inputs": [],
      "name": "proposedLatestRoundData",
      "outputs": [
        {
          "internalType": "uint80",
          "name": "roundId",
          "type": "uint80"
        },
        {
          "internalType": "int256",
          "name": "answer",
          "type": "int256"
        },
        {
          "internalType": "uint256",
          "name": "startedAt",
          "type": "uint256"
        },
        {
          "internalType": "uint256",
          "name": "updatedAt",
          "type": "uint256"
        },
        {
          "internalType": "uint80",
          "name": "answeredInRound",
          "type": "uint80"
        }
      ],
      "stateMutability": "view",
      "type": "function"
    },
    {
      "inputs": [
        {
          "internalType": "address",
          "name": "_accessController",
          "type": "address"
        }
      ],
      "name": "setController",
      "outputs": [],
      "stateMutability": "nonpayable",
      "type": "function"
    },
    {
      "inputs": [
        {
          "internalType": "address",
          "name": "_to",
          "type": "address"
        }
      ],
      "name": "transferOwnership",
      "outputs": [],
      "stateMutability": "nonpayable",
      "type": "function"
    },
    {
      "inputs": [],
      "name": "version",
      "outputs": [
        {
          "internalType": "uint256",
          "name": "",
          "type": "uint256"
        }
      ],
      "stateMutability": "view",
      "type": "function"
    }
  ],
  "bytecode": "0x60806040523480156200001157600080fd5b50604051620034fe380380620034fe833981810160405260408110156200003757600080fd5b81019080805190602001909291908051906020019092919050505081336000806101000a81548173ffffffffffffffffffffffffffffffffffffffff021916908373ffffffffffffffffffffffffffffffffffffffff160217905550620000a481620000be60201b60201c565b50620000b681620001d560201b60201c565b5050620002dc565b60006001600260000160009054906101000a900461ffff1601905060405180604001604052808261ffff1681526020018373ffffffffffffffffffffffffffffffffffffffff16815250600260008201518160000160006101000a81548161ffff021916908361ffff16021790555060208201518160000160026101000a81548173ffffffffffffffffffffffffffffffffffffffff021916908373ffffffffffffffffffffffffffffffffffffffff16021790555090505081600460008361ffff1661ffff16815260200190815260200160002060006101000a81548173ffffffffffffffffffffffffffffffffffffffff021916908373ffffffffffffffffffffffffffffffffffffffff1602179055505050565b6000809054906101000a900473ffffffffffffffffffffffffffffffffffffffff1673ffffffffffffffffffffffffffffffffffffffff163373ffffffffffffffffffffffffffffffffffffffff161462000298576040517f08c379a00000000000000000000000000000000000000000000000000000000081526004018080602001828103825260168152602001807f4f6e6c792063616c6c61626c65206279206f776e65720000000000000000000081525060200191505060405180910390fd5b80600560006101000a81548173ffffffffffffffffffffffffffffffffffffffff021916908373ffffffffffffffffffffffffffffffffffffffff16021790555050565b61321280620002ec6000396000f3fe608060405234801561001057600080fd5b506004361061014d5760003560e01c80638f6b4d91116100c3578063bc43cbaf1161007c578063bc43cbaf146105df578063c159730414610629578063e8c4be301461069b578063f2fde38b146106e5578063f8a2abd314610729578063feaf968c1461076d5761014d565b80638f6b4d91146103cf57806392eefe9b146104395780639a6fc8f51461047d578063a928c09614610517578063b5ab58dc1461055b578063b633620c1461059d5761014d565b80636001ac53116101155780636001ac5314610222578063668a0f02146102bc5780637284e416146102da57806379ba50971461035d5780638205bf6a146103675780638da5cb5b146103855761014d565b8063245a7bfc14610152578063313ce5671461019c57806350d25bcd146101c057806354fd4d50146101de57806358303b10146101fc575b600080fd5b61015a6107d7565b604051808273ffffffffffffffffffffffffffffffffffffffff1673ffffffffffffffffffffffffffffffffffffffff16815260200191505060405180910390f35b6101a4610804565b604051808260ff1660ff16815260200191505060405180910390f35b6101c86108b1565b6040518082815260200191505060405180910390f35b6101e6610a7d565b6040518082815260200191505060405180910390f35b610204610b2a565b604051808261ffff1661ffff16815260200191505060405180910390f35b61025a6004803603602081101561023857600080fd5b81019080803569ffffffffffffffffffff169060200190929190505050610b45565b604051808669ffffffffffffffffffff1669ffffffffffffffffffff1681526020018581526020018481526020018381526020018269ffffffffffffffffffff1669ffffffffffffffffffff1681526020019550505050505060405180910390f35b6102c4610deb565b6040518082815260200191505060405180910390f35b6102e2610fb7565b6040518080602001828103825283818151815260200191508051906020019080838360005b83811015610322578082015181840152602081019050610307565b50505050905090810190601f16801561034f5780820380516001836020036101000a031916815260200191505b509250505060405180910390f35b610365611122565b005b61036f6112ea565b6040518082815260200191505060405180910390f35b61038d6114b6565b604051808273ffffffffffffffffffffffffffffffffffffffff1673ffffffffffffffffffffffffffffffffffffffff16815260200191505060405180910390f35b6103d76114db565b604051808669ffffffffffffffffffff1669ffffffffffffffffffff1681526020018581526020018481526020018381526020018269ffffffffffffffffffff1669ffffffffffffffffffff1681526020019550505050505060405180910390f35b61047b6004803603602081101561044f57600080fd5b81019080803573ffffffffffffffffffffffffffffffffffffffff16906020019092919050505061177e565b005b6104b56004803603602081101561049357600080fd5b81019080803569ffffffffffffffffffff169060200190929190505050611884565b604051808669ffffffffffffffffffff1669ffffffffffffffffffff1681526020018581526020018481526020018381526020018269ffffffffffffffffffff1669ffffffffffffffffffff1681526020019550505050505060405180910390f35b6105596004803603602081101561052d57600080fd5b81019080803573ffffffffffffffffffffffffffffffffffffffff169060200190929190505050611a65565b005b6105876004803603602081101561057157600080fd5b8101908080359060200190929190505050611c1b565b6040518082815260200191505060405180910390f35b6105c9600480360360208110156105b357600080fd5b8101908080359060200190929190505050611dea565b6040518082815260200191505060405180910390f35b6105e7611fb9565b604051808273ffffffffffffffffffffffffffffffffffffffff1673ffffffffffffffffffffffffffffffffffffffff16815260200191505060405180910390f35b6106596004803603602081101561063f57600080fd5b81019080803561ffff169060200190929190505050611fdf565b604051808273ffffffffffffffffffffffffffffffffffffffff1673ffffffffffffffffffffffffffffffffffffffff16815260200191505060405180910390f35b6106a3612012565b604051808273ffffffffffffffffffffffffffffffffffffffff1673ffffffffffffffffffffffffffffffffffffffff16815260200191505060405180910390f35b610727600480360360208110156106fb57600080fd5b81019080803573ffffffffffffffffffffffffffffffffffffffff169060200190929190505050612038565b005b61076b6004803603602081101561073f57600080fd5b81019080803573ffffffffffffffffffffffffffffffffffffffff1690602001909291905050506121b9565b005b6107756122bf565b604051808669ffffffffffffffffffff1669ffffffffffffffffffff1681526020018581526020018481526020018381526020018269ffffffffffffffffffff1669ffffffffffffffffffff1681526020019550505050505060405180910390f35b6000600260000160029054906101000a900473ffffffffffffffffffffffffffffffffffffffff16905090565b6000600260000160029054906101000a900473ffffffffffffffffffffffffffffffffffffffff1673ffffffffffffffffffffffffffffffffffffffff1663313ce5676040518163ffffffff1660e01b815260040160206040518083038186803b15801561087157600080fd5b505afa158015610885573d6000803e3d6000fd5b505050506040513d602081101561089b57600080fd5b8101908080519060200190929190505050905090565b600080600560009054906101000a900473ffffffffffffffffffffffffffffffffffffffff169050600073ffffffffffffffffffffffffffffffffffffffff168173ffffffffffffffffffffffffffffffffffffffff1614806109fd57508073ffffffffffffffffffffffffffffffffffffffff16636b14daf8336000366040518463ffffffff1660e01b8152600401808473ffffffffffffffffffffffffffffffffffffffff1673ffffffffffffffffffffffffffffffffffffffff168152602001806020018281038252848482818152602001925080828437600081840152601f19601f82011690508083019250505094505050505060206040518083038186803b1580156109c157600080fd5b505afa1580156109d5573d6000803e3d6000fd5b505050506040513d60208110156109eb57600080fd5b81019080805190602001909291905050505b610a6f576040517f08c379a00000000000000000000000000000000000000000000000000000000081526004018080602001828103825260098152602001807f4e6f20616363657373000000000000000000000000000000000000000000000081525060200191505060405180910390fd5b610a7761249d565b91505090565b6000600260000160029054906101000a900473ffffffffffffffffffffffffffffffffffffffff1673ffffffffffffffffffffffffffffffffffffffff166354fd4d506040518163ffffffff1660e01b815260040160206040518083038186803b158015610aea57600080fd5b505afa158015610afe573d6000803e3d6000fd5b505050506040513d6020811015610b1457600080fd5b8101908080519060200190929190505050905090565b6000600260000160009054906101000a900461ffff16905090565b600080600080600080600560009054906101000a900473ffffffffffffffffffffffffffffffffffffffff169050600073ffffffffffffffffffffffffffffffffffffffff168173ffffffffffffffffffffffffffffffffffffffff161480610c9757508073ffffffffffffffffffffffffffffffffffffffff16636b14daf8336000366040518463ffffffff1660e01b8152600401808473ffffffffffffffffffffffffffffffffffffffff1673ffffffffffffffffffffffffffffffffffffffff168152602001806020018281038252848482818152602001925080828437600081840152601f19601f82011690508083019250505094505050505060206040518083038186803b158015610c5b57600080fd5b505afa158015610c6f573d6000803e3d6000fd5b505050506040513d6020811015610c8557600080fd5b81019080805190602001909291905050505b610d09576040517f08c379a00000000000000000000000000000000000000000000000000000000081526004018080602001828103825260098152602001807f4e6f20616363657373000000000000000000000000000000000000000000000081525060200191505060405180910390fd5b600073ffffffffffffffffffffffffffffffffffffffff16600360009054906101000a900473ffffffffffffffffffffffffffffffffffffffff1673ffffffffffffffffffffffffffffffffffffffff161415610dce576040517f08c379a000000000000000000000000000000000000000000000000000000000815260040180806020018281038252601e8152602001807f4e6f2070726f706f7365642061676772656761746f722070726573656e74000081525060200191505060405180910390fd5b610dd78761254a565b955095509550955095505091939590929450565b600080600560009054906101000a900473ffffffffffffffffffffffffffffffffffffffff169050600073ffffffffffffffffffffffffffffffffffffffff168173ffffffffffffffffffffffffffffffffffffffff161480610f3757508073ffffffffffffffffffffffffffffffffffffffff16636b14daf8336000366040518463ffffffff1660e01b8152600401808473ffffffffffffffffffffffffffffffffffffffff1673ffffffffffffffffffffffffffffffffffffffff168152602001806020018281038252848482818152602001925080828437600081840152601f19601f82011690508083019250505094505050505060206040518083038186803b158015610efb57600080fd5b505afa158015610f0f573d6000803e3d6000fd5b505050506040513d6020811015610f2557600080fd5b81019080805190602001909291905050505b610fa9576040517f08c379a00000000000000000000000000000000000000000000000000000000081526004018080602001828103825260098152602001807f4e6f20616363657373000000000000000000000000000000000000000000000081525060200191505060405180910390fd5b610fb1612717565b91505090565b6060600260000160029054906101000a900473ffffffffffffffffffffffffffffffffffffffff1673ffffffffffffffffffffffffffffffffffffffff16637284e4166040518163ffffffff1660e01b815260040160006040518083038186803b15801561102457600080fd5b505afa158015611038573d6000803e3d6000fd5b505050506040513d6000823e3d601f19601f82011682018060405250602081101561106257600080fd5b810190808051604051939291908464010000000082111561108257600080fd5b8382019150602082018581111561109857600080fd5b82518660018202830111640100000000821117156110b557600080fd5b8083526020830192505050908051906020019080838360005b838110156110e95780820151818401526020810190506110ce565b50505050905090810190601f1680156111165780820380516001836020036101000a031916815260200191505b50604052505050905090565b600160009054906101000a900473ffffffffffffffffffffffffffffffffffffffff1673ffffffffffffffffffffffffffffffffffffffff163373ffffffffffffffffffffffffffffffffffffffff16146111e5576040517f08c379a00000000000000000000000000000000000000000000000000000000081526004018080602001828103825260168152602001807f4d7573742062652070726f706f736564206f776e65720000000000000000000081525060200191505060405180910390fd5b60008060009054906101000a900473ffffffffffffffffffffffffffffffffffffffff169050336000806101000a81548173ffffffffffffffffffffffffffffffffffffffff021916908373ffffffffffffffffffffffffffffffffffffffff1602179055506000600160006101000a81548173ffffffffffffffffffffffffffffffffffffffff021916908373ffffffffffffffffffffffffffffffffffffffff1602179055503373ffffffffffffffffffffffffffffffffffffffff168173ffffffffffffffffffffffffffffffffffffffff167f8be0079c531659141344cd1fd0a4f28419497f9722a3daafe3b4186f6b6457e060405160405180910390a350565b600080600560009054906101000a900473ffffffffffffffffffffffffffffffffffffffff169050600073ffffffffffffffffffffffffffffffffffffffff168173ffffffffffffffffffffffffffffffffffffffff16148061143657508073ffffffffffffffffffffffffffffffffffffffff16636b14daf8336000366040518463ffffffff1660e01b8152600401808473ffffffffffffffffffffffffffffffffffffffff1673ffffffffffffffffffffffffffffffffffffffff168152602001806020018281038252848482818152602001925080828437600081840152601f19601f82011690508083019250505094505050505060206040518083038186803b1580156113fa57600080fd5b505afa15801561140e573d6000803e3d6000fd5b505050506040513d602081101561142457600080fd5b81019080805190602001909291905050505b6114a8576040517f08c379a00000000000000000000000000000000000000000000000000000000081526004018080602001828103825260098152602001807f4e6f20616363657373000000000000000000000000000000000000000000000081525060200191505060405180910390fd5b6114b061284a565b91505090565b6000809054906101000a900473ffffffffffffffffffffffffffffffffffffffff1681565b600080600080600080600560009054906101000a900473ffffffffffffffffffffffffffffffffffffffff169050600073ffffffffffffffffffffffffffffffffffffffff168173ffffffffffffffffffffffffffffffffffffffff16148061162d57508073ffffffffffffffffffffffffffffffffffffffff16636b14daf8336000366040518463ffffffff1660e01b8152600401808473ffffffffffffffffffffffffffffffffffffffff1673ffffffffffffffffffffffffffffffffffffffff168152602001806020018281038252848482818152602001925080828437600081840152601f19601f82011690508083019250505094505050505060206040518083038186803b1580156115f157600080fd5b505afa158015611605573d6000803e3d6000fd5b505050506040513d602081101561161b57600080fd5b81019080805190602001909291905050505b61169f576040517f08c379a00000000000000000000000000000000000000000000000000000000081526004018080602001828103825260098152602001807f4e6f20616363657373000000000000000000000000000000000000000000000081525060200191505060405180910390fd5b600073ffffffffffffffffffffffffffffffffffffffff16600360009054906101000a900473ffffffffffffffffffffffffffffffffffffffff1673ffffffffffffffffffffffffffffffffffffffff161415611764576040517f08c379a000000000000000000000000000000000000000000000000000000000815260040180806020018281038252601e8152602001807f4e6f2070726f706f7365642061676772656761746f722070726573656e74000081525060200191505060405180910390fd5b61176c6128f7565b95509550955095509550509091929394565b6000809054906101000a900473ffffffffffffffffffffffffffffffffffffffff1673ffffffffffffffffffffffffffffffffffffffff163373ffffffffffffffffffffffffffffffffffffffff1614611840576040517f08c379a00000000000000000000000000000000000000000000000000000000081526004018080602001828103825260168152602001807f4f6e6c792063616c6c61626c65206279206f776e65720000000000000000000081525060200191505060405180910390fd5b80600560006101000a81548173ffffffffffffffffffffffffffffffffffffffff021916908373ffffffffffffffffffffffffffffffffffffffff16021790555050565b600080600080600080600560009054906101000a900473ffffffffffffffffffffffffffffffffffffffff169050600073ffffffffffffffffffffffffffffffffffffffff168173ffffffffffffffffffffffffffffffffffffffff1614806119d657508073ffffffffffffffffffffffffffffffffffffffff16636b14daf8336000366040518463ffffffff1660e01b8152600401808473ffffffffffffffffffffffffffffffffffffffff1673ffffffffffffffffffffffffffffffffffffffff168152602001806020018281038252848482818152602001925080828437600081840152601f19601f82011690508083019250505094505050505060206040518083038186803b15801561199a57600080fd5b505afa1580156119ae573d6000803e3d6000fd5b505050506040513d60208110156119c457600080fd5b81019080805190602001909291905050505b611a48576040517f08c379a00000000000000000000000000000000000000000000000000000000081526004018080602001828103825260098152602001807f4e6f20616363657373000000000000000000000000000000000000000000000081525060200191505060405180910390fd5b611a5187612a9f565b955095509550955095505091939590929450565b6000809054906101000a900473ffffffffffffffffffffffffffffffffffffffff1673ffffffffffffffffffffffffffffffffffffffff163373ffffffffffffffffffffffffffffffffffffffff1614611b27576040517f08c379a00000000000000000000000000000000000000000000000000000000081526004018080602001828103825260168152602001807f4f6e6c792063616c6c61626c65206279206f776e65720000000000000000000081525060200191505060405180910390fd5b600360009054906101000a900473ffffffffffffffffffffffffffffffffffffffff1673ffffffffffffffffffffffffffffffffffffffff168173ffffffffffffffffffffffffffffffffffffffff1614611bea576040517f08c379a000000000000000000000000000000000000000000000000000000000815260040180806020018281038252601b8152602001807f496e76616c69642070726f706f7365642061676772656761746f72000000000081525060200191505060405180910390fd5b600360006101000a81549073ffffffffffffffffffffffffffffffffffffffff0219169055611c1881612c02565b50565b600080600560009054906101000a900473ffffffffffffffffffffffffffffffffffffffff169050600073ffffffffffffffffffffffffffffffffffffffff168173ffffffffffffffffffffffffffffffffffffffff161480611d6757508073ffffffffffffffffffffffffffffffffffffffff16636b14daf8336000366040518463ffffffff1660e01b8152600401808473ffffffffffffffffffffffffffffffffffffffff1673ffffffffffffffffffffffffffffffffffffffff168152602001806020018281038252848482818152602001925080828437600081840152601f19601f82011690508083019250505094505050505060206040518083038186803b158015611d2b57600080fd5b505afa158015611d3f573d6000803e3d6000fd5b505050506040513d6020811015611d5557600080fd5b81019080805190602001909291905050505b611dd9576040517f08c379a00000000000000000000000000000000000000000000000000000000081526004018080602001828103825260098152602001807f4e6f20616363657373000000000000000000000000000000000000000000000081525060200191505060405180910390fd5b611de283612d19565b915050919050565b600080600560009054906101000a900473ffffffffffffffffffffffffffffffffffffffff169050600073ffffffffffffffffffffffffffffffffffffffff168173ffffffffffffffffffffffffffffffffffffffff161480611f3657508073ffffffffffffffffffffffffffffffffffffffff16636b14daf8336000366040518463ffffffff1660e01b8152600401808473ffffffffffffffffffffffffffffffffffffffff1673ffffffffffffffffffffffffffffffffffffffff168152602001806020018281038252848482818152602001925080828437600081840152601f19601f82011690508083019250505094505050505060206040518083038186803b158015611efa57600080fd5b505afa158015611f0e573d6000803e3d6000fd5b505050506040513d6020811015611f2457600080fd5b81019080805190602001909291905050505b611fa8576040517f08c379a00000000000000000000000000000000000000000000000000000000081526004018080602001828103825260098152602001807f4e6f20616363657373000000000000000000000000000000000000000000000081525060200191505060405180910390fd5b611fb183612e68565b915050919050565b600560009054906101000a900473ffffffffffffffffffffffffffffffffffffffff1681565b60046020528060005260406000206000915054906101000a900473ffffffffffffffffffffffffffffffffffffffff1681565b600360009054906101000a900473ffffffffffffffffffffffffffffffffffffffff1681565b6000809054906101000a900473ffffffffffffffffffffffffffffffffffffffff1673ffffffffffffffffffffffffffffffffffffffff163373ffffffffffffffffffffffffffffffffffffffff16146120fa576040517f08c379a00000000000000000000000000000000000000000000000000000000081526004018080602001828103825260168152602001807f4f6e6c792063616c6c61626c65206279206f776e65720000000000000000000081525060200191505060405180910390fd5b80600160006101000a81548173ffffffffffffffffffffffffffffffffffffffff021916908373ffffffffffffffffffffffffffffffffffffffff1602179055508073ffffffffffffffffffffffffffffffffffffffff166000809054906101000a900473ffffffffffffffffffffffffffffffffffffffff1673ffffffffffffffffffffffffffffffffffffffff167fed8889f560326eb138920d842192f0eb3dd22b4f139c87a2c57538e05bae127860405160405180910390a350565b6000809054906101000a900473ffffffffffffffffffffffffffffffffffffffff1673ffffffffffffffffffffffffffffffffffffffff163373ffffffffffffffffffffffffffffffffffffffff161461227b576040517f08c379a00000000000000000000000000000000000000000000000000000000081526004018080602001828103825260168152602001807f4f6e6c792063616c6c61626c65206279206f776e65720000000000000000000081525060200191505060405180910390fd5b80600360006101000a81548173ffffffffffffffffffffffffffffffffffffffff021916908373ffffffffffffffffffffffffffffffffffffffff16021790555050565b600080600080600080600560009054906101000a900473ffffffffffffffffffffffffffffffffffffffff169050600073ffffffffffffffffffffffffffffffffffffffff168173ffffffffffffffffffffffffffffffffffffffff16148061241157508073ffffffffffffffffffffffffffffffffffffffff16636b14daf8336000366040518463ffffffff1660e01b8152600401808473ffffffffffffffffffffffffffffffffffffffff1673ffffffffffffffffffffffffffffffffffffffff168152602001806020018281038252848482818152602001925080828437600081840152601f19601f82011690508083019250505094505050505060206040518083038186803b1580156123d557600080fd5b505afa1580156123e9573d6000803e3d6000fd5b505050506040513d60208110156123ff57600080fd5b81019080805190602001909291905050505b612483576040517f08c379a00000000000000000000000000000000000000000000000000000000081526004018080602001828103825260098152602001807f4e6f20616363657373000000000000000000000000000000000000000000000081525060200191505060405180910390fd5b61248b612fb7565b95509550955095509550509091929394565b6000600260000160029054906101000a900473ffffffffffffffffffffffffffffffffffffffff1673ffffffffffffffffffffffffffffffffffffffff166350d25bcd6040518163ffffffff1660e01b815260040160206040518083038186803b15801561250a57600080fd5b505afa15801561251e573d6000803e3d6000fd5b505050506040513d602081101561253457600080fd5b8101908080519060200190929190505050905090565b60008060008060008073ffffffffffffffffffffffffffffffffffffffff16600360009054906101000a900473ffffffffffffffffffffffffffffffffffffffff1673ffffffffffffffffffffffffffffffffffffffff161415612616576040517f08c379a000000000000000000000000000000000000000000000000000000000815260040180806020018281038252601e8152602001807f4e6f2070726f706f7365642061676772656761746f722070726573656e74000081525060200191505060405180910390fd5b600360009054906101000a900473ffffffffffffffffffffffffffffffffffffffff1673ffffffffffffffffffffffffffffffffffffffff16639a6fc8f5876040518263ffffffff1660e01b8152600401808269ffffffffffffffffffff1669ffffffffffffffffffff16815260200191505060a06040518083038186803b1580156126a157600080fd5b505afa1580156126b5573d6000803e3d6000fd5b505050506040513d60a08110156126cb57600080fd5b8101908080519060200190929190805190602001909291908051906020019092919080519060200190929190805190602001909291905050509450945094509450945091939590929450565b60006127216131a8565b60026040518060400160405290816000820160009054906101000a900461ffff1661ffff1661ffff1681526020016000820160029054906101000a900473ffffffffffffffffffffffffffffffffffffffff1673ffffffffffffffffffffffffffffffffffffffff1673ffffffffffffffffffffffffffffffffffffffff168152505090506128388160000151826020015173ffffffffffffffffffffffffffffffffffffffff1663668a0f026040518163ffffffff1660e01b815260040160206040518083038186803b1580156127f857600080fd5b505afa15801561280c573d6000803e3d6000fd5b505050506040513d602081101561282257600080fd5b8101908080519060200190929190505050613134565b69ffffffffffffffffffff1691505090565b6000600260000160029054906101000a900473ffffffffffffffffffffffffffffffffffffffff1673ffffffffffffffffffffffffffffffffffffffff16638205bf6a6040518163ffffffff1660e01b815260040160206040518083038186803b1580156128b757600080fd5b505afa1580156128cb573d6000803e3d6000fd5b505050506040513d60208110156128e157600080fd5b8101908080519060200190929190505050905090565b60008060008060008073ffffffffffffffffffffffffffffffffffffffff16600360009054906101000a900473ffffffffffffffffffffffffffffffffffffffff1673ffffffffffffffffffffffffffffffffffffffff1614156129c3576040517f08c379a000000000000000000000000000000000000000000000000000000000815260040180806020018281038252601e8152602001807f4e6f2070726f706f7365642061676772656761746f722070726573656e74000081525060200191505060405180910390fd5b600360009054906101000a900473ffffffffffffffffffffffffffffffffffffffff1673ffffffffffffffffffffffffffffffffffffffff1663feaf968c6040518163ffffffff1660e01b815260040160a06040518083038186803b158015612a2b57600080fd5b505afa158015612a3f573d6000803e3d6000fd5b505050506040513d60a0811015612a5557600080fd5b810190808051906020019092919080519060200190929190805190602001909291908051906020019092919080519060200190929190505050945094509450945094509091929394565b6000806000806000806000612abf8869ffffffffffffffffffff16613153565b915091506000806000806000600460008861ffff1661ffff16815260200190815260200160002060009054906101000a900473ffffffffffffffffffffffffffffffffffffffff1673ffffffffffffffffffffffffffffffffffffffff16639a6fc8f5876040518263ffffffff1660e01b8152600401808267ffffffffffffffff1669ffffffffffffffffffff16815260200191505060a06040518083038186803b158015612b6d57600080fd5b505afa158015612b81573d6000803e3d6000fd5b505050506040513d60a0811015612b9757600080fd5b81019080805190602001909291908051906020019092919080519060200190929190805190602001909291908051906020019092919050505094509450945094509450612be885858585858c613171565b9b509b509b509b509b505050505050505091939590929450565b60006001600260000160009054906101000a900461ffff1601905060405180604001604052808261ffff1681526020018373ffffffffffffffffffffffffffffffffffffffff16815250600260008201518160000160006101000a81548161ffff021916908361ffff16021790555060208201518160000160026101000a81548173ffffffffffffffffffffffffffffffffffffffff021916908373ffffffffffffffffffffffffffffffffffffffff16021790555090505081600460008361ffff1661ffff16815260200190815260200160002060006101000a81548173ffffffffffffffffffffffffffffffffffffffff021916908373ffffffffffffffffffffffffffffffffffffffff1602179055505050565b60006001601060400160020a03821115612d365760009050612e63565b600080612d4284613153565b915091506000600460008461ffff1661ffff16815260200190815260200160002060009054906101000a900473ffffffffffffffffffffffffffffffffffffffff169050600073ffffffffffffffffffffffffffffffffffffffff168173ffffffffffffffffffffffffffffffffffffffff161415612dc75760009350505050612e63565b8073ffffffffffffffffffffffffffffffffffffffff1663b5ab58dc836040518263ffffffff1660e01b8152600401808267ffffffffffffffff16815260200191505060206040518083038186803b158015612e2257600080fd5b505afa158015612e36573d6000803e3d6000fd5b505050506040513d6020811015612e4c57600080fd5b810190808051906020019092919050505093505050505b919050565b60006001601060400160020a03821115612e855760009050612fb2565b600080612e9184613153565b915091506000600460008461ffff1661ffff16815260200190815260200160002060009054906101000a900473ffffffffffffffffffffffffffffffffffffffff169050600073ffffffffffffffffffffffffffffffffffffffff168173ffffffffffffffffffffffffffffffffffffffff161415612f165760009350505050612fb2565b8073ffffffffffffffffffffffffffffffffffffffff1663b633620c836040518263ffffffff1660e01b8152600401808267ffffffffffffffff16815260200191505060206040518083038186803b158015612f7157600080fd5b505afa158015612f85573d6000803e3d6000fd5b505050506040513d6020811015612f9b57600080fd5b810190808051906020019092919050505093505050505b919050565b6000806000806000612fc76131a8565b60026040518060400160405290816000820160009054906101000a900461ffff1661ffff1661ffff1681526020016000820160029054906101000a900473ffffffffffffffffffffffffffffffffffffffff1673ffffffffffffffffffffffffffffffffffffffff1673ffffffffffffffffffffffffffffffffffffffff168152505090506000806000806000856020015173ffffffffffffffffffffffffffffffffffffffff1663feaf968c6040518163ffffffff1660e01b815260040160a06040518083038186803b15801561309e57600080fd5b505afa1580156130b2573d6000803e3d6000fd5b505050506040513d60a08110156130c857600080fd5b8101908080519060200190929190805190602001909291908051906020019092919080519060200190929190805190602001909291905050509450945094509450945061311d85858585858b60000151613171565b9a509a509a509a509a505050505050509091929394565b60008167ffffffffffffffff1660408461ffff16901b17905092915050565b6000806000604084901c905060008490508181935093505050915091565b6000806000806000613183868c613134565b8a8a8a6131908a8c613134565b94509450945094509450965096509650965096915050565b6040518060400160405280600061ffff168152602001600073ffffffffffffffffffffffffffffffffffffffff168152509056fea2646970667358221220f677c5396e17888c7c130ce03c25dad3fa516e3d6fb6ef9e31b96f9519be9b4f64736f6c63430006060033",
  "compiler": {
    "name": "solc",
    "version": "0.6.6+commit.6c089d02.Emscripten.clang",
    "optimizer": {
      "enabled": false,
      "runs": 200
    },
    "evmVersion": "petersburg"
  }
}