{
  "fileName": "FlagsTestHelper.sol",
  "contractName": "FlagsTestHelper",
  "source": "pragma solidity ^0.6.0;\n\nimport \"../Flags.sol\";\n\ncontract FlagsTestHelper {\n  Flags public flags;\n\n  constructor(\n    address flagsContract\n  )\n    public\n  {\n    flags = Flags(flagsContract);\n  }\n\n  function getFlag(\n    address subject\n  )\n    external\n    view\n    returns(bool)\n  {\n    return flags.getFlag(subject);\n  }\n\n  function getFlags(\n    address[] calldata subjects\n  )\n    external\n    view\n    returns(bool[] memory)\n  {\n    return flags.getFlags(subjects);\n  }\n\n}\n",
  "sourcePath": "contracts/chainlink_contracts/chainlink/tests/FlagsTestHelper.sol",
  "abi": [
    {
      "inputs": [
        {
          "internalType": "address",
          "name": "flagsContract",
          "type": "address"
        }
      ],
      "stateMutability": "nonpayable",
      "type": "constructor"
    },
    {
      "inputs": [],
      "name": "flags",
      "outputs": [
        {
          "internalType": "contract Flags",
          "name": "",
          "type": "address"
        }
      ],
      "stateMutability": "view",
      "type": "function"
    },
    {
      "inputs": [
        {
          "internalType": "address",
          "name": "subject",
          "type": "address"
        }
      ],
      "name": "getFlag",
      "outputs": [
        {
          "internalType": "bool",
          "name": "",
          "type": "bool"
        }
      ],
      "stateMutability": "view",
      "type": "function"
    },
    {
      "inputs": [
        {
          "internalType": "address[]",
          "name": "subjects",
          "type": "address[]"
        }
      ],
      "name": "getFlags",
      "outputs": [
        {
          "internalType": "bool[]",
          "name": "",
          "type": "bool[]"
        }
      ],
      "stateMutability": "view",
      "type": "function"
    }
  ],
  "bytecode": "0x608060405234801561001057600080fd5b5060405161050b38038061050b8339818101604052602081101561003357600080fd5b8101908080519060200190929190505050806000806101000a81548173ffffffffffffffffffffffffffffffffffffffff021916908373ffffffffffffffffffffffffffffffffffffffff16021790555050610477806100946000396000f3fe608060405234801561001057600080fd5b50600436106100415760003560e01c8063357e47fe1461004657806364cc4aa5146100a25780637d723cac146100ec575b600080fd5b6100886004803603602081101561005c57600080fd5b81019080803573ffffffffffffffffffffffffffffffffffffffff1690602001909291905050506101ba565b604051808215151515815260200191505060405180910390f35b6100aa61029c565b604051808273ffffffffffffffffffffffffffffffffffffffff1673ffffffffffffffffffffffffffffffffffffffff16815260200191505060405180910390f35b6101636004803603602081101561010257600080fd5b810190808035906020019064010000000081111561011f57600080fd5b82018360208201111561013157600080fd5b8035906020019184602083028401116401000000008311171561015357600080fd5b90919293919293905050506102c1565b6040518080602001828103825283818151815260200191508051906020019060200280838360005b838110156101a657808201518184015260208101905061018b565b505050509050019250505060405180910390f35b60008060009054906101000a900473ffffffffffffffffffffffffffffffffffffffff1673ffffffffffffffffffffffffffffffffffffffff1663357e47fe836040518263ffffffff1660e01b8152600401808273ffffffffffffffffffffffffffffffffffffffff1673ffffffffffffffffffffffffffffffffffffffff16815260200191505060206040518083038186803b15801561025a57600080fd5b505afa15801561026e573d6000803e3d6000fd5b505050506040513d602081101561028457600080fd5b81019080805190602001909291905050509050919050565b6000809054906101000a900473ffffffffffffffffffffffffffffffffffffffff1681565b60606000809054906101000a900473ffffffffffffffffffffffffffffffffffffffff1673ffffffffffffffffffffffffffffffffffffffff16637d723cac84846040518363ffffffff1660e01b815260040180806020018281038252848482818152602001925060200280828437600081840152601f19601f820116905080830192505050935050505060006040518083038186803b15801561036457600080fd5b505afa158015610378573d6000803e3d6000fd5b505050506040513d6000823e3d601f19601f8201168201806040525060208110156103a257600080fd5b81019080805160405193929190846401000000008211156103c257600080fd5b838201915060208201858111156103d857600080fd5b82518660208202830111640100000000821117156103f557600080fd5b8083526020830192505050908051906020019060200280838360005b8381101561042c578082015181840152602081019050610411565b5050505090500160405250505090509291505056fea2646970667358221220b9c6cbeb7bc9366a6b6a3c07e6c41a7ab1bb4ba8d868e511f901feb91de09cd564736f6c63430006060033",
  "compiler": {
    "name": "solc",
    "version": "0.6.6+commit.6c089d02.Emscripten.clang",
    "optimizer": {
      "enabled": false,
      "runs": 200
    },
    "evmVersion": "petersburg"
  }
}