{
  "fileName": "Flags.sol",
  "contractName": "Flags",
  "source": "pragma solidity 0.6.6;\n\n\nimport \"./SimpleReadAccessController.sol\";\nimport \"./interfaces/AccessControllerInterface.sol\";\nimport \"./interfaces/FlagsInterface.sol\";\n\n\n/**\n * @title The Flags contract\n * @notice Allows flags to signal to any reader on the access control list.\n * The owner can set flags, or designate other addresses to set flags. The\n * owner must turn the flags off, other setters cannot. An expected pattern is\n * to allow addresses to raise flags on themselves, so if you are subscribing to\n * FlagOn events you should filter for addresses you care about.\n */\ncontract Flags is FlagsInterface, SimpleReadAccessController {\n\n  AccessControllerInterface public raisingAccessController;\n\n  mapping(address => bool) private flags;\n\n  event FlagRaised(\n    address indexed subject\n  );\n  event FlagLowered(\n    address indexed subject\n  );\n  event RaisingAccessControllerUpdated(\n    address indexed previous,\n    address indexed current\n  );\n\n  /**\n   * @param racAddress address for the raising access controller.\n   */\n  constructor(\n    address racAddress\n  )\n    public\n  {\n    setRaisingAccessController(racAddress);\n  }\n\n  /**\n   * @notice read the warning flag status of a contract address.\n   * @param subject The contract address being checked for a flag.\n   * @return A true value indicates that a flag was raised and a\n   * false value indicates that no flag was raised.\n   */\n  function getFlag(address subject)\n    external\n    view\n    override\n    checkAccess()\n    returns (bool)\n  {\n    return flags[subject];\n  }\n\n  /**\n   * @notice read the warning flag status of a contract address.\n   * @param subjects An array of addresses being checked for a flag.\n   * @return An array of bools where a true value for any flag indicates that\n   * a flag was raised and a false value indicates that no flag was raised.\n   */\n  function getFlags(address[] calldata subjects)\n    external\n    view\n    override\n    checkAccess()\n    returns (bool[] memory)\n  {\n    bool[] memory responses = new bool[](subjects.length);\n    for (uint256 i = 0; i < subjects.length; i++) {\n      responses[i] = flags[subjects[i]];\n    }\n    return responses;\n  }\n\n  /**\n   * @notice enable the warning flag for an address.\n   * Access is controlled by raisingAccessController, except for owner\n   * who always has access.\n   * @param subject The contract address whose flag is being raised\n   */\n  function raiseFlag(address subject)\n    external\n    override\n  {\n    require(allowedToRaiseFlags(), \"Not allowed to raise flags\");\n\n    tryToRaiseFlag(subject);\n  }\n\n  /**\n   * @notice enable the warning flags for multiple addresses.\n   * Access is controlled by raisingAccessController, except for owner\n   * who always has access.\n   * @param subjects List of the contract addresses whose flag is being raised\n   */\n  function raiseFlags(address[] calldata subjects)\n    external\n    override\n  {\n    require(allowedToRaiseFlags(), \"Not allowed to raise flags\");\n\n    for (uint256 i = 0; i < subjects.length; i++) {\n      tryToRaiseFlag(subjects[i]);\n    }\n  }\n\n  /**\n   * @notice allows owner to disable the warning flags for multiple addresses.\n   * @param subjects List of the contract addresses whose flag is being lowered\n   */\n  function lowerFlags(address[] calldata subjects)\n    external\n    override\n    onlyOwner()\n  {\n    for (uint256 i = 0; i < subjects.length; i++) {\n      address subject = subjects[i];\n\n      if (flags[subject]) {\n        flags[subject] = false;\n        emit FlagLowered(subject);\n      }\n    }\n  }\n\n  /**\n   * @notice allows owner to change the access controller for raising flags.\n   * @param racAddress new address for the raising access controller.\n   */\n  function setRaisingAccessController(\n    address racAddress\n  )\n    public\n    override\n    onlyOwner()\n  {\n    address previous = address(raisingAccessController);\n\n    if (previous != racAddress) {\n      raisingAccessController = AccessControllerInterface(racAddress);\n\n      emit RaisingAccessControllerUpdated(previous, racAddress);\n    }\n  }\n\n\n  // PRIVATE\n\n  function allowedToRaiseFlags()\n    private\n    view\n    returns (bool)\n  {\n    return msg.sender == owner ||\n      raisingAccessController.hasAccess(msg.sender, msg.data);\n  }\n\n  function tryToRaiseFlag(address subject)\n    private\n  {\n    if (!flags[subject]) {\n      flags[subject] = true;\n      emit FlagRaised(subject);\n    }\n  }\n\n}\n",
  "sourcePath": "contracts/chainlink_contracts/chainlink/Flags.sol",
  "abi": [
    {
      "inputs": [
        {
          "internalType": "address",
          "name": "racAddress",
          "type": "address"
        }
      ],
      "stateMutability": "nonpayable",
      "type": "constructor"
    },
    {
      "anonymous": false,
      "inputs": [
        {
          "indexed": false,
          "internalType": "address",
          "name": "user",
          "type": "address"
        }
      ],
      "name": "AddedAccess",
      "type": "event"
    },
    {
      "anonymous": false,
      "inputs": [],
      "name": "CheckAccessDisabled",
      "type": "event"
    },
    {
      "anonymous": false,
      "inputs": [],
      "name": "CheckAccessEnabled",
      "type": "event"
    },
    {
      "anonymous": false,
      "inputs": [
        {
          "indexed": true,
          "internalType": "address",
          "name": "subject",
          "type": "address"
        }
      ],
      "name": "FlagLowered",
      "type": "event"
    },
    {
      "anonymous": false,
      "inputs": [
        {
          "indexed": true,
          "internalType": "address",
          "name": "subject",
          "type": "address"
        }
      ],
      "name": "FlagRaised",
      "type": "event"
    },
    {
      "anonymous": false,
      "inputs": [
        {
          "indexed": true,
          "internalType": "address",
          "name": "from",
          "type": "address"
        },
        {
          "indexed": true,
          "internalType": "address",
          "name": "to",
          "type": "address"
        }
      ],
      "name": "OwnershipTransferRequested",
      "type": "event"
    },
    {
      "anonymous": false,
      "inputs": [
        {
          "indexed": true,
          "internalType": "address",
          "name": "from",
          "type": "address"
        },
        {
          "indexed": true,
          "internalType": "address",
          "name": "to",
          "type": "address"
        }
      ],
      "name": "OwnershipTransferred",
      "type": "event"
    },
    {
      "anonymous": false,
      "inputs": [
        {
          "indexed": true,
          "internalType": "address",
          "name": "previous",
          "type": "address"
        },
        {
          "indexed": true,
          "internalType": "address",
          "name": "current",
          "type": "address"
        }
      ],
      "name": "RaisingAccessControllerUpdated",
      "type": "event"
    },
    {
      "anonymous": false,
      "inputs": [
        {
          "indexed": false,
          "internalType": "address",
          "name": "user",
          "type": "address"
        }
      ],
      "name": "RemovedAccess",
      "type": "event"
    },
    {
      "inputs": [],
      "name": "acceptOwnership",
      "outputs": [],
      "stateMutability": "nonpayable",
      "type": "function"
    },
    {
      "inputs": [
        {
          "internalType": "address",
          "name": "_user",
          "type": "address"
        }
      ],
      "name": "addAccess",
      "outputs": [],
      "stateMutability": "nonpayable",
      "type": "function"
    },
    {
      "inputs": [],
      "name": "checkEnabled",
      "outputs": [
        {
          "internalType": "bool",
          "name": "",
          "type": "bool"
        }
      ],
      "stateMutability": "view",
      "type": "function"
    },
    {
      "inputs": [],
      "name": "disableAccessCheck",
      "outputs": [],
      "stateMutability": "nonpayable",
      "type": "function"
    },
    {
      "inputs": [],
      "name": "enableAccessCheck",
      "outputs": [],
      "stateMutability": "nonpayable",
      "type": "function"
    },
    {
      "inputs": [
        {
          "internalType": "address",
          "name": "subject",
          "type": "address"
        }
      ],
      "name": "getFlag",
      "outputs": [
        {
          "internalType": "bool",
          "name": "",
          "type": "bool"
        }
      ],
      "stateMutability": "view",
      "type": "function"
    },
    {
      "inputs": [
        {
          "internalType": "address[]",
          "name": "subjects",
          "type": "address[]"
        }
      ],
      "name": "getFlags",
      "outputs": [
        {
          "internalType": "bool[]",
          "name": "",
          "type": "bool[]"
        }
      ],
      "stateMutability": "view",
      "type": "function"
    },
    {
      "inputs": [
        {
          "internalType": "address",
          "name": "_user",
          "type": "address"
        },
        {
          "internalType": "bytes",
          "name": "_calldata",
          "type": "bytes"
        }
      ],
      "name": "hasAccess",
      "outputs": [
        {
          "internalType": "bool",
          "name": "",
          "type": "bool"
        }
      ],
      "stateMutability": "view",
      "type": "function"
    },
    {
      "inputs": [
        {
          "internalType": "address[]",
          "name": "subjects",
          "type": "address[]"
        }
      ],
      "name": "lowerFlags",
      "outputs": [],
      "stateMutability": "nonpayable",
      "type": "function"
    },
    {
      "inputs": [],
      "name": "owner",
      "outputs": [
        {
          "internalType": "address",
          "name": "",
          "type": "address"
        }
      ],
      "stateMutability": "view",
      "type": "function"
    },
    {
      "inputs": [
        {
          "internalType": "address",
          "name": "subject",
          "type": "address"
        }
      ],
      "name": "raiseFlag",
      "outputs": [],
      "stateMutability": "nonpayable",
      "type": "function"
    },
    {
      "inputs": [
        {
          "internalType": "address[]",
          "name": "subjects",
          "type": "address[]"
        }
      ],
      "name": "raiseFlags",
      "outputs": [],
      "stateMutability": "nonpayable",
      "type": "function"
    },
    {
      "inputs": [],
      "name": "raisingAccessController",
      "outputs": [
        {
          "internalType": "contract AccessControllerInterface",
          "name": "",
          "type": "address"
        }
      ],
      "stateMutability": "view",
      "type": "function"
    },
    {
      "inputs": [
        {
          "internalType": "address",
          "name": "_user",
          "type": "address"
        }
      ],
      "name": "removeAccess",
      "outputs": [],
      "stateMutability": "nonpayable",
      "type": "function"
    },
    {
      "inputs": [
        {
          "internalType": "address",
          "name": "racAddress",
          "type": "address"
        }
      ],
      "name": "setRaisingAccessController",
      "outputs": [],
      "stateMutability": "nonpayable",
      "type": "function"
    },
    {
      "inputs": [
        {
          "internalType": "address",
          "name": "_to",
          "type": "address"
        }
      ],
      "name": "transferOwnership",
      "outputs": [],
      "stateMutability": "nonpayable",
      "type": "function"
    }
  ],
  "bytecode": "0x608060405234801561001057600080fd5b50604051611d87380380611d878339818101604052602081101561003357600080fd5b8101908080519060200190929190505050336000806101000a81548173ffffffffffffffffffffffffffffffffffffffff021916908373ffffffffffffffffffffffffffffffffffffffff16021790555060018060146101000a81548160ff0219169083151502179055506100ad816100b360201b60201c565b5061026f565b6000809054906101000a900473ffffffffffffffffffffffffffffffffffffffff1673ffffffffffffffffffffffffffffffffffffffff163373ffffffffffffffffffffffffffffffffffffffff1614610175576040517f08c379a00000000000000000000000000000000000000000000000000000000081526004018080602001828103825260168152602001807f4f6e6c792063616c6c61626c65206279206f776e65720000000000000000000081525060200191505060405180910390fd5b6000600360009054906101000a900473ffffffffffffffffffffffffffffffffffffffff1690508173ffffffffffffffffffffffffffffffffffffffff168173ffffffffffffffffffffffffffffffffffffffff161461026b5781600360006101000a81548173ffffffffffffffffffffffffffffffffffffffff021916908373ffffffffffffffffffffffffffffffffffffffff1602179055508173ffffffffffffffffffffffffffffffffffffffff168173ffffffffffffffffffffffffffffffffffffffff167fbaf9ea078655a4fffefd08f9435677bbc91e457a6d015fe7de1d0e68b8802cac60405160405180910390a35b5050565b611b098061027e6000396000f3fe608060405234801561001057600080fd5b50600436106101005760003560e01c80637d723cac11610097578063a118f24911610066578063a118f2491461054e578063d74af26314610592578063dc7f0124146105d6578063f2fde38b146105f857610100565b80637d723cac146103e85780638038e4a1146104b65780638823da6c146104c05780638da5cb5b1461050457610100565b8063517e89fe116100d3578063517e89fe1461022e5780636b14daf814610272578063760bc82d1461036557806379ba5097146103de57610100565b80630a75698314610105578063282865961461010f5780632e1d859c14610188578063357e47fe146101d2575b600080fd5b61010d61063c565b005b6101866004803603602081101561012557600080fd5b810190808035906020019064010000000081111561014257600080fd5b82018360208201111561015457600080fd5b8035906020019184602083028401116401000000008311171561017657600080fd5b909192939192939050505061075d565b005b61019061095e565b604051808273ffffffffffffffffffffffffffffffffffffffff1673ffffffffffffffffffffffffffffffffffffffff16815260200191505060405180910390f35b610214600480360360208110156101e857600080fd5b81019080803573ffffffffffffffffffffffffffffffffffffffff169060200190929190505050610984565b604051808215151515815260200191505060405180910390f35b6102706004803603602081101561024457600080fd5b81019080803573ffffffffffffffffffffffffffffffffffffffff169060200190929190505050610a9b565b005b61034b6004803603604081101561028857600080fd5b81019080803573ffffffffffffffffffffffffffffffffffffffff169060200190929190803590602001906401000000008111156102c557600080fd5b8201836020820111156102d757600080fd5b803590602001918460018302840111640100000000831117156102f957600080fd5b91908080601f016020809104026020016040519081016040528093929190818152602001838380828437600081840152601f19601f820116905080830192505050505050509192919290505050610c57565b604051808215151515815260200191505060405180910390f35b6103dc6004803603602081101561037b57600080fd5b810190808035906020019064010000000081111561039857600080fd5b8201836020820111156103aa57600080fd5b803590602001918460208302840111640100000000831117156103cc57600080fd5b9091929391929390505050610ca1565b005b6103e6610d6f565b005b61045f600480360360208110156103fe57600080fd5b810190808035906020019064010000000081111561041b57600080fd5b82018360208201111561042d57600080fd5b8035906020019184602083028401116401000000008311171561044f57600080fd5b9091929391929390505050610f37565b6040518080602001828103825283818151815260200191508051906020019060200280838360005b838110156104a2578082015181840152602081019050610487565b505050509050019250505060405180910390f35b6104be611104565b005b610502600480360360208110156104d657600080fd5b81019080803573ffffffffffffffffffffffffffffffffffffffff169060200190929190505050611223565b005b61050c6113f6565b604051808273ffffffffffffffffffffffffffffffffffffffff1673ffffffffffffffffffffffffffffffffffffffff16815260200191505060405180910390f35b6105906004803603602081101561056457600080fd5b81019080803573ffffffffffffffffffffffffffffffffffffffff16906020019092919050505061141b565b005b6105d4600480360360208110156105a857600080fd5b81019080803573ffffffffffffffffffffffffffffffffffffffff1690602001909291905050506115ed565b005b6105de611673565b604051808215151515815260200191505060405180910390f35b61063a6004803603602081101561060e57600080fd5b81019080803573ffffffffffffffffffffffffffffffffffffffff169060200190929190505050611686565b005b6000809054906101000a900473ffffffffffffffffffffffffffffffffffffffff1673ffffffffffffffffffffffffffffffffffffffff163373ffffffffffffffffffffffffffffffffffffffff16146106fe576040517f08c379a00000000000000000000000000000000000000000000000000000000081526004018080602001828103825260168152602001807f4f6e6c792063616c6c61626c65206279206f776e65720000000000000000000081525060200191505060405180910390fd5b600160149054906101000a900460ff161561075b576000600160146101000a81548160ff0219169083151502179055507f3be8a977a014527b50ae38adda80b56911c267328965c98ddc385d248f53963860405160405180910390a15b565b6000809054906101000a900473ffffffffffffffffffffffffffffffffffffffff1673ffffffffffffffffffffffffffffffffffffffff163373ffffffffffffffffffffffffffffffffffffffff161461081f576040517f08c379a00000000000000000000000000000000000000000000000000000000081526004018080602001828103825260168152602001807f4f6e6c792063616c6c61626c65206279206f776e65720000000000000000000081525060200191505060405180910390fd5b60008090505b8282905081101561095957600083838381811061083e57fe5b9050602002013573ffffffffffffffffffffffffffffffffffffffff169050600460008273ffffffffffffffffffffffffffffffffffffffff1673ffffffffffffffffffffffffffffffffffffffff16815260200190815260200160002060009054906101000a900460ff161561094b576000600460008373ffffffffffffffffffffffffffffffffffffffff1673ffffffffffffffffffffffffffffffffffffffff16815260200190815260200160002060006101000a81548160ff0219169083151502179055508073ffffffffffffffffffffffffffffffffffffffff167fd86728e2e5cbaa28c1d357b5fbccc9c1ab0add09950eb7cac42df9acb24c4bc860405160405180910390a25b508080600101915050610825565b505050565b600360009054906101000a900473ffffffffffffffffffffffffffffffffffffffff1681565b60006109d5336000368080601f016020809104026020016040519081016040528093929190818152602001838380828437600081840152601f19601f82011690508083019250505050505050610c57565b610a47576040517f08c379a00000000000000000000000000000000000000000000000000000000081526004018080602001828103825260098152602001807f4e6f20616363657373000000000000000000000000000000000000000000000081525060200191505060405180910390fd5b600460008373ffffffffffffffffffffffffffffffffffffffff1673ffffffffffffffffffffffffffffffffffffffff16815260200190815260200160002060009054906101000a900460ff169050919050565b6000809054906101000a900473ffffffffffffffffffffffffffffffffffffffff1673ffffffffffffffffffffffffffffffffffffffff163373ffffffffffffffffffffffffffffffffffffffff1614610b5d576040517f08c379a00000000000000000000000000000000000000000000000000000000081526004018080602001828103825260168152602001807f4f6e6c792063616c6c61626c65206279206f776e65720000000000000000000081525060200191505060405180910390fd5b6000600360009054906101000a900473ffffffffffffffffffffffffffffffffffffffff1690508173ffffffffffffffffffffffffffffffffffffffff168173ffffffffffffffffffffffffffffffffffffffff1614610c535781600360006101000a81548173ffffffffffffffffffffffffffffffffffffffff021916908373ffffffffffffffffffffffffffffffffffffffff1602179055508173ffffffffffffffffffffffffffffffffffffffff168173ffffffffffffffffffffffffffffffffffffffff167fbaf9ea078655a4fffefd08f9435677bbc91e457a6d015fe7de1d0e68b8802cac60405160405180910390a35b5050565b6000610c638383611807565b80610c9957503273ffffffffffffffffffffffffffffffffffffffff168373ffffffffffffffffffffffffffffffffffffffff16145b905092915050565b610ca9611876565b610d1b576040517f08c379a000000000000000000000000000000000000000000000000000000000815260040180806020018281038252601a8152602001807f4e6f7420616c6c6f77656420746f20726169736520666c61677300000000000081525060200191505060405180910390fd5b60008090505b82829050811015610d6a57610d5d838383818110610d3b57fe5b9050602002013573ffffffffffffffffffffffffffffffffffffffff166119e3565b8080600101915050610d21565b505050565b600160009054906101000a900473ffffffffffffffffffffffffffffffffffffffff1673ffffffffffffffffffffffffffffffffffffffff163373ffffffffffffffffffffffffffffffffffffffff1614610e32576040517f08c379a00000000000000000000000000000000000000000000000000000000081526004018080602001828103825260168152602001807f4d7573742062652070726f706f736564206f776e65720000000000000000000081525060200191505060405180910390fd5b60008060009054906101000a900473ffffffffffffffffffffffffffffffffffffffff169050336000806101000a81548173ffffffffffffffffffffffffffffffffffffffff021916908373ffffffffffffffffffffffffffffffffffffffff1602179055506000600160006101000a81548173ffffffffffffffffffffffffffffffffffffffff021916908373ffffffffffffffffffffffffffffffffffffffff1602179055503373ffffffffffffffffffffffffffffffffffffffff168173ffffffffffffffffffffffffffffffffffffffff167f8be0079c531659141344cd1fd0a4f28419497f9722a3daafe3b4186f6b6457e060405160405180910390a350565b6060610f88336000368080601f016020809104026020016040519081016040528093929190818152602001838380828437600081840152601f19601f82011690508083019250505050505050610c57565b610ffa576040517f08c379a00000000000000000000000000000000000000000000000000000000081526004018080602001828103825260098152602001807f4e6f20616363657373000000000000000000000000000000000000000000000081525060200191505060405180910390fd5b60608383905067ffffffffffffffff8111801561101657600080fd5b506040519080825280602002602001820160405280156110455781602001602082028036833780820191505090505b50905060008090505b848490508110156110f9576004600086868481811061106957fe5b9050602002013573ffffffffffffffffffffffffffffffffffffffff1673ffffffffffffffffffffffffffffffffffffffff1673ffffffffffffffffffffffffffffffffffffffff16815260200190815260200160002060009054906101000a900460ff168282815181106110da57fe5b602002602001019015159081151581525050808060010191505061104e565b508091505092915050565b6000809054906101000a900473ffffffffffffffffffffffffffffffffffffffff1673ffffffffffffffffffffffffffffffffffffffff163373ffffffffffffffffffffffffffffffffffffffff16146111c6576040517f08c379a00000000000000000000000000000000000000000000000000000000081526004018080602001828103825260168152602001807f4f6e6c792063616c6c61626c65206279206f776e65720000000000000000000081525060200191505060405180910390fd5b600160149054906101000a900460ff166112215760018060146101000a81548160ff0219169083151502179055507faebf329500988c6488a0074e5a0a9ff304561fc5c6fc877aeb1d59c8282c348060405160405180910390a15b565b6000809054906101000a900473ffffffffffffffffffffffffffffffffffffffff1673ffffffffffffffffffffffffffffffffffffffff163373ffffffffffffffffffffffffffffffffffffffff16146112e5576040517f08c379a00000000000000000000000000000000000000000000000000000000081526004018080602001828103825260168152602001807f4f6e6c792063616c6c61626c65206279206f776e65720000000000000000000081525060200191505060405180910390fd5b600260008273ffffffffffffffffffffffffffffffffffffffff1673ffffffffffffffffffffffffffffffffffffffff16815260200190815260200160002060009054906101000a900460ff16156113f3576000600260008373ffffffffffffffffffffffffffffffffffffffff1673ffffffffffffffffffffffffffffffffffffffff16815260200190815260200160002060006101000a81548160ff0219169083151502179055507f3d68a6fce901d20453d1a7aa06bf3950302a735948037deb182a8db66df2a0d181604051808273ffffffffffffffffffffffffffffffffffffffff1673ffffffffffffffffffffffffffffffffffffffff16815260200191505060405180910390a15b50565b6000809054906101000a900473ffffffffffffffffffffffffffffffffffffffff1681565b6000809054906101000a900473ffffffffffffffffffffffffffffffffffffffff1673ffffffffffffffffffffffffffffffffffffffff163373ffffffffffffffffffffffffffffffffffffffff16146114dd576040517f08c379a00000000000000000000000000000000000000000000000000000000081526004018080602001828103825260168152602001807f4f6e6c792063616c6c61626c65206279206f776e65720000000000000000000081525060200191505060405180910390fd5b600260008273ffffffffffffffffffffffffffffffffffffffff1673ffffffffffffffffffffffffffffffffffffffff16815260200190815260200160002060009054906101000a900460ff166115ea576001600260008373ffffffffffffffffffffffffffffffffffffffff1673ffffffffffffffffffffffffffffffffffffffff16815260200190815260200160002060006101000a81548160ff0219169083151502179055507f87286ad1f399c8e82bf0c4ef4fcdc570ea2e1e92176e5c848b6413545b885db481604051808273ffffffffffffffffffffffffffffffffffffffff1673ffffffffffffffffffffffffffffffffffffffff16815260200191505060405180910390a15b50565b6115f5611876565b611667576040517f08c379a000000000000000000000000000000000000000000000000000000000815260040180806020018281038252601a8152602001807f4e6f7420616c6c6f77656420746f20726169736520666c61677300000000000081525060200191505060405180910390fd5b611670816119e3565b50565b600160149054906101000a900460ff1681565b6000809054906101000a900473ffffffffffffffffffffffffffffffffffffffff1673ffffffffffffffffffffffffffffffffffffffff163373ffffffffffffffffffffffffffffffffffffffff1614611748576040517f08c379a00000000000000000000000000000000000000000000000000000000081526004018080602001828103825260168152602001807f4f6e6c792063616c6c61626c65206279206f776e65720000000000000000000081525060200191505060405180910390fd5b80600160006101000a81548173ffffffffffffffffffffffffffffffffffffffff021916908373ffffffffffffffffffffffffffffffffffffffff1602179055508073ffffffffffffffffffffffffffffffffffffffff166000809054906101000a900473ffffffffffffffffffffffffffffffffffffffff1673ffffffffffffffffffffffffffffffffffffffff167fed8889f560326eb138920d842192f0eb3dd22b4f139c87a2c57538e05bae127860405160405180910390a350565b6000600260008473ffffffffffffffffffffffffffffffffffffffff1673ffffffffffffffffffffffffffffffffffffffff16815260200190815260200160002060009054906101000a900460ff168061186e5750600160149054906101000a900460ff16155b905092915050565b60008060009054906101000a900473ffffffffffffffffffffffffffffffffffffffff1673ffffffffffffffffffffffffffffffffffffffff163373ffffffffffffffffffffffffffffffffffffffff1614806119de5750600360009054906101000a900473ffffffffffffffffffffffffffffffffffffffff1673ffffffffffffffffffffffffffffffffffffffff16636b14daf8336000366040518463ffffffff1660e01b8152600401808473ffffffffffffffffffffffffffffffffffffffff1673ffffffffffffffffffffffffffffffffffffffff168152602001806020018281038252848482818152602001925080828437600081840152601f19601f82011690508083019250505094505050505060206040518083038186803b1580156119a257600080fd5b505afa1580156119b6573d6000803e3d6000fd5b505050506040513d60208110156119cc57600080fd5b81019080805190602001909291905050505b905090565b600460008273ffffffffffffffffffffffffffffffffffffffff1673ffffffffffffffffffffffffffffffffffffffff16815260200190815260200160002060009054906101000a900460ff16611ad0576001600460008373ffffffffffffffffffffffffffffffffffffffff1673ffffffffffffffffffffffffffffffffffffffff16815260200190815260200160002060006101000a81548160ff0219169083151502179055508073ffffffffffffffffffffffffffffffffffffffff167f881febd4cd194dd4ace637642862aef1fb59a65c7e5551a5d9208f268d11c00660405160405180910390a25b5056fea2646970667358221220f9f33cca5db57d0c729019c852e83d73591fb7cbdae358c5ddc96d8a25ccd33364736f6c63430006060033",
  "compiler": {
    "name": "solc",
    "version": "0.6.6+commit.6c089d02.Emscripten.clang",
    "optimizer": {
      "enabled": false,
      "runs": 200
    },
    "evmVersion": "petersburg"
  }
}