{
  "fileName": "FluxAggregatorTestHelper.sol",
  "contractName": "FluxAggregatorTestHelper",
  "source": "pragma solidity ^0.6.0;\n\nimport \"../FluxAggregator.sol\";\n\ncontract FluxAggregatorTestHelper {\n\n  uint80 public requestedRoundId;\n\n  function readOracleRoundState(address _aggregator, address _oracle)\n    external\n    returns (\n      uint80 roundId,\n      int256 answer,\n      uint256 startedAt,\n      uint256 updatedAt,\n      uint80 answeredInRound\n    )\n  {\n    FluxAggregator(_aggregator).oracleRoundState(_oracle, 0);\n  }\n\n  function readGetRoundData(address _aggregator, uint80 _roundID)\n    external\n  {\n    FluxAggregator(_aggregator).getRoundData(_roundID);\n  }\n\n  function readLatestRoundData(address _aggregator)\n    external\n  {\n    FluxAggregator(_aggregator).latestRoundData();\n  }\n\n  function readLatestAnswer(address _aggregator)\n    external\n  {\n    FluxAggregator(_aggregator).latestAnswer();\n  }\n\n  function readLatestTimestamp(address _aggregator)\n    external\n  {\n    FluxAggregator(_aggregator).latestTimestamp();\n  }\n\n  function readLatestRound(address _aggregator)\n    external\n  {\n    FluxAggregator(_aggregator).latestRound();\n  }\n\n  function requestNewRound(address _aggregator)\n    external\n  {\n    requestedRoundId = FluxAggregator(_aggregator).requestNewRound();\n  }\n\n  function readGetAnswer(address _aggregator, uint256 _roundID)\n    external\n  {\n    FluxAggregator(_aggregator).getAnswer(_roundID);\n  }\n\n  function readGetTimestamp(address _aggregator, uint256 _roundID)\n    external\n  {\n    FluxAggregator(_aggregator).getTimestamp(_roundID);\n  }\n\n}\n",
  "sourcePath": "contracts/chainlink_contracts/chainlink/tests/FluxAggregatorTestHelper.sol",
  "abi": [
    {
      "inputs": [
        {
          "internalType": "address",
          "name": "_aggregator",
          "type": "address"
        },
        {
          "internalType": "uint256",
          "name": "_roundID",
          "type": "uint256"
        }
      ],
      "name": "readGetAnswer",
      "outputs": [],
      "stateMutability": "nonpayable",
      "type": "function"
    },
    {
      "inputs": [
        {
          "internalType": "address",
          "name": "_aggregator",
          "type": "address"
        },
        {
          "internalType": "uint80",
          "name": "_roundID",
          "type": "uint80"
        }
      ],
      "name": "readGetRoundData",
      "outputs": [],
      "stateMutability": "nonpayable",
      "type": "function"
    },
    {
      "inputs": [
        {
          "internalType": "address",
          "name": "_aggregator",
          "type": "address"
        },
        {
          "internalType": "uint256",
          "name": "_roundID",
          "type": "uint256"
        }
      ],
      "name": "readGetTimestamp",
      "outputs": [],
      "stateMutability": "nonpayable",
      "type": "function"
    },
    {
      "inputs": [
        {
          "internalType": "address",
          "name": "_aggregator",
          "type": "address"
        }
      ],
      "name": "readLatestAnswer",
      "outputs": [],
      "stateMutability": "nonpayable",
      "type": "function"
    },
    {
      "inputs": [
        {
          "internalType": "address",
          "name": "_aggregator",
          "type": "address"
        }
      ],
      "name": "readLatestRound",
      "outputs": [],
      "stateMutability": "nonpayable",
      "type": "function"
    },
    {
      "inputs": [
        {
          "internalType": "address",
          "name": "_aggregator",
          "type": "address"
        }
      ],
      "name": "readLatestRoundData",
      "outputs": [],
      "stateMutability": "nonpayable",
      "type": "function"
    },
    {
      "inputs": [
        {
          "internalType": "address",
          "name": "_aggregator",
          "type": "address"
        }
      ],
      "name": "readLatestTimestamp",
      "outputs": [],
      "stateMutability": "nonpayable",
      "type": "function"
    },
    {
      "inputs": [
        {
          "internalType": "address",
          "name": "_aggregator",
          "type": "address"
        },
        {
          "internalType": "address",
          "name": "_oracle",
          "type": "address"
        }
      ],
      "name": "readOracleRoundState",
      "outputs": [
        {
          "internalType": "uint80",
          "name": "roundId",
          "type": "uint80"
        },
        {
          "internalType": "int256",
          "name": "answer",
          "type": "int256"
        },
        {
          "internalType": "uint256",
          "name": "startedAt",
          "type": "uint256"
        },
        {
          "internalType": "uint256",
          "name": "updatedAt",
          "type": "uint256"
        },
        {
          "internalType": "uint80",
          "name": "answeredInRound",
          "type": "uint80"
        }
      ],
      "stateMutability": "nonpayable",
      "type": "function"
    },
    {
      "inputs": [
        {
          "internalType": "address",
          "name": "_aggregator",
          "type": "address"
        }
      ],
      "name": "requestNewRound",
      "outputs": [],
      "stateMutability": "nonpayable",
      "type": "function"
    },
    {
      "inputs": [],
      "name": "requestedRoundId",
      "outputs": [
        {
          "internalType": "uint80",
          "name": "",
          "type": "uint80"
        }
      ],
      "stateMutability": "view",
      "type": "function"
    }
  ],
  "bytecode": "0x608060405234801561001057600080fd5b50610a49806100206000396000f3fe608060405234801561001057600080fd5b506004361061009e5760003560e01c8063c52a1f5e11610066578063c52a1f5e14610217578063c9592ab9146102db578063d2f79c4714610329578063e11362811461036d578063eea2913a146103a35761009e565b806320f2c97c146100a357806375952a9c146100e757806395319deb1461012b578063bf5fc18b14610185578063c0c9c7db146101d3575b600080fd5b6100e5600480360360208110156100b957600080fd5b81019080803573ffffffffffffffffffffffffffffffffffffffff1690602001909291905050506103e7565b005b610129600480360360208110156100fd57600080fd5b81019080803573ffffffffffffffffffffffffffffffffffffffff169060200190929190505050610498565b005b6101836004803603604081101561014157600080fd5b81019080803573ffffffffffffffffffffffffffffffffffffffff169060200190929190803569ffffffffffffffffffff169060200190929190505050610549565b005b6101d16004803603604081101561019b57600080fd5b81019080803573ffffffffffffffffffffffffffffffffffffffff1690602001909291908035906020019092919050505061061e565b005b610215600480360360208110156101e957600080fd5b81019080803573ffffffffffffffffffffffffffffffffffffffff1690602001909291905050506106af565b005b6102796004803603604081101561022d57600080fd5b81019080803573ffffffffffffffffffffffffffffffffffffffff169060200190929190803573ffffffffffffffffffffffffffffffffffffffff169060200190929190505050610734565b604051808669ffffffffffffffffffff1669ffffffffffffffffffff1681526020018581526020018481526020018381526020018269ffffffffffffffffffff1669ffffffffffffffffffff1681526020019550505050505060405180910390f35b610327600480360360408110156102f157600080fd5b81019080803573ffffffffffffffffffffffffffffffffffffffff1690602001909291908035906020019092919050505061085d565b005b61036b6004803603602081101561033f57600080fd5b81019080803573ffffffffffffffffffffffffffffffffffffffff1690602001909291905050506108ee565b005b610375610973565b604051808269ffffffffffffffffffff1669ffffffffffffffffffff16815260200191505060405180910390f35b6103e5600480360360208110156103b957600080fd5b81019080803573ffffffffffffffffffffffffffffffffffffffff16906020019092919050505061098e565b005b8073ffffffffffffffffffffffffffffffffffffffff1663feaf968c6040518163ffffffff1660e01b815260040160a06040518083038186803b15801561042d57600080fd5b505afa158015610441573d6000803e3d6000fd5b505050506040513d60a081101561045757600080fd5b810190808051906020019092919080519060200190929190805190602001909291908051906020019092919080519060200190929190505050505050505050565b8073ffffffffffffffffffffffffffffffffffffffff166398e5b12a6040518163ffffffff1660e01b8152600401602060405180830381600087803b1580156104e057600080fd5b505af11580156104f4573d6000803e3d6000fd5b505050506040513d602081101561050a57600080fd5b81019080805190602001909291905050506000806101000a81548169ffffffffffffffffffff021916908369ffffffffffffffffffff16021790555050565b8173ffffffffffffffffffffffffffffffffffffffff16639a6fc8f5826040518263ffffffff1660e01b8152600401808269ffffffffffffffffffff1669ffffffffffffffffffff16815260200191505060a06040518083038186803b1580156105b257600080fd5b505afa1580156105c6573d6000803e3d6000fd5b505050506040513d60a08110156105dc57600080fd5b81019080805190602001909291908051906020019092919080519060200190929190805190602001909291908051906020019092919050505050505050505050565b8173ffffffffffffffffffffffffffffffffffffffff1663b5ab58dc826040518263ffffffff1660e01b81526004018082815260200191505060206040518083038186803b15801561066f57600080fd5b505afa158015610683573d6000803e3d6000fd5b505050506040513d602081101561069957600080fd5b8101908080519060200190929190505050505050565b8073ffffffffffffffffffffffffffffffffffffffff166350d25bcd6040518163ffffffff1660e01b815260040160206040518083038186803b1580156106f557600080fd5b505afa158015610709573d6000803e3d6000fd5b505050506040513d602081101561071f57600080fd5b81019080805190602001909291905050505050565b60008060008060008673ffffffffffffffffffffffffffffffffffffffff166388aa80e78760006040518363ffffffff1660e01b8152600401808373ffffffffffffffffffffffffffffffffffffffff1673ffffffffffffffffffffffffffffffffffffffff1681526020018263ffffffff168152602001925050506101006040518083038186803b1580156107c957600080fd5b505afa1580156107dd573d6000803e3d6000fd5b505050506040513d6101008110156107f457600080fd5b81019080805190602001909291908051906020019092919080519060200190929190805190602001909291908051906020019092919080519060200190929190805190602001909291908051906020019092919050505050505050505050509295509295909350565b8173ffffffffffffffffffffffffffffffffffffffff1663b633620c826040518263ffffffff1660e01b81526004018082815260200191505060206040518083038186803b1580156108ae57600080fd5b505afa1580156108c2573d6000803e3d6000fd5b505050506040513d60208110156108d857600080fd5b8101908080519060200190929190505050505050565b8073ffffffffffffffffffffffffffffffffffffffff16638205bf6a6040518163ffffffff1660e01b815260040160206040518083038186803b15801561093457600080fd5b505afa158015610948573d6000803e3d6000fd5b505050506040513d602081101561095e57600080fd5b81019080805190602001909291905050505050565b6000809054906101000a900469ffffffffffffffffffff1681565b8073ffffffffffffffffffffffffffffffffffffffff1663668a0f026040518163ffffffff1660e01b815260040160206040518083038186803b1580156109d457600080fd5b505afa1580156109e8573d6000803e3d6000fd5b505050506040513d60208110156109fe57600080fd5b8101908080519060200190929190505050505056fea2646970667358221220744c1a2fc5d8fc20fdce5416ef23b17482279b1770ee6bd08f04806b4df7b61564736f6c63430006060033",
  "compiler": {
    "name": "solc",
    "version": "0.6.6+commit.6c089d02.Emscripten.clang",
    "optimizer": {
      "enabled": false,
      "runs": 200
    },
    "evmVersion": "petersburg"
  }
}