{
  "fileName": "MockV2Aggregator.sol",
  "contractName": "MockV2Aggregator",
  "source": "pragma solidity ^0.6.0;\n\nimport \"../interfaces/AggregatorInterface.sol\";\n\n/**\n * @title MockV2Aggregator\n * @notice Based on the HistoricAggregator contract\n * @notice Use this contract when you need to test\n * other contract's ability to read data from an\n * aggregator contract, but how the aggregator got\n * its answer is unimportant\n */\ncontract MockV2Aggregator is AggregatorInterface {\n  int256 public override latestAnswer;\n  uint256 public override latestTimestamp;\n  uint256 public override latestRound;\n\n  mapping(uint256 => int256) public override getAnswer;\n  mapping(uint256 => uint256) public override getTimestamp;\n  mapping(uint256 => uint256) private getStartedAt;\n\n  constructor(\n    int256 _initialAnswer\n  ) public {\n    updateAnswer(_initialAnswer);\n  }\n\n  function updateAnswer(\n    int256 _answer\n  ) public {\n    latestAnswer = _answer;\n    latestTimestamp = block.timestamp;\n    latestRound++;\n    getAnswer[latestRound] = _answer;\n    getTimestamp[latestRound] = block.timestamp;\n  }\n\n  function updateRoundData(\n    uint256 _roundId,\n    int256 _answer,\n    uint256 _timestamp,\n    uint256 _startedAt\n  ) public {\n    latestRound = _roundId;\n    latestAnswer = _answer;\n    latestTimestamp = _timestamp;\n    getAnswer[latestRound] = _answer;\n    getTimestamp[latestRound] = _timestamp;\n    getStartedAt[latestRound] = _startedAt;\n  }\n}\n",
  "sourcePath": "contracts/chainlink_contracts/chainlink/tests/MockV2Aggregator.sol",
  "abi": [
    {
      "inputs": [
        {
          "internalType": "int256",
          "name": "_initialAnswer",
          "type": "int256"
        }
      ],
      "stateMutability": "nonpayable",
      "type": "constructor"
    },
    {
      "anonymous": false,
      "inputs": [
        {
          "indexed": true,
          "internalType": "int256",
          "name": "current",
          "type": "int256"
        },
        {
          "indexed": true,
          "internalType": "uint256",
          "name": "roundId",
          "type": "uint256"
        },
        {
          "indexed": false,
          "internalType": "uint256",
          "name": "updatedAt",
          "type": "uint256"
        }
      ],
      "name": "AnswerUpdated",
      "type": "event"
    },
    {
      "anonymous": false,
      "inputs": [
        {
          "indexed": true,
          "internalType": "uint256",
          "name": "roundId",
          "type": "uint256"
        },
        {
          "indexed": true,
          "internalType": "address",
          "name": "startedBy",
          "type": "address"
        },
        {
          "indexed": false,
          "internalType": "uint256",
          "name": "startedAt",
          "type": "uint256"
        }
      ],
      "name": "NewRound",
      "type": "event"
    },
    {
      "inputs": [
        {
          "internalType": "uint256",
          "name": "",
          "type": "uint256"
        }
      ],
      "name": "getAnswer",
      "outputs": [
        {
          "internalType": "int256",
          "name": "",
          "type": "int256"
        }
      ],
      "stateMutability": "view",
      "type": "function"
    },
    {
      "inputs": [
        {
          "internalType": "uint256",
          "name": "",
          "type": "uint256"
        }
      ],
      "name": "getTimestamp",
      "outputs": [
        {
          "internalType": "uint256",
          "name": "",
          "type": "uint256"
        }
      ],
      "stateMutability": "view",
      "type": "function"
    },
    {
      "inputs": [],
      "name": "latestAnswer",
      "outputs": [
        {
          "internalType": "int256",
          "name": "",
          "type": "int256"
        }
      ],
      "stateMutability": "view",
      "type": "function"
    },
    {
      "inputs": [],
      "name": "latestRound",
      "outputs": [
        {
          "internalType": "uint256",
          "name": "",
          "type": "uint256"
        }
      ],
      "stateMutability": "view",
      "type": "function"
    },
    {
      "inputs": [],
      "name": "latestTimestamp",
      "outputs": [
        {
          "internalType": "uint256",
          "name": "",
          "type": "uint256"
        }
      ],
      "stateMutability": "view",
      "type": "function"
    },
    {
      "inputs": [
        {
          "internalType": "int256",
          "name": "_answer",
          "type": "int256"
        }
      ],
      "name": "updateAnswer",
      "outputs": [],
      "stateMutability": "nonpayable",
      "type": "function"
    },
    {
      "inputs": [
        {
          "internalType": "uint256",
          "name": "_roundId",
          "type": "uint256"
        },
        {
          "internalType": "int256",
          "name": "_answer",
          "type": "int256"
        },
        {
          "internalType": "uint256",
          "name": "_timestamp",
          "type": "uint256"
        },
        {
          "internalType": "uint256",
          "name": "_startedAt",
          "type": "uint256"
        }
      ],
      "name": "updateRoundData",
      "outputs": [],
      "stateMutability": "nonpayable",
      "type": "function"
    }
  ],
  "bytecode": "0x608060405234801561001057600080fd5b506040516103d13803806103d18339818101604052602081101561003357600080fd5b81019080805190602001909291905050506100538161005960201b60201c565b506100b0565b80600081905550426001819055506002600081548092919060010191905055508060036000600254815260200190815260200160002081905550426004600060025481526020019081526020016000208190555050565b610312806100bf6000396000f3fe608060405234801561001057600080fd5b506004361061007d5760003560e01c80639ab29f451161005b5780639ab29f45146100dc578063a87a20ce14610128578063b5ab58dc14610156578063b633620c146101985761007d565b806350d25bcd14610082578063668a0f02146100a05780638205bf6a146100be575b600080fd5b61008a6101da565b6040518082815260200191505060405180910390f35b6100a86101e0565b6040518082815260200191505060405180910390f35b6100c66101e6565b6040518082815260200191505060405180910390f35b610126600480360360808110156100f257600080fd5b81019080803590602001909291908035906020019092919080359060200190929190803590602001909291905050506101ec565b005b6101546004803603602081101561013e57600080fd5b8101908080359060200190929190505050610255565b005b6101826004803603602081101561016c57600080fd5b81019080803590602001909291905050506102ac565b6040518082815260200191505060405180910390f35b6101c4600480360360208110156101ae57600080fd5b81019080803590602001909291905050506102c4565b6040518082815260200191505060405180910390f35b60005481565b60025481565b60015481565b83600281905550826000819055508160018190555082600360006002548152602001908152602001600020819055508160046000600254815260200190815260200160002081905550806005600060025481526020019081526020016000208190555050505050565b80600081905550426001819055506002600081548092919060010191905055508060036000600254815260200190815260200160002081905550426004600060025481526020019081526020016000208190555050565b60036020528060005260406000206000915090505481565b6004602052806000526040600020600091509050548156fea2646970667358221220636e8c23257c604f227f8abe6b5437042e5eafb3834836188cb59022097bfc3164736f6c63430006060033",
  "compiler": {
    "name": "solc",
    "version": "0.6.6+commit.6c089d02.Emscripten.clang",
    "optimizer": {
      "enabled": false,
      "runs": 200
    },
    "evmVersion": "petersburg"
  }
}