{
  "fileName": "PreCoordinator.sol",
  "contractName": "PreCoordinator",
  "source": "pragma solidity 0.6.6;\n\nimport \"./ChainlinkClient.sol\";\nimport \"./LinkTokenReceiver.sol\";\nimport \"./Median.sol\";\nimport \"./vendor/Ownable.sol\";\nimport \"./vendor/SafeMath.sol\";\n\n/**\n * @title PreCoordinator is a contract that builds on-chain service agreements\n * using the current architecture of 1 request to 1 oracle contract.\n * @dev This contract accepts requests as service agreement IDs and loops over\n * the corresponding list of oracles to create distinct requests to each one.\n */\ncontract PreCoordinator is ChainlinkClient, Ownable, ChainlinkRequestInterface, LinkTokenReceiver {\n  using SafeMath for uint256;\n\n  uint256 constant private MAX_ORACLE_COUNT = 45;\n\n  uint256 private globalNonce;\n\n  struct ServiceAgreement {\n    uint256 totalPayment;\n    uint256 minResponses;\n    address[] oracles;\n    bytes32[] jobIds;\n    uint256[] payments;\n  }\n\n  struct Requester {\n    bytes4 callbackFunctionId;\n    address sender;\n    address callbackAddress;\n    int256[] responses;\n  }\n\n  // Service Agreement ID => ServiceAgreement\n  mapping(bytes32 => ServiceAgreement) internal serviceAgreements;\n  // Local Request ID => Service Agreement ID\n  mapping(bytes32 => bytes32) internal serviceAgreementRequests;\n  // Requester's Request ID => Requester\n  mapping(bytes32 => Requester) internal requesters;\n  // Local Request ID => Requester's Request ID\n  mapping(bytes32 => bytes32) internal requests;\n\n  event NewServiceAgreement(bytes32 indexed saId, uint256 payment, uint256 minresponses);\n  event ServiceAgreementRequested(bytes32 indexed saId, bytes32 indexed requestId, uint256 payment);\n  event ServiceAgreementResponseReceived(bytes32 indexed saId, bytes32 indexed requestId, address indexed oracle, int256 answer);\n  event ServiceAgreementAnswerUpdated(bytes32 indexed saId, bytes32 indexed requestId, int256 answer);\n  event ServiceAgreementDeleted(bytes32 indexed saId);\n\n  /**\n   * @notice Deploy the contract with a specified address for the LINK\n   * and Oracle contract addresses\n   * @dev Sets the storage for the specified addresses\n   * @param _link The address of the LINK token contract\n   */\n  constructor(address _link) public {\n    if(_link == address(0)) {\n      setPublicChainlinkToken();\n    } else {\n      setChainlinkToken(_link);\n    }\n  }\n\n  /**\n   * @notice Allows the owner of the contract to create new service agreements\n   * with multiple oracles. Each oracle will have their own Job ID and can have\n   * their own payment amount.\n   * @dev The globalNonce keeps service agreement IDs unique. Assume one cannot\n   * create the max uint256 number of service agreements in the same block.\n   * @param _minResponses The minimum number of responses before the requesting\n   * contract is called with the response data.\n   * @param _oracles The list of oracle contract addresses.\n   * @param _jobIds The corresponding list of Job IDs.\n   * @param _payments The corresponding list of payment amounts.\n   */\n  function createServiceAgreement(\n    uint256 _minResponses,\n    address[] calldata _oracles,\n    bytes32[] calldata _jobIds,\n    uint256[] calldata _payments\n  )\n    external returns (bytes32 saId)\n  {\n    require(_minResponses > 0, \"Min responses must be > 0\");\n    require(_oracles.length == _jobIds.length && _oracles.length == _payments.length, \"Unmet length\");\n    require(_oracles.length <= MAX_ORACLE_COUNT, \"Cannot have more than 45 oracles\");\n    require(_oracles.length >= _minResponses, \"Invalid min responses\");\n    uint256 totalPayment;\n    for (uint i = 0; i < _payments.length; i++) {\n      totalPayment = totalPayment.add(_payments[i]);\n    }\n    saId = keccak256(abi.encodePacked(globalNonce, now));\n    globalNonce++; // yes, let it overflow\n    serviceAgreements[saId] = ServiceAgreement(totalPayment, _minResponses, _oracles, _jobIds, _payments);\n\n    emit NewServiceAgreement(saId, totalPayment, _minResponses);\n  }\n\n  /**\n   * @notice This is a helper function to retrieve the details of a service agreement\n   * by its given service agreement ID.\n   * @dev This function is used instead of the public mapping to return the values\n   * of the arrays: oracles, jobIds, and payments.\n   */\n  function getServiceAgreement(bytes32 _saId)\n    external view returns\n  (\n    uint256 totalPayment,\n    uint256 minResponses,\n    address[] memory oracles,\n    bytes32[] memory jobIds,\n    uint256[] memory payments\n  )\n  {\n    return\n    (\n      serviceAgreements[_saId].totalPayment,\n      serviceAgreements[_saId].minResponses,\n      serviceAgreements[_saId].oracles,\n      serviceAgreements[_saId].jobIds,\n      serviceAgreements[_saId].payments\n    );\n  }\n\n  /**\n   * @notice Returns the address of the LINK token\n   * @dev This is the public implementation for chainlinkTokenAddress, which is\n   * an internal method of the ChainlinkClient contract\n   */\n  function getChainlinkToken() public view override returns (address) {\n    return chainlinkTokenAddress();\n  }\n\n  /**\n   * @notice Creates the Chainlink request\n   * @dev Stores the hash of the params as the on-chain commitment for the request.\n   * Emits OracleRequest event for the Chainlink node to detect.\n   * @param _sender The sender of the request\n   * @param _payment The amount of payment given (specified in wei)\n   * @param _saId The Job Specification ID\n   * @param _callbackAddress The callback address for the response\n   * @param _callbackFunctionId The callback function ID for the response\n   * @param _nonce The nonce sent by the requester\n   * @param _data The CBOR payload of the request\n   */\n  function oracleRequest(\n    address _sender,\n    uint256 _payment,\n    bytes32 _saId,\n    address _callbackAddress,\n    bytes4 _callbackFunctionId,\n    uint256 _nonce,\n    uint256,\n    bytes calldata _data\n  )\n    external\n    onlyLINK\n    override\n    checkCallbackAddress(_callbackAddress)\n  {\n    uint256 totalPayment = serviceAgreements[_saId].totalPayment;\n    // this revert message does not bubble up\n    require(_payment >= totalPayment, \"Insufficient payment\");\n    bytes32 callbackRequestId = keccak256(abi.encodePacked(_sender, _nonce));\n    require(requesters[callbackRequestId].sender == address(0), \"Nonce already in-use\");\n    requesters[callbackRequestId].callbackFunctionId = _callbackFunctionId;\n    requesters[callbackRequestId].callbackAddress = _callbackAddress;\n    requesters[callbackRequestId].sender = _sender;\n    createRequests(_saId, callbackRequestId, _data);\n    if (_payment > totalPayment) {\n      uint256 overage = _payment.sub(totalPayment);\n      LinkTokenInterface _link = LinkTokenInterface(chainlinkTokenAddress());\n      assert(_link.transfer(_sender, overage));\n    }\n  }\n\n  /**\n   * @dev Creates Chainlink requests to each oracle in the service agreement with the\n   * same data payload supplied by the requester\n   * @param _saId The service agreement ID\n   * @param _incomingRequestId The requester-supplied request ID\n   * @param _data The data payload (request parameters) to send to each oracle\n   */\n  function createRequests(bytes32 _saId, bytes32 _incomingRequestId, bytes memory _data) private {\n    ServiceAgreement memory sa = serviceAgreements[_saId];\n    require(sa.minResponses > 0, \"Invalid service agreement\");\n    Chainlink.Request memory request;\n    bytes32 outgoingRequestId;\n    emit ServiceAgreementRequested(_saId, _incomingRequestId, sa.totalPayment);\n    for (uint i = 0; i < sa.oracles.length; i++) {\n      request = buildChainlinkRequest(sa.jobIds[i], address(this), this.chainlinkCallback.selector);\n      request.setBuffer(_data);\n      outgoingRequestId = sendChainlinkRequestTo(sa.oracles[i], request, sa.payments[i]);\n      requests[outgoingRequestId] = _incomingRequestId;\n      serviceAgreementRequests[outgoingRequestId] = _saId;\n    }\n  }\n\n  /**\n   * @notice The fulfill method from requests created by this contract\n   * @dev The recordChainlinkFulfillment protects this function from being called\n   * by anyone other than the oracle address that the request was sent to\n   * @param _requestId The ID that was generated for the request\n   * @param _data The answer provided by the oracle\n   */\n  function chainlinkCallback(bytes32 _requestId, int256 _data)\n    external\n    recordChainlinkFulfillment(_requestId)\n    returns (bool)\n  {\n    ServiceAgreement memory sa = serviceAgreements[serviceAgreementRequests[_requestId]];\n    bytes32 cbRequestId = requests[_requestId];\n    bytes32 saId = serviceAgreementRequests[_requestId];\n    delete requests[_requestId];\n    delete serviceAgreementRequests[_requestId];\n    emit ServiceAgreementResponseReceived(saId, cbRequestId, msg.sender, _data);\n    requesters[cbRequestId].responses.push(_data);\n    Requester memory req = requesters[cbRequestId];\n    if (req.responses.length == sa.oracles.length) delete requesters[cbRequestId];\n    bool success = true;\n    if (req.responses.length == sa.minResponses) {\n      int256 result = Median.calculate(req.responses);\n      emit ServiceAgreementAnswerUpdated(saId, cbRequestId, result);\n      // solhint-disable-next-line avoid-low-level-calls\n      (success, ) = req.callbackAddress.call(abi.encodeWithSelector(req.callbackFunctionId, cbRequestId, result));\n    }\n    return success;\n  }\n\n  /**\n   * @notice Allows the owner to withdraw any LINK balance on the contract\n   * @dev The only valid case for there to be remaining LINK on this contract\n   * is if a user accidentally sent LINK directly to this contract's address.\n   */\n  function withdrawLink() external onlyOwner {\n    LinkTokenInterface _link = LinkTokenInterface(chainlinkTokenAddress());\n    require(_link.transfer(msg.sender, _link.balanceOf(address(this))), \"Unable to transfer\");\n  }\n\n  /**\n   * @notice Call this method if no response is received within 5 minutes\n   * @param _requestId The ID that was generated for the request to cancel\n   * @param _payment The payment specified for the request to cancel\n   * @param _callbackFunctionId The bytes4 callback function ID specified for\n   * the request to cancel\n   * @param _expiration The expiration generated for the request to cancel\n   */\n  function cancelOracleRequest(\n    bytes32 _requestId,\n    uint256 _payment,\n    bytes4 _callbackFunctionId,\n    uint256 _expiration\n  )\n    external\n    override\n  {\n    bytes32 cbRequestId = requests[_requestId];\n    delete requests[_requestId];\n    delete serviceAgreementRequests[_requestId];\n    Requester memory req = requesters[cbRequestId];\n    require(req.sender == msg.sender, \"Only requester can cancel\");\n    delete requesters[cbRequestId];\n    cancelChainlinkRequest(_requestId, _payment, _callbackFunctionId, _expiration);\n    LinkTokenInterface _link = LinkTokenInterface(chainlinkTokenAddress());\n    require(_link.transfer(req.sender, _payment), \"Unable to transfer\");\n  }\n\n  /**\n   * @dev Reverts if the callback address is the LINK token\n   * @param _to The callback address\n   */\n  modifier checkCallbackAddress(address _to) {\n    require(_to != chainlinkTokenAddress(), \"Cannot callback to LINK\");\n    _;\n  }\n}\n",
  "sourcePath": "contracts/chainlink_contracts/chainlink/PreCoordinator.sol",
  "abi": [
    {
      "inputs": [
        {
          "internalType": "address",
          "name": "_link",
          "type": "address"
        }
      ],
      "stateMutability": "nonpayable",
      "type": "constructor"
    },
    {
      "anonymous": false,
      "inputs": [
        {
          "indexed": true,
          "internalType": "bytes32",
          "name": "id",
          "type": "bytes32"
        }
      ],
      "name": "ChainlinkCancelled",
      "type": "event"
    },
    {
      "anonymous": false,
      "inputs": [
        {
          "indexed": true,
          "internalType": "bytes32",
          "name": "id",
          "type": "bytes32"
        }
      ],
      "name": "ChainlinkFulfilled",
      "type": "event"
    },
    {
      "anonymous": false,
      "inputs": [
        {
          "indexed": true,
          "internalType": "bytes32",
          "name": "id",
          "type": "bytes32"
        }
      ],
      "name": "ChainlinkRequested",
      "type": "event"
    },
    {
      "anonymous": false,
      "inputs": [
        {
          "indexed": true,
          "internalType": "bytes32",
          "name": "saId",
          "type": "bytes32"
        },
        {
          "indexed": false,
          "internalType": "uint256",
          "name": "payment",
          "type": "uint256"
        },
        {
          "indexed": false,
          "internalType": "uint256",
          "name": "minresponses",
          "type": "uint256"
        }
      ],
      "name": "NewServiceAgreement",
      "type": "event"
    },
    {
      "anonymous": false,
      "inputs": [
        {
          "indexed": true,
          "internalType": "address",
          "name": "previousOwner",
          "type": "address"
        },
        {
          "indexed": true,
          "internalType": "address",
          "name": "newOwner",
          "type": "address"
        }
      ],
      "name": "OwnershipTransferred",
      "type": "event"
    },
    {
      "anonymous": false,
      "inputs": [
        {
          "indexed": true,
          "internalType": "bytes32",
          "name": "saId",
          "type": "bytes32"
        },
        {
          "indexed": true,
          "internalType": "bytes32",
          "name": "requestId",
          "type": "bytes32"
        },
        {
          "indexed": false,
          "internalType": "int256",
          "name": "answer",
          "type": "int256"
        }
      ],
      "name": "ServiceAgreementAnswerUpdated",
      "type": "event"
    },
    {
      "anonymous": false,
      "inputs": [
        {
          "indexed": true,
          "internalType": "bytes32",
          "name": "saId",
          "type": "bytes32"
        }
      ],
      "name": "ServiceAgreementDeleted",
      "type": "event"
    },
    {
      "anonymous": false,
      "inputs": [
        {
          "indexed": true,
          "internalType": "bytes32",
          "name": "saId",
          "type": "bytes32"
        },
        {
          "indexed": true,
          "internalType": "bytes32",
          "name": "requestId",
          "type": "bytes32"
        },
        {
          "indexed": false,
          "internalType": "uint256",
          "name": "payment",
          "type": "uint256"
        }
      ],
      "name": "ServiceAgreementRequested",
      "type": "event"
    },
    {
      "anonymous": false,
      "inputs": [
        {
          "indexed": true,
          "internalType": "bytes32",
          "name": "saId",
          "type": "bytes32"
        },
        {
          "indexed": true,
          "internalType": "bytes32",
          "name": "requestId",
          "type": "bytes32"
        },
        {
          "indexed": true,
          "internalType": "address",
          "name": "oracle",
          "type": "address"
        },
        {
          "indexed": false,
          "internalType": "int256",
          "name": "answer",
          "type": "int256"
        }
      ],
      "name": "ServiceAgreementResponseReceived",
      "type": "event"
    },
    {
      "inputs": [
        {
          "internalType": "bytes32",
          "name": "_requestId",
          "type": "bytes32"
        },
        {
          "internalType": "uint256",
          "name": "_payment",
          "type": "uint256"
        },
        {
          "internalType": "bytes4",
          "name": "_callbackFunctionId",
          "type": "bytes4"
        },
        {
          "internalType": "uint256",
          "name": "_expiration",
          "type": "uint256"
        }
      ],
      "name": "cancelOracleRequest",
      "outputs": [],
      "stateMutability": "nonpayable",
      "type": "function"
    },
    {
      "inputs": [
        {
          "internalType": "bytes32",
          "name": "_requestId",
          "type": "bytes32"
        },
        {
          "internalType": "int256",
          "name": "_data",
          "type": "int256"
        }
      ],
      "name": "chainlinkCallback",
      "outputs": [
        {
          "internalType": "bool",
          "name": "",
          "type": "bool"
        }
      ],
      "stateMutability": "nonpayable",
      "type": "function"
    },
    {
      "inputs": [
        {
          "internalType": "uint256",
          "name": "_minResponses",
          "type": "uint256"
        },
        {
          "internalType": "address[]",
          "name": "_oracles",
          "type": "address[]"
        },
        {
          "internalType": "bytes32[]",
          "name": "_jobIds",
          "type": "bytes32[]"
        },
        {
          "internalType": "uint256[]",
          "name": "_payments",
          "type": "uint256[]"
        }
      ],
      "name": "createServiceAgreement",
      "outputs": [
        {
          "internalType": "bytes32",
          "name": "saId",
          "type": "bytes32"
        }
      ],
      "stateMutability": "nonpayable",
      "type": "function"
    },
    {
      "inputs": [],
      "name": "getChainlinkToken",
      "outputs": [
        {
          "internalType": "address",
          "name": "",
          "type": "address"
        }
      ],
      "stateMutability": "view",
      "type": "function"
    },
    {
      "inputs": [
        {
          "internalType": "bytes32",
          "name": "_saId",
          "type": "bytes32"
        }
      ],
      "name": "getServiceAgreement",
      "outputs": [
        {
          "internalType": "uint256",
          "name": "totalPayment",
          "type": "uint256"
        },
        {
          "internalType": "uint256",
          "name": "minResponses",
          "type": "uint256"
        },
        {
          "internalType": "address[]",
          "name": "oracles",
          "type": "address[]"
        },
        {
          "internalType": "bytes32[]",
          "name": "jobIds",
          "type": "bytes32[]"
        },
        {
          "internalType": "uint256[]",
          "name": "payments",
          "type": "uint256[]"
        }
      ],
      "stateMutability": "view",
      "type": "function"
    },
    {
      "inputs": [],
      "name": "isOwner",
      "outputs": [
        {
          "internalType": "bool",
          "name": "",
          "type": "bool"
        }
      ],
      "stateMutability": "view",
      "type": "function"
    },
    {
      "inputs": [
        {
          "internalType": "address",
          "name": "_sender",
          "type": "address"
        },
        {
          "internalType": "uint256",
          "name": "_amount",
          "type": "uint256"
        },
        {
          "internalType": "bytes",
          "name": "_data",
          "type": "bytes"
        }
      ],
      "name": "onTokenTransfer",
      "outputs": [],
      "stateMutability": "nonpayable",
      "type": "function"
    },
    {
      "inputs": [
        {
          "internalType": "address",
          "name": "_sender",
          "type": "address"
        },
        {
          "internalType": "uint256",
          "name": "_payment",
          "type": "uint256"
        },
        {
          "internalType": "bytes32",
          "name": "_saId",
          "type": "bytes32"
        },
        {
          "internalType": "address",
          "name": "_callbackAddress",
          "type": "address"
        },
        {
          "internalType": "bytes4",
          "name": "_callbackFunctionId",
          "type": "bytes4"
        },
        {
          "internalType": "uint256",
          "name": "_nonce",
          "type": "uint256"
        },
        {
          "internalType": "uint256",
          "name": "",
          "type": "uint256"
        },
        {
          "internalType": "bytes",
          "name": "_data",
          "type": "bytes"
        }
      ],
      "name": "oracleRequest",
      "outputs": [],
      "stateMutability": "nonpayable",
      "type": "function"
    },
    {
      "inputs": [],
      "name": "owner",
      "outputs": [
        {
          "internalType": "address",
          "name": "",
          "type": "address"
        }
      ],
      "stateMutability": "view",
      "type": "function"
    },
    {
      "inputs": [
        {
          "internalType": "address",
          "name": "newOwner",
          "type": "address"
        }
      ],
      "name": "transferOwnership",
      "outputs": [],
      "stateMutability": "nonpayable",
      "type": "function"
    },
    {
      "inputs": [],
      "name": "withdrawLink",
      "outputs": [],
      "stateMutability": "nonpayable",
      "type": "function"
    }
  ],
  "bytecode": "0x608060405260016004553480156200001657600080fd5b506040516200435f3803806200435f833981810160405260208110156200003c57600080fd5b810190808051906020019092919050505033600660006101000a81548173ffffffffffffffffffffffffffffffffffffffff021916908373ffffffffffffffffffffffffffffffffffffffff160217905550600660009054906101000a900473ffffffffffffffffffffffffffffffffffffffff1673ffffffffffffffffffffffffffffffffffffffff16600073ffffffffffffffffffffffffffffffffffffffff167f8be0079c531659141344cd1fd0a4f28419497f9722a3daafe3b4186f6b6457e060405160405180910390a3600073ffffffffffffffffffffffffffffffffffffffff168173ffffffffffffffffffffffffffffffffffffffff1614156200015757620001516200017060201b60201c565b62000169565b62000168816200021a60201b60201c565b5b506200025e565b6200021873c89bd4e1632d3a43cb03aaad5262cbe4038bc57173ffffffffffffffffffffffffffffffffffffffff166338cc48316040518163ffffffff1660e01b815260040160206040518083038186803b158015620001cf57600080fd5b505afa158015620001e4573d6000803e3d6000fd5b505050506040513d6020811015620001fb57600080fd5b81019080805190602001909291905050506200021a60201b60201c565b565b80600260006101000a81548173ffffffffffffffffffffffffffffffffffffffff021916908373ffffffffffffffffffffffffffffffffffffffff16021790555050565b6140f1806200026e6000396000f3fe608060405234801561001057600080fd5b50600436106100a95760003560e01c80638da5cb5b116100715780638da5cb5b146103ff5780638dc654a2146104495780638f32d59b14610453578063a4c0ed3614610475578063af52c9811461055a578063f2fde38b1461067b576100a9565b8063165d35e1146100ae57806340429946146100f85780636a9705b4146102035780636ee4d55314610253578063834b55e0146102be575b600080fd5b6100b66106bf565b604051808273ffffffffffffffffffffffffffffffffffffffff1673ffffffffffffffffffffffffffffffffffffffff16815260200191505060405180910390f35b610201600480360361010081101561010f57600080fd5b81019080803573ffffffffffffffffffffffffffffffffffffffff1690602001909291908035906020019092919080359060200190929190803573ffffffffffffffffffffffffffffffffffffffff16906020019092919080357bffffffffffffffffffffffffffffffffffffffffffffffffffffffff191690602001909291908035906020019092919080359060200190929190803590602001906401000000008111156101bd57600080fd5b8201836020820111156101cf57600080fd5b803590602001918460018302840111640100000000831117156101f157600080fd5b90919293919293905050506106ce565b005b6102396004803603604081101561021957600080fd5b810190808035906020019092919080359060200190929190505050610c1a565b604051808215151515815260200191505060405180910390f35b6102bc6004803603608081101561026957600080fd5b81019080803590602001909291908035906020019092919080357bffffffffffffffffffffffffffffffffffffffffffffffffffffffff1916906020019092919080359060200190929190505050611376565b005b6103e9600480360360808110156102d457600080fd5b8101908080359060200190929190803590602001906401000000008111156102fb57600080fd5b82018360208201111561030d57600080fd5b8035906020019184602083028401116401000000008311171561032f57600080fd5b90919293919293908035906020019064010000000081111561035057600080fd5b82018360208201111561036257600080fd5b8035906020019184602083028401116401000000008311171561038457600080fd5b9091929391929390803590602001906401000000008111156103a557600080fd5b8201836020820111156103b757600080fd5b803590602001918460208302840111640100000000831117156103d957600080fd5b90919293919293905050506117c6565b6040518082815260200191505060405180910390f35b610407611c00565b604051808273ffffffffffffffffffffffffffffffffffffffff1673ffffffffffffffffffffffffffffffffffffffff16815260200191505060405180910390f35b610451611c2a565b005b61045b611e9e565b604051808215151515815260200191505060405180910390f35b6105586004803603606081101561048b57600080fd5b81019080803573ffffffffffffffffffffffffffffffffffffffff16906020019092919080359060200190929190803590602001906401000000008111156104d257600080fd5b8201836020820111156104e457600080fd5b8035906020019184600183028401116401000000008311171561050657600080fd5b91908080601f016020809104026020016040519081016040528093929190818152602001838380828437600081840152601f19601f820116905080830192505050505050509192919290505050611ef6565b005b6105866004803603602081101561057057600080fd5b810190808035906020019092919050505061221f565b60405180868152602001858152602001806020018060200180602001848103845287818151815260200191508051906020019060200280838360005b838110156105dd5780820151818401526020810190506105c2565b50505050905001848103835286818151815260200191508051906020019060200280838360005b8381101561061f578082015181840152602081019050610604565b50505050905001848103825285818151815260200191508051906020019060200280838360005b83811015610661578082015181840152602081019050610646565b505050509050019850505050505050505060405180910390f35b6106bd6004803603602081101561069157600080fd5b81019080803573ffffffffffffffffffffffffffffffffffffffff1690602001909291905050506123d6565b005b60006106c961245c565b905090565b6106d66106bf565b73ffffffffffffffffffffffffffffffffffffffff163373ffffffffffffffffffffffffffffffffffffffff1614610776576040517f08c379a00000000000000000000000000000000000000000000000000000000081526004018080602001828103825260138152602001807f4d75737420757365204c494e4b20746f6b656e0000000000000000000000000081525060200191505060405180910390fd5b8561077f61245c565b73ffffffffffffffffffffffffffffffffffffffff168173ffffffffffffffffffffffffffffffffffffffff161415610820576040517f08c379a00000000000000000000000000000000000000000000000000000000081526004018080602001828103825260178152602001807f43616e6e6f742063616c6c6261636b20746f204c494e4b00000000000000000081525060200191505060405180910390fd5b6000600860008a8152602001908152602001600020600001549050808a10156108b1576040517f08c379a00000000000000000000000000000000000000000000000000000000081526004018080602001828103825260148152602001807f496e73756666696369656e74207061796d656e7400000000000000000000000081525060200191505060405180910390fd5b60008b87604051602001808373ffffffffffffffffffffffffffffffffffffffff1673ffffffffffffffffffffffffffffffffffffffff1660601b815260140182815260200192505050604051602081830303815290604052805190602001209050600073ffffffffffffffffffffffffffffffffffffffff16600a600083815260200190815260200160002060000160049054906101000a900473ffffffffffffffffffffffffffffffffffffffff1673ffffffffffffffffffffffffffffffffffffffff16146109eb576040517f08c379a00000000000000000000000000000000000000000000000000000000081526004018080602001828103825260148152602001807f4e6f6e636520616c726561647920696e2d75736500000000000000000000000081525060200191505060405180910390fd5b87600a600083815260200190815260200160002060000160006101000a81548163ffffffff021916908360e01c021790555088600a600083815260200190815260200160002060010160006101000a81548173ffffffffffffffffffffffffffffffffffffffff021916908373ffffffffffffffffffffffffffffffffffffffff1602179055508b600a600083815260200190815260200160002060000160046101000a81548173ffffffffffffffffffffffffffffffffffffffff021916908373ffffffffffffffffffffffffffffffffffffffff160217905550610b168a8287878080601f016020809104026020016040519081016040528093929190818152602001838380828437600081840152601f19601f82011690508083019250505050505050612486565b818b1115610c0c576000610b33838d61279390919063ffffffff16565b90506000610b3f61245c565b90508073ffffffffffffffffffffffffffffffffffffffff1663a9059cbb8f846040518363ffffffff1660e01b8152600401808373ffffffffffffffffffffffffffffffffffffffff1673ffffffffffffffffffffffffffffffffffffffff16815260200182815260200192505050602060405180830381600087803b158015610bc857600080fd5b505af1158015610bdc573d6000803e3d6000fd5b505050506040513d6020811015610bf257600080fd5b8101908080519060200190929190505050610c0957fe5b50505b505050505050505050505050565b6000826005600082815260200190815260200160002060009054906101000a900473ffffffffffffffffffffffffffffffffffffffff1673ffffffffffffffffffffffffffffffffffffffff163373ffffffffffffffffffffffffffffffffffffffff1614610cd4576040517f08c379a00000000000000000000000000000000000000000000000000000000081526004018080602001828103825260288152602001806140946028913960400191505060405180910390fd5b6005600082815260200190815260200160002060006101000a81549073ffffffffffffffffffffffffffffffffffffffff0219169055807f7cc135e0cebb02c3480ae5d74d377283180a2601f8f644edf7987b009316c63a60405160405180910390a2610d3f613d09565b60086000600960008881526020019081526020016000205481526020019081526020016000206040518060a0016040529081600082015481526020016001820154815260200160028201805480602002602001604051908101604052809291908181526020018280548015610e0957602002820191906000526020600020905b8160009054906101000a900473ffffffffffffffffffffffffffffffffffffffff1673ffffffffffffffffffffffffffffffffffffffff1681526020019060010190808311610dbf575b5050505050815260200160038201805480602002602001604051908101604052809291908181526020018280548015610e6157602002820191906000526020600020905b815481526020019060010190808311610e4d575b5050505050815260200160048201805480602002602001604051908101604052809291908181526020018280548015610eb957602002820191906000526020600020905b815481526020019060010190808311610ea5575b50505050508152505090506000600b6000878152602001908152602001600020549050600060096000888152602001908152602001600020549050600b60008881526020019081526020016000206000905560096000888152602001908152602001600020600090553373ffffffffffffffffffffffffffffffffffffffff1682827f6bd4bffa5426494ba16814dba4b1994c92f88f7664ad231cf8aa811fff6e925e896040518082815260200191505060405180910390a4600a6000838152602001908152602001600020600201869080600181540180825580915050600190039060005260206000200160009091909190915055610fb7613d38565b600a60008481526020019081526020016000206040518060800160405290816000820160009054906101000a900460e01b7bffffffffffffffffffffffffffffffffffffffffffffffffffffffff19167bffffffffffffffffffffffffffffffffffffffffffffffffffffffff191681526020016000820160049054906101000a900473ffffffffffffffffffffffffffffffffffffffff1673ffffffffffffffffffffffffffffffffffffffff1673ffffffffffffffffffffffffffffffffffffffff1681526020016001820160009054906101000a900473ffffffffffffffffffffffffffffffffffffffff1673ffffffffffffffffffffffffffffffffffffffff1673ffffffffffffffffffffffffffffffffffffffff1681526020016002820180548060200260200160405190810160405280929190818152602001828054801561112557602002820191906000526020600020905b815481526020019060010190808311611111575b505050505081525050905083604001515181606001515114156111ce57600a6000848152602001908152602001600020600080820160006101000a81549063ffffffff02191690556000820160046101000a81549073ffffffffffffffffffffffffffffffffffffffff02191690556001820160006101000a81549073ffffffffffffffffffffffffffffffffffffffff02191690556002820160006111cb9190613dab565b50505b600060019050846020015182606001515114156113675760006111f4836060015161281c565b905084847fe991444bc589ce1a82e7cbe4e5ebaa8aaa2a5c44964bd32d2af07dd846a638ba836040518082815260200191505060405180910390a3826040015173ffffffffffffffffffffffffffffffffffffffff16836000015186836040516024018083815260200182815260200192505050604051602081830303815290604052907bffffffffffffffffffffffffffffffffffffffffffffffffffffffff19166020820180517bffffffffffffffffffffffffffffffffffffffffffffffffffffffff83818316178352505050506040518082805190602001908083835b602083106112f857805182526020820191506020810190506020830392506112d5565b6001836020036101000a0380198251168184511680821785525050505050509050019150506000604051808303816000865af19150503d806000811461135a576040519150601f19603f3d011682016040523d82523d6000602084013e61135f565b606091505b505080925050505b80965050505050505092915050565b6000600b6000868152602001908152602001600020549050600b60008681526020019081526020016000206000905560096000868152602001908152602001600020600090556113c4613d38565b600a60008381526020019081526020016000206040518060800160405290816000820160009054906101000a900460e01b7bffffffffffffffffffffffffffffffffffffffffffffffffffffffff19167bffffffffffffffffffffffffffffffffffffffffffffffffffffffff191681526020016000820160049054906101000a900473ffffffffffffffffffffffffffffffffffffffff1673ffffffffffffffffffffffffffffffffffffffff1673ffffffffffffffffffffffffffffffffffffffff1681526020016001820160009054906101000a900473ffffffffffffffffffffffffffffffffffffffff1673ffffffffffffffffffffffffffffffffffffffff1673ffffffffffffffffffffffffffffffffffffffff1681526020016002820180548060200260200160405190810160405280929190818152602001828054801561153257602002820191906000526020600020905b81548152602001906001019080831161151e575b50505050508152505090503373ffffffffffffffffffffffffffffffffffffffff16816020015173ffffffffffffffffffffffffffffffffffffffff16146115e2576040517f08c379a00000000000000000000000000000000000000000000000000000000081526004018080602001828103825260198152602001807f4f6e6c79207265717565737465722063616e2063616e63656c0000000000000081525060200191505060405180910390fd5b600a6000838152602001908152602001600020600080820160006101000a81549063ffffffff02191690556000820160046101000a81549073ffffffffffffffffffffffffffffffffffffffff02191690556001820160006101000a81549073ffffffffffffffffffffffffffffffffffffffff021916905560028201600061166b9190613dab565b505061167986868686612836565b600061168361245c565b90508073ffffffffffffffffffffffffffffffffffffffff1663a9059cbb8360200151886040518363ffffffff1660e01b8152600401808373ffffffffffffffffffffffffffffffffffffffff1673ffffffffffffffffffffffffffffffffffffffff16815260200182815260200192505050602060405180830381600087803b15801561171057600080fd5b505af1158015611724573d6000803e3d6000fd5b505050506040513d602081101561173a57600080fd5b81019080805190602001909291905050506117bd576040517f08c379a00000000000000000000000000000000000000000000000000000000081526004018080602001828103825260128152602001807f556e61626c6520746f207472616e73666572000000000000000000000000000081525060200191505060405180910390fd5b50505050505050565b600080881161183d576040517f08c379a00000000000000000000000000000000000000000000000000000000081526004018080602001828103825260198152602001807f4d696e20726573706f6e736573206d757374206265203e20300000000000000081525060200191505060405180910390fd5b848490508787905014801561185757508282905087879050145b6118c9576040517f08c379a000000000000000000000000000000000000000000000000000000000815260040180806020018281038252600c8152602001807f556e6d6574206c656e677468000000000000000000000000000000000000000081525060200191505060405180910390fd5b602d878790501115611943576040517f08c379a00000000000000000000000000000000000000000000000000000000081526004018080602001828103825260208152602001807f43616e6e6f742068617665206d6f7265207468616e203435206f7261636c657381525060200191505060405180910390fd5b878787905010156119bc576040517f08c379a00000000000000000000000000000000000000000000000000000000081526004018080602001828103825260158152602001807f496e76616c6964206d696e20726573706f6e736573000000000000000000000081525060200191505060405180910390fd5b600080600090505b84849050811015611a03576119f48585838181106119de57fe5b905060200201358361299990919063ffffffff16565b915080806001019150506119c4565b506007544260405160200180838152602001828152602001925050506040516020818303038152906040528051906020012091506007600081548092919060010191905055506040518060a001604052808281526020018a8152602001898980806020026020016040519081016040528093929190818152602001838360200280828437600081840152601f19601f820116905080830192505050505050508152602001878780806020026020016040519081016040528093929190818152602001838360200280828437600081840152601f19601f820116905080830192505050505050508152602001858580806020026020016040519081016040528093929190818152602001838360200280828437600081840152601f19601f820116905080830192505050505050508152506008600084815260200190815260200160002060008201518160000155602082015181600101556040820151816002019080519060200190611b76929190613dcc565b506060820151816003019080519060200190611b93929190613e56565b506080820151816004019080519060200190611bb0929190613ea3565b50905050817f1df950b8dca286fff2ebb83642851b5a9db00ff4bc87815828e845b45d183eaf828b604051808381526020018281526020019250505060405180910390a250979650505050505050565b6000600660009054906101000a900473ffffffffffffffffffffffffffffffffffffffff16905090565b611c32611e9e565b611ca4576040517f08c379a00000000000000000000000000000000000000000000000000000000081526004018080602001828103825260208152602001807f4f776e61626c653a2063616c6c6572206973206e6f7420746865206f776e657281525060200191505060405180910390fd5b6000611cae61245c565b90508073ffffffffffffffffffffffffffffffffffffffff1663a9059cbb338373ffffffffffffffffffffffffffffffffffffffff166370a08231306040518263ffffffff1660e01b8152600401808273ffffffffffffffffffffffffffffffffffffffff1673ffffffffffffffffffffffffffffffffffffffff16815260200191505060206040518083038186803b158015611d4a57600080fd5b505afa158015611d5e573d6000803e3d6000fd5b505050506040513d6020811015611d7457600080fd5b81019080805190602001909291905050506040518363ffffffff1660e01b8152600401808373ffffffffffffffffffffffffffffffffffffffff1673ffffffffffffffffffffffffffffffffffffffff16815260200182815260200192505050602060405180830381600087803b158015611dee57600080fd5b505af1158015611e02573d6000803e3d6000fd5b505050506040513d6020811015611e1857600080fd5b8101908080519060200190929190505050611e9b576040517f08c379a00000000000000000000000000000000000000000000000000000000081526004018080602001828103825260128152602001807f556e61626c6520746f207472616e73666572000000000000000000000000000081525060200191505060405180910390fd5b50565b6000600660009054906101000a900473ffffffffffffffffffffffffffffffffffffffff1673ffffffffffffffffffffffffffffffffffffffff163373ffffffffffffffffffffffffffffffffffffffff1614905090565b611efe6106bf565b73ffffffffffffffffffffffffffffffffffffffff163373ffffffffffffffffffffffffffffffffffffffff1614611f9e576040517f08c379a00000000000000000000000000000000000000000000000000000000081526004018080602001828103825260138152602001807f4d75737420757365204c494e4b20746f6b656e0000000000000000000000000081525060200191505060405180910390fd5b8060026020026004018151101561201d576040517f08c379a00000000000000000000000000000000000000000000000000000000081526004018080602001828103825260168152602001807f496e76616c69642072657175657374206c656e6774680000000000000000000081525060200191505060405180910390fd5b81600060208201519050634042994660e01b7bffffffffffffffffffffffffffffffffffffffffffffffffffffffff1916817bffffffffffffffffffffffffffffffffffffffffffffffffffffffff1916146120e1576040517f08c379a000000000000000000000000000000000000000000000000000000000815260040180806020018281038252601e8152602001807f4d757374207573652077686974656c69737465642066756e6374696f6e73000081525060200191505060405180910390fd5b85602485015284604485015260003073ffffffffffffffffffffffffffffffffffffffff16856040518082805190602001908083835b6020831061213a5780518252602082019150602081019050602083039250612117565b6001836020036101000a038019825116818451168082178552505050505050905001915050600060405180830381855af49150503d806000811461219a576040519150601f19603f3d011682016040523d82523d6000602084013e61219f565b606091505b5050905080612216576040517f08c379a00000000000000000000000000000000000000000000000000000000081526004018080602001828103825260188152602001807f556e61626c6520746f206372656174652072657175657374000000000000000081525060200191505060405180910390fd5b50505050505050565b60008060608060606008600087815260200190815260200160002060000154600860008881526020019081526020016000206001015460086000898152602001908152602001600020600201600860008a8152602001908152602001600020600301600860008b81526020019081526020016000206004018280548060200260200160405190810160405280929190818152602001828054801561231857602002820191906000526020600020905b8160009054906101000a900473ffffffffffffffffffffffffffffffffffffffff1673ffffffffffffffffffffffffffffffffffffffff16815260200190600101908083116122ce575b505050505092508180548060200260200160405190810160405280929190818152602001828054801561236a57602002820191906000526020600020905b815481526020019060010190808311612356575b50505050509150808054806020026020016040519081016040528092919081815260200182805480156123bc57602002820191906000526020600020905b8154815260200190600101908083116123a8575b505050505090509450945094509450945091939590929450565b6123de611e9e565b612450576040517f08c379a00000000000000000000000000000000000000000000000000000000081526004018080602001828103825260208152602001807f4f776e61626c653a2063616c6c6572206973206e6f7420746865206f776e657281525060200191505060405180910390fd5b61245981612a21565b50565b6000600260009054906101000a900473ffffffffffffffffffffffffffffffffffffffff16905090565b61248e613d09565b600860008581526020019081526020016000206040518060a001604052908160008201548152602001600182015481526020016002820180548060200260200160405190810160405280929190818152602001828054801561254557602002820191906000526020600020905b8160009054906101000a900473ffffffffffffffffffffffffffffffffffffffff1673ffffffffffffffffffffffffffffffffffffffff16815260200190600101908083116124fb575b505050505081526020016003820180548060200260200160405190810160405280929190818152602001828054801561259d57602002820191906000526020600020905b815481526020019060010190808311612589575b50505050508152602001600482018054806020026020016040519081016040528092919081815260200182805480156125f557602002820191906000526020600020905b8154815260200190600101908083116125e1575b5050505050815250509050600081602001511161267a576040517f08c379a00000000000000000000000000000000000000000000000000000000081526004018080602001828103825260198152602001807f496e76616c696420736572766963652061677265656d656e740000000000000081525060200191505060405180910390fd5b612682613ef0565b600084867f0d3e7811af83862cbc3778c66d787596cdb580e0dbc448d99f21c865770a843285600001516040518082815260200191505060405180910390a360008090505b83604001515181101561278a576126fd846060015182815181106126e757fe5b602002602001015130636a9705b460e01b612b67565b92506127128584612b9890919063ffffffff16565b61274b8460400151828151811061272557fe5b6020026020010151848660800151848151811061273e57fe5b6020026020010151612bbb565b915085600b60008481526020019081526020016000208190555086600960008481526020019081526020016000208190555080806001019150506126c7565b50505050505050565b60008282111561280b576040517f08c379a000000000000000000000000000000000000000000000000000000000815260040180806020018281038252601e8152602001807f536166654d6174683a207375627472616374696f6e206f766572666c6f77000081525060200191505060405180910390fd5b600082840390508091505092915050565b600061282f61282a83612e73565b612f12565b9050919050565b60006005600086815260200190815260200160002060009054906101000a900473ffffffffffffffffffffffffffffffffffffffff1690506005600086815260200190815260200160002060006101000a81549073ffffffffffffffffffffffffffffffffffffffff0219169055847fe1fe3afa0f7f761ff0a8b89086790efd5140d2907ebd5b7ff6bfcb5e075fd4c560405160405180910390a28073ffffffffffffffffffffffffffffffffffffffff16636ee4d553868686866040518563ffffffff1660e01b815260040180858152602001848152602001837bffffffffffffffffffffffffffffffffffffffffffffffffffffffff19167bffffffffffffffffffffffffffffffffffffffffffffffffffffffff19168152602001828152602001945050505050600060405180830381600087803b15801561297a57600080fd5b505af115801561298e573d6000803e3d6000fd5b505050505050505050565b600080828401905083811015612a17576040517f08c379a000000000000000000000000000000000000000000000000000000000815260040180806020018281038252601b8152602001807f536166654d6174683a206164646974696f6e206f766572666c6f77000000000081525060200191505060405180910390fd5b8091505092915050565b600073ffffffffffffffffffffffffffffffffffffffff168173ffffffffffffffffffffffffffffffffffffffff161415612aa7576040517f08c379a000000000000000000000000000000000000000000000000000000000815260040180806020018281038252602681526020018061402a6026913960400191505060405180910390fd5b8073ffffffffffffffffffffffffffffffffffffffff16600660009054906101000a900473ffffffffffffffffffffffffffffffffffffffff1673ffffffffffffffffffffffffffffffffffffffff167f8be0079c531659141344cd1fd0a4f28419497f9722a3daafe3b4186f6b6457e060405160405180910390a380600660006101000a81548173ffffffffffffffffffffffffffffffffffffffff021916908373ffffffffffffffffffffffffffffffffffffffff16021790555050565b612b6f613ef0565b612b77613ef0565b612b8e85858584613001909392919063ffffffff16565b9150509392505050565b612ba7826080015182516130b1565b50612bb6826080015182613105565b505050565b600030600454604051602001808373ffffffffffffffffffffffffffffffffffffffff1673ffffffffffffffffffffffffffffffffffffffff1660601b815260140182815260200192505050604051602081830303815290604052805190602001209050600454836060018181525050836005600083815260200190815260200160002060006101000a81548173ffffffffffffffffffffffffffffffffffffffff021916908373ffffffffffffffffffffffffffffffffffffffff160217905550807fb5e6e01e79f91267dc17b4e6314d5d4d03593d2ceee0fbb452b750bd70ea5af960405160405180910390a2600260009054906101000a900473ffffffffffffffffffffffffffffffffffffffff1673ffffffffffffffffffffffffffffffffffffffff16634000aea08584612cf387613127565b6040518463ffffffff1660e01b8152600401808473ffffffffffffffffffffffffffffffffffffffff1673ffffffffffffffffffffffffffffffffffffffff16815260200183815260200180602001828103825283818151815260200191508051906020019080838360005b83811015612d7a578082015181840152602081019050612d5f565b50505050905090810190601f168015612da75780820380516001836020036101000a031916815260200191505b50945050505050602060405180830381600087803b158015612dc857600080fd5b505af1158015612ddc573d6000803e3d6000fd5b505050506040513d6020811015612df257600080fd5b8101908080519060200190929190505050612e58576040517f08c379a00000000000000000000000000000000000000000000000000000000081526004018080602001828103825260238152602001806140506023913960400191505060405180910390fd5b60016004600082825401925050819055508090509392505050565b606080825167ffffffffffffffff81118015612e8e57600080fd5b50604051908082528060200260200182016040528015612ebd5781602001602082028036833780820191505090505b50905060008090505b8351811015612f0857838181518110612edb57fe5b6020026020010151828281518110612eef57fe5b6020026020010181815250508080600101915050612ec6565b5080915050919050565b60008151600010612f8b576040517f08c379a00000000000000000000000000000000000000000000000000000000081526004018080602001828103825260168152602001807f6c697374206d757374206e6f7420626520656d7074790000000000000000000081525060200191505060405180910390fd5b600082519050600060028281612f9d57fe5b049050600060028381612fac57fe5b061415612fe757600080612fca8660006001870360018703876132f3565b8092508193505050612fdc82826133e0565b945050505050612ffc565b612ff7846000600185038461347d565b925050505b919050565b613009613ef0565b61301985608001516101006130b1565b508385600001818152505082856020019073ffffffffffffffffffffffffffffffffffffffff16908173ffffffffffffffffffffffffffffffffffffffff16815250508185604001907bffffffffffffffffffffffffffffffffffffffffffffffffffffffff191690817bffffffffffffffffffffffffffffffffffffffffffffffffffffffff191681525050849050949350505050565b6130b9613f5d565b6000602083816130c557fe5b06146130de57602082816130d557fe5b06602003820191505b81836020018181525050604051808452600081528281016020016040525082905092915050565b61310d613f5d565b61311f83846000015151848551613517565b905092915050565b6060634042994660e01b60008084600001518560200151866040015187606001516001896080015160000151604051602401808973ffffffffffffffffffffffffffffffffffffffff1673ffffffffffffffffffffffffffffffffffffffff1681526020018881526020018781526020018673ffffffffffffffffffffffffffffffffffffffff1673ffffffffffffffffffffffffffffffffffffffff168152602001857bffffffffffffffffffffffffffffffffffffffffffffffffffffffff19167bffffffffffffffffffffffffffffffffffffffffffffffffffffffff1916815260200184815260200183815260200180602001828103825283818151815260200191508051906020019080838360005b8381101561325657808201518184015260208101905061323b565b50505050905090810190601f1680156132835780820380516001836020036101000a031916815260200191505b509950505050505050505050604051602081830303815290604052907bffffffffffffffffffffffffffffffffffffffffffffffffffffffff19166020820180517bffffffffffffffffffffffffffffffffffffffffffffffffffffffff83818316178352505050509050919050565b60008082841061330257600080fd5b8386111580156133125750848411155b61331b57600080fd5b82861115801561332b5750848311155b61333457600080fd5b5b6001156133d5576007868603101561335d5761335487878787876135d0565b915091506133d6565b600061336a888888613b44565b905080841161337b578095506133cf565b8481101561338e576001810196506133ce565b80851115801561339d57508381105b6133a357fe5b6133af8888838861347d565b92506133c08860018301888761347d565b9150828292509250506133d6565b5b50613335565b5b9550959350505050565b600080831280156133f15750600082135b8061340857506000831380156134075750600082125b5b156134285760026134198484613c3b565b8161342057fe5b059050613477565b6000600280848161343557fe5b076002868161344057fe5b07018161344957fe5b05905061347361346d6002868161345c57fe5b056002868161346757fe5b05613c3b565b82613c3b565b9150505b92915050565b60008184111561348c57600080fd5b8282111561349957600080fd5b5b828410156134f857600784840310156134cd5760006134bc86868686876135d0565b80925081935050508191505061350f565b60006134da868686613b44565b90508083116134eb578093506134f2565b6001810194505b5061349a565b84848151811061350457fe5b602002602001015190505b949350505050565b61351f613f5d565b825182111561352d57600080fd5b84602001518285011115613558576135578560026135518860200151888701613cc9565b02613ce5565b5b6000808651805187602083010193508088870111156135775787860182525b60208701925050505b602084106135a35780518252602082019150602081019050602084039350613580565b60006001856020036101000a03905080198251168184511681811785525050879350505050949350505050565b6000806000866001870103905060008860008901815181106135ee57fe5b60200260200101519050600082600110613628577f7fffffffffffffffffffffffffffffffffffffffffffffffffffffffffffffff613640565b8960018a018151811061363757fe5b60200260200101515b9050600083600210613672577f7fffffffffffffffffffffffffffffffffffffffffffffffffffffffffffffff61368a565b8a60028b018151811061368157fe5b60200260200101515b90506000846003106136bc577f7fffffffffffffffffffffffffffffffffffffffffffffffffffffffffffffff6136d4565b8b60038c01815181106136cb57fe5b60200260200101515b9050600085600410613706577f7fffffffffffffffffffffffffffffffffffffffffffffffffffffffffffffff61371e565b8c60048d018151811061371557fe5b60200260200101515b9050600086600510613750577f7fffffffffffffffffffffffffffffffffffffffffffffffffffffffffffffff613768565b8d60058e018151811061375f57fe5b60200260200101515b905060008760061061379a577f7fffffffffffffffffffffffffffffffffffffffffffffffffffffffffffffff6137b2565b8e60068f01815181106137a957fe5b60200260200101515b9050858713156137c757858780975081985050505b838513156137da57838580955081965050505b818313156137ed57818380935081945050505b8487131561380057848780965081985050505b8386131561381357838680955081975050505b8083131561382657808380925081945050505b8486131561383957848680965081975050505b8082131561384c57808280925081935050505b8287131561385f57828780945081985050505b8186131561387257818680935081975050505b8085131561388557808580925081965050505b8286131561389857828680945081975050505b808413156138ab57808480925081955050505b828513156138be57828580945081965050505b818413156138d157818480935081955050505b828413156138e457828480945081955050505b60008e8d03905060008114156138fc57879a506139d6565b600181141561390d57869a506139d5565b600281141561391e57859a506139d4565b600381141561392f57849a506139d3565b600481141561394057839a506139d2565b600581141561395157829a506139d1565b600681141561396257819a506139d0565b6040517f08c379a00000000000000000000000000000000000000000000000000000000081526004018080602001828103825260108152602001807f6b31206f7574206f6620626f756e64730000000000000000000000000000000081525060200191505060405180910390fd5b5b5b5b5b5b5b60008f8d0390508c8e14156139fa578b8c9b509b5050505050505050505050613b3a565b6000811415613a18578b899b509b5050505050505050505050613b3a565b6001811415613a36578b889b509b5050505050505050505050613b3a565b6002811415613a54578b879b509b5050505050505050505050613b3a565b6003811415613a72578b869b509b5050505050505050505050613b3a565b6004811415613a90578b859b509b5050505050505050505050613b3a565b6005811415613aae578b849b509b5050505050505050505050613b3a565b6006811415613acc578b839b509b5050505050505050505050613b3a565b6040517f08c379a00000000000000000000000000000000000000000000000000000000081526004018080602001828103825260108152602001807f6b32206f7574206f6620626f756e64730000000000000000000000000000000081525060200191505060405180910390fd5b9550959350505050565b60008084600284860181613b5457fe5b0481518110613b5f57fe5b602002602001015190506001840393506001830192505b600115613c32575b60018401935080858581518110613b9157fe5b602002602001015112613b7e575b60018303925080858481518110613bb257fe5b602002602001015113613b9f5782841015613c2457848381518110613bd357fe5b6020026020010151858581518110613be757fe5b6020026020010151868681518110613bfb57fe5b60200260200101878681518110613c0e57fe5b6020026020010182815250828152505050613c2d565b82915050613c34565b613b76565b505b9392505050565b600080828401905060008312158015613c545750838112155b80613c6a5750600083128015613c6957508381125b5b613cbf576040517f08c379a00000000000000000000000000000000000000000000000000000000081526004018080602001828103825260218152602001806140736021913960400191505060405180910390fd5b8091505092915050565b600081831115613cdb57829050613cdf565b8190505b92915050565b606082600001519050613cf883836130b1565b50613d038382613105565b50505050565b6040518060a0016040528060008152602001600081526020016060815260200160608152602001606081525090565b604051806080016040528060007bffffffffffffffffffffffffffffffffffffffffffffffffffffffff19168152602001600073ffffffffffffffffffffffffffffffffffffffff168152602001600073ffffffffffffffffffffffffffffffffffffffff168152602001606081525090565b5080546000825590600052602060002090810190613dc99190613f77565b50565b828054828255906000526020600020908101928215613e45579160200282015b82811115613e445782518260006101000a81548173ffffffffffffffffffffffffffffffffffffffff021916908373ffffffffffffffffffffffffffffffffffffffff16021790555091602001919060010190613dec565b5b509050613e529190613f9c565b5090565b828054828255906000526020600020908101928215613e92579160200282015b82811115613e91578251825591602001919060010190613e76565b5b509050613e9f9190613fdf565b5090565b828054828255906000526020600020908101928215613edf579160200282015b82811115613ede578251825591602001919060010190613ec3565b5b509050613eec9190614004565b5090565b6040518060a0016040528060008019168152602001600073ffffffffffffffffffffffffffffffffffffffff16815260200160007bffffffffffffffffffffffffffffffffffffffffffffffffffffffff1916815260200160008152602001613f57613f5d565b81525090565b604051806040016040528060608152602001600081525090565b613f9991905b80821115613f95576000816000905550600101613f7d565b5090565b90565b613fdc91905b80821115613fd857600081816101000a81549073ffffffffffffffffffffffffffffffffffffffff021916905550600101613fa2565b5090565b90565b61400191905b80821115613ffd576000816000905550600101613fe5565b5090565b90565b61402691905b8082111561402257600081600090555060010161400a565b5090565b9056fe4f776e61626c653a206e6577206f776e657220697320746865207a65726f2061646472657373756e61626c6520746f207472616e73666572416e6443616c6c20746f206f7261636c655369676e6564536166654d6174683a206164646974696f6e206f766572666c6f77536f75726365206d75737420626520746865206f7261636c65206f66207468652072657175657374a2646970667358221220362c9ad1b73bfaf93a74c5a8a41f03b63573073c547074d9245b8718cbcadd8564736f6c63430006060033",
  "compiler": {
    "name": "solc",
    "version": "0.6.6+commit.6c089d02.Emscripten.clang",
    "optimizer": {
      "enabled": false,
      "runs": 200
    },
    "evmVersion": "petersburg"
  }
}