{
  "fileName": "VRFConsumer.sol",
  "contractName": "VRFConsumer",
  "source": "pragma solidity 0.6.6;\n\nimport \"../interfaces/LinkTokenInterface.sol\";\nimport \"../VRFCoordinator.sol\";\nimport \"../VRFConsumerBase.sol\";\n\ncontract VRFConsumer is VRFConsumerBase {\n\n  uint256 public randomnessOutput;\n  bytes32 public requestId;\n\n  constructor(address _vrfCoordinator, address _link) public\n    // solhint-disable-next-line no-empty-blocks\n    VRFConsumerBase(_vrfCoordinator, _link) { /* empty */ }\n\n  function fulfillRandomness(bytes32 _requestId, uint256 _randomness)\n    internal override\n  {\n    randomnessOutput = _randomness;\n    requestId = _requestId;\n  }\n}\n",
  "sourcePath": "contracts/chainlink_contracts/chainlink/tests/VRFConsumer.sol",
  "abi": [
    {
      "inputs": [
        {
          "internalType": "address",
          "name": "_vrfCoordinator",
          "type": "address"
        },
        {
          "internalType": "address",
          "name": "_link",
          "type": "address"
        }
      ],
      "stateMutability": "nonpayable",
      "type": "constructor"
    },
    {
      "inputs": [
        {
          "internalType": "bytes32",
          "name": "",
          "type": "bytes32"
        }
      ],
      "name": "nonces",
      "outputs": [
        {
          "internalType": "uint256",
          "name": "",
          "type": "uint256"
        }
      ],
      "stateMutability": "view",
      "type": "function"
    },
    {
      "inputs": [],
      "name": "randomnessOutput",
      "outputs": [
        {
          "internalType": "uint256",
          "name": "",
          "type": "uint256"
        }
      ],
      "stateMutability": "view",
      "type": "function"
    },
    {
      "inputs": [
        {
          "internalType": "bytes32",
          "name": "requestId",
          "type": "bytes32"
        },
        {
          "internalType": "uint256",
          "name": "randomness",
          "type": "uint256"
        }
      ],
      "name": "rawFulfillRandomness",
      "outputs": [],
      "stateMutability": "nonpayable",
      "type": "function"
    },
    {
      "inputs": [],
      "name": "requestId",
      "outputs": [
        {
          "internalType": "bytes32",
          "name": "",
          "type": "bytes32"
        }
      ],
      "stateMutability": "view",
      "type": "function"
    },
    {
      "inputs": [
        {
          "internalType": "bytes32",
          "name": "_keyHash",
          "type": "bytes32"
        },
        {
          "internalType": "uint256",
          "name": "_fee",
          "type": "uint256"
        },
        {
          "internalType": "uint256",
          "name": "_seed",
          "type": "uint256"
        }
      ],
      "name": "requestRandomness",
      "outputs": [
        {
          "internalType": "bytes32",
          "name": "requestId",
          "type": "bytes32"
        }
      ],
      "stateMutability": "nonpayable",
      "type": "function"
    }
  ],
  "bytecode": "0x60c060405234801561001057600080fd5b506040516106d83803806106d88339818101604052604081101561003357600080fd5b81019080805190602001909291908051906020019092919050505081818173ffffffffffffffffffffffffffffffffffffffff1660a08173ffffffffffffffffffffffffffffffffffffffff1660601b815250508073ffffffffffffffffffffffffffffffffffffffff1660808173ffffffffffffffffffffffffffffffffffffffff1660601b815250505050505060805160601c60a05160601c6105e86100f060003980610175528061029a52508061025e52506105e86000f3fe608060405234801561001057600080fd5b50600436106100565760003560e01c80626d6cae1461005b5780632f47fd861461007957806394985ddd146100975780639e317f12146100cf578063dc6cfe1014610111575b600080fd5b610063610167565b6040518082815260200191505060405180910390f35b61008161016d565b6040518082815260200191505060405180910390f35b6100cd600480360360408110156100ad57600080fd5b810190808035906020019092919080359060200190929190505050610173565b005b6100fb600480360360208110156100e557600080fd5b8101908080359060200190929190505050610242565b6040518082815260200191505060405180910390f35b6101516004803603606081101561012757600080fd5b8101908080359060200190929190803590602001909291908035906020019092919050505061025a565b6040518082815260200191505060405180910390f35b60025481565b60015481565b7f000000000000000000000000000000000000000000000000000000000000000073ffffffffffffffffffffffffffffffffffffffff163373ffffffffffffffffffffffffffffffffffffffff1614610234576040517f08c379a000000000000000000000000000000000000000000000000000000000815260040180806020018281038252601f8152602001807f4f6e6c7920565246436f6f7264696e61746f722063616e2066756c66696c6c0081525060200191505060405180910390fd5b61023e8282610465565b5050565b60006020528060005260406000206000915090505481565b60007f000000000000000000000000000000000000000000000000000000000000000073ffffffffffffffffffffffffffffffffffffffff16634000aea07f000000000000000000000000000000000000000000000000000000000000000085878660405160200180838152602001828152602001925050506040516020818303038152906040526040518463ffffffff1660e01b8152600401808473ffffffffffffffffffffffffffffffffffffffff1673ffffffffffffffffffffffffffffffffffffffff16815260200183815260200180602001828103825283818151815260200191508051906020019080838360005b8381101561036957808201518184015260208101905061034e565b50505050905090810190601f1680156103965780820380516001836020036101000a031916815260200191505b50945050505050602060405180830381600087803b1580156103b757600080fd5b505af11580156103cb573d6000803e3d6000fd5b505050506040513d60208110156103e157600080fd5b81019080805190602001909291905050505060006104138584306000808a815260200190815260200160002054610477565b905061043b6001600080888152602001908152602001600020546104f190919063ffffffff16565b6000808781526020019081526020016000208190555061045b8582610579565b9150509392505050565b80600181905550816002819055505050565b600084848484604051602001808581526020018481526020018373ffffffffffffffffffffffffffffffffffffffff1673ffffffffffffffffffffffffffffffffffffffff1681526020018281526020019450505050506040516020818303038152906040528051906020012060001c9050949350505050565b60008082840190508381101561056f576040517f08c379a000000000000000000000000000000000000000000000000000000000815260040180806020018281038252601b8152602001807f536166654d6174683a206164646974696f6e206f766572666c6f77000000000081525060200191505060405180910390fd5b8091505092915050565b6000828260405160200180838152602001828152602001925050506040516020818303038152906040528051906020012090509291505056fea26469706673582212206413f3b97583708c11c1bfad60debcd0aca56c09b337b2fd4049c27be0059a8264736f6c63430006060033",
  "compiler": {
    "name": "solc",
    "version": "0.6.6+commit.6c089d02.Emscripten.clang",
    "optimizer": {
      "enabled": false,
      "runs": 200
    },
    "evmVersion": "petersburg"
  }
}