{
  "fileName": "VRFCoordinator.sol",
  "contractName": "VRFCoordinator",
  "source": "pragma solidity 0.6.6;\n\nimport \"./vendor/SafeMath.sol\";\n\nimport \"./interfaces/LinkTokenInterface.sol\";\nimport \"./interfaces/BlockHashStoreInterface.sol\";\n\nimport \"./VRF.sol\";\nimport \"./VRFRequestIDBase.sol\";\nimport \"./VRFConsumerBase.sol\";\n\n/**\n * @title VRFCoordinator coordinates on-chain verifiable-randomness requests\n * @title with off-chain responses\n */\ncontract VRFCoordinator is VRF, VRFRequestIDBase {\n\n  using SafeMath for uint256;\n\n  LinkTokenInterface internal LINK;\n  BlockHashStoreInterface internal blockHashStore;\n\n  constructor(address _link, address _blockHashStore) public {\n    LINK = LinkTokenInterface(_link);\n    blockHashStore = BlockHashStoreInterface(_blockHashStore);\n  }\n\n  struct Callback { // Tracks an ongoing request\n    address callbackContract; // Requesting contract, which will receive response\n    // Amount of LINK paid at request time. Total LINK = 1e9 * 1e18 < 2^96, so\n    // this representation is adequate, and saves a word of storage when this\n    // field follows the 160-bit callbackContract address.\n    uint96 randomnessFee;\n    // Commitment to seed passed to oracle by this contract, and the number of\n    // the block in which the request appeared. This is the keccak256 of the\n    // concatenation of those values. Storing this commitment saves a word of\n    // storage.\n    bytes32 seedAndBlockNum;\n  }\n\n  struct ServiceAgreement { // Tracks oracle commitments to VRF service\n    address vRFOracle; // Oracle committing to respond with VRF service\n    uint96 fee; // Minimum payment for oracle response. Total LINK=1e9*1e18<2^96\n    bytes32 jobID; // ID of corresponding chainlink job in oracle's DB\n  }\n\n  mapping(bytes32 /* (provingKey, seed) */ => Callback) public callbacks;\n  mapping(bytes32 /* provingKey */ => ServiceAgreement)\n    public serviceAgreements;\n  mapping(address /* oracle */ => uint256 /* LINK balance */)\n    public withdrawableTokens;\n  mapping(bytes32 /* provingKey */ => mapping(address /* consumer */ => uint256))\n    private nonces;\n\n  // The oracle only needs the jobID to look up the VRF, but specifying public\n  // key as well prevents a malicious oracle from inducing VRF outputs from\n  // another oracle by reusing the jobID.\n  event RandomnessRequest(\n    bytes32 keyHash,\n    uint256 seed,\n    bytes32 indexed jobID,\n    address sender,\n    uint256 fee,\n    bytes32 requestID);\n\n  event NewServiceAgreement(bytes32 keyHash, uint256 fee);\n\n  event RandomnessRequestFulfilled(bytes32 requestId, uint256 output);\n\n  /**\n   * @notice Commits calling address to serve randomness\n   * @param _fee minimum LINK payment required to serve randomness\n   * @param _oracle the address of the Chainlink node with the proving key and job\n   * @param _publicProvingKey public key used to prove randomness\n   * @param _jobID ID of the corresponding chainlink job in the oracle's db\n   */\n  function registerProvingKey(\n    uint256 _fee, address _oracle, uint256[2] calldata _publicProvingKey, bytes32 _jobID\n  )\n    external\n  {\n    bytes32 keyHash = hashOfKey(_publicProvingKey);\n    address oldVRFOracle = serviceAgreements[keyHash].vRFOracle;\n    require(oldVRFOracle == address(0), \"please register a new key\");\n    require(_oracle != address(0), \"_oracle must not be 0x0\");\n    serviceAgreements[keyHash].vRFOracle = _oracle;\n    serviceAgreements[keyHash].jobID = _jobID;\n    // Yes, this revert message doesn't fit in a word\n    require(_fee <= 1e9 ether,\n      \"you can't charge more than all the LINK in the world, greedy\");\n    serviceAgreements[keyHash].fee = uint96(_fee);\n    emit NewServiceAgreement(keyHash, _fee);\n  }\n\n  /**\n   * @notice Called by LINK.transferAndCall, on successful LINK transfer\n   *\n   * @dev To invoke this, use the requestRandomness method in VRFConsumerBase.\n   *\n   * @dev The VRFCoordinator will call back to the calling contract when the\n   * @dev oracle responds, on the method fulfillRandomness. See\n   * @dev VRFConsumerBase.fulfilRandomness for its signature. Your consuming\n   * @dev contract should inherit from VRFConsumerBase, and implement\n   * @dev fulfilRandomness.\n   *\n   * @param _sender address: who sent the LINK (must be a contract)\n   * @param _fee amount of LINK sent\n   * @param _data abi-encoded call to randomnessRequest\n   */\n  function onTokenTransfer(address _sender, uint256 _fee, bytes memory _data)\n    public\n    onlyLINK\n  {\n    (bytes32 keyHash, uint256 seed) = abi.decode(_data, (bytes32, uint256));\n    randomnessRequest(keyHash, seed, _fee, _sender);\n  }\n\n  /**\n   * @notice creates the chainlink request for randomness\n   *\n   * @param _keyHash ID of the VRF public key against which to generate output\n   * @param _consumerSeed Input to the VRF, from which randomness is generated\n   * @param _feePaid Amount of LINK sent with request. Must exceed fee for key\n   * @param _sender Requesting contract; to be called back with VRF output\n   *\n   * @dev _consumerSeed is mixed with key hash, sender address and nonce to\n   * @dev obtain preSeed, which is passed to VRF oracle, which mixes it with the\n   * @dev hash of the block containing this request, to compute the final seed.\n   *\n   * @dev The requestId used to store the request data is constructed from the\n   * @dev preSeed and keyHash.\n   */\n  function randomnessRequest(\n    bytes32 _keyHash,\n    uint256 _consumerSeed,\n    uint256 _feePaid,\n    address _sender\n  )\n    internal\n    sufficientLINK(_feePaid, _keyHash)\n  {\n    uint256 nonce = nonces[_keyHash][_sender];\n    uint256 preSeed = makeVRFInputSeed(_keyHash, _consumerSeed, _sender, nonce);\n    bytes32 requestId = makeRequestId(_keyHash, preSeed);\n    // Cryptographically guaranteed by preSeed including an increasing nonce\n    assert(callbacks[requestId].callbackContract == address(0));\n    callbacks[requestId].callbackContract = _sender;\n    assert(_feePaid < 1e27); // Total LINK fits in uint96\n    callbacks[requestId].randomnessFee = uint96(_feePaid);\n    callbacks[requestId].seedAndBlockNum = keccak256(abi.encodePacked(\n      preSeed, block.number));\n    emit RandomnessRequest(_keyHash, preSeed, serviceAgreements[_keyHash].jobID,\n      _sender, _feePaid, requestId);\n    nonces[_keyHash][_sender] = nonces[_keyHash][_sender].add(1);\n  }\n\n  // Offsets into fulfillRandomnessRequest's _proof of various values\n  //\n  // Public key. Skips byte array's length prefix.\n  uint256 public constant PUBLIC_KEY_OFFSET = 0x20;\n  // Seed is 7th word in proof, plus word for length, (6+1)*0x20=0xe0\n  uint256 public constant PRESEED_OFFSET = 0xe0;\n\n  /**\n   * @notice Called by the chainlink node to fulfill requests\n   *\n   * @param _proof the proof of randomness. Actual random output built from this\n   *\n   * @dev The structure of _proof corresponds to vrf.MarshaledOnChainResponse,\n   * @dev in the node source code. I.e., it is a vrf.MarshaledProof with the\n   * @dev seed replaced by the preSeed, followed by the hash of the requesting\n   * @dev block.\n   */\n  function fulfillRandomnessRequest(bytes memory _proof) public {\n    (bytes32 currentKeyHash, Callback memory callback, bytes32 requestId,\n     uint256 randomness) = getRandomnessFromProof(_proof);\n\n    // Pay oracle\n    address oadd = serviceAgreements[currentKeyHash].vRFOracle;\n    withdrawableTokens[oadd] = withdrawableTokens[oadd].add(\n      callback.randomnessFee);\n\n    // Forget request. Must precede callback (prevents reentrancy)\n    delete callbacks[requestId];\n    callBackWithRandomness(requestId, randomness, callback.callbackContract);\n\n    emit RandomnessRequestFulfilled(requestId, randomness);\n  }\n\n  function callBackWithRandomness(bytes32 requestId, uint256 randomness,\n    address consumerContract) internal {\n    // Dummy variable; allows access to method selector in next line. See\n    // https://github.com/ethereum/solidity/issues/3506#issuecomment-553727797\n    VRFConsumerBase v;\n    bytes memory resp = abi.encodeWithSelector(\n      v.rawFulfillRandomness.selector, requestId, randomness);\n    // The bound b here comes from https://eips.ethereum.org/EIPS/eip-150. The\n    // actual gas available to the consuming contract will be b-floor(b/64).\n    // This is chosen to leave the consuming contract ~200k gas, after the cost\n    // of the call itself.\n    uint256 b = 206000;\n    require(gasleft() >= b, \"not enough gas for consumer\");\n    // A low-level call is necessary, here, because we don't want the consuming\n    // contract to be able to revert this execution, and thus deny the oracle\n    // payment for a valid randomness response. This also necessitates the above\n    // check on the gasleft, as otherwise there would be no indication if the\n    // callback method ran out of gas.\n    //\n    // solhint-disable-next-line avoid-low-level-calls\n    (bool success,) = consumerContract.call(resp);\n    // Avoid unused-local-variable warning. (success is only present to prevent\n    // a warning that the return value of consumerContract.call is unused.)\n    (success);\n  }\n\n  function getRandomnessFromProof(bytes memory _proof)\n    internal view returns (bytes32 currentKeyHash, Callback memory callback,\n      bytes32 requestId, uint256 randomness) {\n    // blockNum follows proof, which follows length word (only direct-number\n    // constants are allowed in assembly, so have to compute this in code)\n    uint256 BLOCKNUM_OFFSET = 0x20 + PROOF_LENGTH;\n    // _proof.length skips the initial length word, so not including the\n    // blocknum in this length check balances out.\n    require(_proof.length == BLOCKNUM_OFFSET, \"wrong proof length\");\n    uint256[2] memory publicKey;\n    uint256 preSeed;\n    uint256 blockNum;\n    assembly { // solhint-disable-line no-inline-assembly\n      publicKey := add(_proof, PUBLIC_KEY_OFFSET)\n      preSeed := mload(add(_proof, PRESEED_OFFSET))\n      blockNum := mload(add(_proof, BLOCKNUM_OFFSET))\n    }\n    currentKeyHash = hashOfKey(publicKey);\n    requestId = makeRequestId(currentKeyHash, preSeed);\n    callback = callbacks[requestId];\n    require(callback.callbackContract != address(0), \"no corresponding request\");\n    require(callback.seedAndBlockNum == keccak256(abi.encodePacked(preSeed,\n      blockNum)), \"wrong preSeed or block num\");\n\n    bytes32 blockHash = blockhash(blockNum);\n    if (blockHash == bytes32(0)) {\n      blockHash = blockHashStore.getBlockhash(blockNum);\n      require(blockHash != bytes32(0), \"please prove blockhash\");\n    }\n    // The seed actually used by the VRF machinery, mixing in the blockhash\n    uint256 actualSeed = uint256(keccak256(abi.encodePacked(preSeed, blockHash)));\n    // solhint-disable-next-line no-inline-assembly\n    assembly { // Construct the actual proof from the remains of _proof\n      mstore(add(_proof, PRESEED_OFFSET), actualSeed)\n      mstore(_proof, PROOF_LENGTH)\n    }\n    randomness = VRF.randomValueFromVRFProof(_proof); // Reverts on failure\n  }\n\n  /**\n   * @dev Allows the oracle operator to withdraw their LINK\n   * @param _recipient is the address the funds will be sent to\n   * @param _amount is the amount of LINK transferred from the Coordinator contract\n   */\n  function withdraw(address _recipient, uint256 _amount)\n    external\n    hasAvailableFunds(_amount)\n  {\n    withdrawableTokens[msg.sender] = withdrawableTokens[msg.sender].sub(_amount);\n    assert(LINK.transfer(_recipient, _amount));\n  }\n\n  /**\n   * @notice Returns the serviceAgreements key associated with this public key\n   * @param _publicKey the key to return the address for\n   */\n  function hashOfKey(uint256[2] memory _publicKey) public pure returns (bytes32) {\n    return keccak256(abi.encodePacked(_publicKey));\n  }\n\n  /**\n   * @dev Reverts if amount is not at least what was agreed upon in the service agreement\n   * @param _feePaid The payment for the request\n   * @param _keyHash The key which the request is for\n   */\n  modifier sufficientLINK(uint256 _feePaid, bytes32 _keyHash) {\n    require(_feePaid >= serviceAgreements[_keyHash].fee, \"Below agreed payment\");\n    _;\n  }\n\n/**\n   * @dev Reverts if not sent from the LINK token\n   */\n  modifier onlyLINK() {\n    require(msg.sender == address(LINK), \"Must use LINK token\");\n    _;\n  }\n\n  /**\n   * @dev Reverts if amount requested is greater than withdrawable balance\n   * @param _amount The given amount to compare to `withdrawableTokens`\n   */\n  modifier hasAvailableFunds(uint256 _amount) {\n    require(withdrawableTokens[msg.sender] >= _amount, \"can't withdraw more than balance\");\n    _;\n  }\n\n}\n",
  "sourcePath": "contracts/chainlink_contracts/chainlink/VRFCoordinator.sol",
  "abi": [
    {
      "inputs": [
        {
          "internalType": "address",
          "name": "_link",
          "type": "address"
        },
        {
          "internalType": "address",
          "name": "_blockHashStore",
          "type": "address"
        }
      ],
      "stateMutability": "nonpayable",
      "type": "constructor"
    },
    {
      "anonymous": false,
      "inputs": [
        {
          "indexed": false,
          "internalType": "bytes32",
          "name": "keyHash",
          "type": "bytes32"
        },
        {
          "indexed": false,
          "internalType": "uint256",
          "name": "fee",
          "type": "uint256"
        }
      ],
      "name": "NewServiceAgreement",
      "type": "event"
    },
    {
      "anonymous": false,
      "inputs": [
        {
          "indexed": false,
          "internalType": "bytes32",
          "name": "keyHash",
          "type": "bytes32"
        },
        {
          "indexed": false,
          "internalType": "uint256",
          "name": "seed",
          "type": "uint256"
        },
        {
          "indexed": true,
          "internalType": "bytes32",
          "name": "jobID",
          "type": "bytes32"
        },
        {
          "indexed": false,
          "internalType": "address",
          "name": "sender",
          "type": "address"
        },
        {
          "indexed": false,
          "internalType": "uint256",
          "name": "fee",
          "type": "uint256"
        },
        {
          "indexed": false,
          "internalType": "bytes32",
          "name": "requestID",
          "type": "bytes32"
        }
      ],
      "name": "RandomnessRequest",
      "type": "event"
    },
    {
      "anonymous": false,
      "inputs": [
        {
          "indexed": false,
          "internalType": "bytes32",
          "name": "requestId",
          "type": "bytes32"
        },
        {
          "indexed": false,
          "internalType": "uint256",
          "name": "output",
          "type": "uint256"
        }
      ],
      "name": "RandomnessRequestFulfilled",
      "type": "event"
    },
    {
      "inputs": [],
      "name": "PRESEED_OFFSET",
      "outputs": [
        {
          "internalType": "uint256",
          "name": "",
          "type": "uint256"
        }
      ],
      "stateMutability": "view",
      "type": "function"
    },
    {
      "inputs": [],
      "name": "PROOF_LENGTH",
      "outputs": [
        {
          "internalType": "uint256",
          "name": "",
          "type": "uint256"
        }
      ],
      "stateMutability": "view",
      "type": "function"
    },
    {
      "inputs": [],
      "name": "PUBLIC_KEY_OFFSET",
      "outputs": [
        {
          "internalType": "uint256",
          "name": "",
          "type": "uint256"
        }
      ],
      "stateMutability": "view",
      "type": "function"
    },
    {
      "inputs": [
        {
          "internalType": "bytes32",
          "name": "",
          "type": "bytes32"
        }
      ],
      "name": "callbacks",
      "outputs": [
        {
          "internalType": "address",
          "name": "callbackContract",
          "type": "address"
        },
        {
          "internalType": "uint96",
          "name": "randomnessFee",
          "type": "uint96"
        },
        {
          "internalType": "bytes32",
          "name": "seedAndBlockNum",
          "type": "bytes32"
        }
      ],
      "stateMutability": "view",
      "type": "function"
    },
    {
      "inputs": [
        {
          "internalType": "bytes",
          "name": "_proof",
          "type": "bytes"
        }
      ],
      "name": "fulfillRandomnessRequest",
      "outputs": [],
      "stateMutability": "nonpayable",
      "type": "function"
    },
    {
      "inputs": [
        {
          "internalType": "uint256[2]",
          "name": "_publicKey",
          "type": "uint256[2]"
        }
      ],
      "name": "hashOfKey",
      "outputs": [
        {
          "internalType": "bytes32",
          "name": "",
          "type": "bytes32"
        }
      ],
      "stateMutability": "pure",
      "type": "function"
    },
    {
      "inputs": [
        {
          "internalType": "address",
          "name": "_sender",
          "type": "address"
        },
        {
          "internalType": "uint256",
          "name": "_fee",
          "type": "uint256"
        },
        {
          "internalType": "bytes",
          "name": "_data",
          "type": "bytes"
        }
      ],
      "name": "onTokenTransfer",
      "outputs": [],
      "stateMutability": "nonpayable",
      "type": "function"
    },
    {
      "inputs": [
        {
          "internalType": "uint256",
          "name": "_fee",
          "type": "uint256"
        },
        {
          "internalType": "address",
          "name": "_oracle",
          "type": "address"
        },
        {
          "internalType": "uint256[2]",
          "name": "_publicProvingKey",
          "type": "uint256[2]"
        },
        {
          "internalType": "bytes32",
          "name": "_jobID",
          "type": "bytes32"
        }
      ],
      "name": "registerProvingKey",
      "outputs": [],
      "stateMutability": "nonpayable",
      "type": "function"
    },
    {
      "inputs": [
        {
          "internalType": "bytes32",
          "name": "",
          "type": "bytes32"
        }
      ],
      "name": "serviceAgreements",
      "outputs": [
        {
          "internalType": "address",
          "name": "vRFOracle",
          "type": "address"
        },
        {
          "internalType": "uint96",
          "name": "fee",
          "type": "uint96"
        },
        {
          "internalType": "bytes32",
          "name": "jobID",
          "type": "bytes32"
        }
      ],
      "stateMutability": "view",
      "type": "function"
    },
    {
      "inputs": [
        {
          "internalType": "address",
          "name": "_recipient",
          "type": "address"
        },
        {
          "internalType": "uint256",
          "name": "_amount",
          "type": "uint256"
        }
      ],
      "name": "withdraw",
      "outputs": [],
      "stateMutability": "nonpayable",
      "type": "function"
    },
    {
      "inputs": [
        {
          "internalType": "address",
          "name": "",
          "type": "address"
        }
      ],
      "name": "withdrawableTokens",
      "outputs": [
        {
          "internalType": "uint256",
          "name": "",
          "type": "uint256"
        }
      ],
      "stateMutability": "view",
      "type": "function"
    }
  ],
  "bytecode": "0x608060405234801561001057600080fd5b506040516131ba3803806131ba8339818101604052604081101561003357600080fd5b810190808051906020019092919080519060200190929190505050816000806101000a81548173ffffffffffffffffffffffffffffffffffffffff021916908373ffffffffffffffffffffffffffffffffffffffff16021790555080600160006101000a81548173ffffffffffffffffffffffffffffffffffffffff021916908373ffffffffffffffffffffffffffffffffffffffff16021790555050506130da806100e06000396000f3fe608060405234801561001057600080fd5b50600436106100a85760003560e01c8063a4c0ed3611610071578063a4c0ed361461030e578063b415f4f5146103f3578063caf70c4a14610411578063d83402091461048a578063e911439c146104ec578063f3fef3a31461050a576100a8565b80626f6ad0146100ad57806321f36509146101055780635e1c10591461019d57806375d35070146102585780638aa7927b146102f0575b600080fd5b6100ef600480360360208110156100c357600080fd5b81019080803573ffffffffffffffffffffffffffffffffffffffff169060200190929190505050610558565b6040518082815260200191505060405180910390f35b6101316004803603602081101561011b57600080fd5b8101908080359060200190929190505050610570565b604051808473ffffffffffffffffffffffffffffffffffffffff1673ffffffffffffffffffffffffffffffffffffffff168152602001836bffffffffffffffffffffffff166bffffffffffffffffffffffff168152602001828152602001935050505060405180910390f35b610256600480360360208110156101b357600080fd5b81019080803590602001906401000000008111156101d057600080fd5b8201836020820111156101e257600080fd5b8035906020019184600183028401116401000000008311171561020457600080fd5b91908080601f016020809104026020016040519081016040528093929190818152602001838380828437600081840152601f19601f8201169050808301925050505050505091929192905050506105d2565b005b6102846004803603602081101561026e57600080fd5b810190808035906020019092919050505061078c565b604051808473ffffffffffffffffffffffffffffffffffffffff1673ffffffffffffffffffffffffffffffffffffffff168152602001836bffffffffffffffffffffffff166bffffffffffffffffffffffff168152602001828152602001935050505060405180910390f35b6102f86107ee565b6040518082815260200191505060405180910390f35b6103f16004803603606081101561032457600080fd5b81019080803573ffffffffffffffffffffffffffffffffffffffff169060200190929190803590602001909291908035906020019064010000000081111561036b57600080fd5b82018360208201111561037d57600080fd5b8035906020019184600183028401116401000000008311171561039f57600080fd5b91908080601f016020809104026020016040519081016040528093929190818152602001838380828437600081840152601f19601f8201169050808301925050505050505091929192905050506107f3565b005b6103fb6108ff565b6040518082815260200191505060405180910390f35b6104746004803603604081101561042757600080fd5b8101908080604001906002806020026040519081016040528092919082600260200280828437600081840152601f19601f8201169050808301925050505050509192919290505050610904565b6040518082815260200191505060405180910390f35b6104ea600480360360a08110156104a057600080fd5b8101908080359060200190929190803573ffffffffffffffffffffffffffffffffffffffff169060200190929190806040019091929192908035906020019092919050505061095c565b005b6104f4610c81565b6040518082815260200191505060405180910390f35b6105566004803603604081101561052057600080fd5b81019080803573ffffffffffffffffffffffffffffffffffffffff16906020019092919080359060200190929190505050610c87565b005b60046020528060005260406000206000915090505481565b60026020528060005260406000206000915090508060000160009054906101000a900473ffffffffffffffffffffffffffffffffffffffff16908060000160149054906101000a90046bffffffffffffffffffffffff16908060010154905083565b60006105dc612f55565b6000806105e885610ec0565b935093509350935060006003600086815260200190815260200160002060000160009054906101000a900473ffffffffffffffffffffffffffffffffffffffff16905061068f84602001516bffffffffffffffffffffffff16600460008473ffffffffffffffffffffffffffffffffffffffff1673ffffffffffffffffffffffffffffffffffffffff1681526020019081526020016000205461132290919063ffffffff16565b600460008373ffffffffffffffffffffffffffffffffffffffff1673ffffffffffffffffffffffffffffffffffffffff1681526020019081526020016000208190555060026000848152602001908152602001600020600080820160006101000a81549073ffffffffffffffffffffffffffffffffffffffff02191690556000820160146101000a8154906bffffffffffffffffffffffff021916905560018201600090555050610745838386600001516113aa565b7fa2e7a402243ebda4a69ceeb3dfb682943b7a9b3ac66d6eefa8db65894009611c8383604051808381526020018281526020019250505060405180910390a1505050505050565b60036020528060005260406000206000915090508060000160009054906101000a900473ffffffffffffffffffffffffffffffffffffffff16908060000160149054906101000a90046bffffffffffffffffffffffff16908060010154905083565b602081565b6000809054906101000a900473ffffffffffffffffffffffffffffffffffffffff1673ffffffffffffffffffffffffffffffffffffffff163373ffffffffffffffffffffffffffffffffffffffff16146108b5576040517f08c379a00000000000000000000000000000000000000000000000000000000081526004018080602001828103825260138152602001807f4d75737420757365204c494e4b20746f6b656e0000000000000000000000000081525060200191505060405180910390fd5b6000808280602001905160408110156108cd57600080fd5b810190808051906020019092919080519060200190929190505050915091506108f88282868861156d565b5050505050565b60e081565b6000816040516020018082600260200280838360005b8381101561093557808201518184015260208101905061091a565b50505050905001915050604051602081830303815290604052805190602001209050919050565b600061099e836002806020026040519081016040528092919082600260200280828437600081840152601f19601f820116905080830192505050505050610904565b905060006003600083815260200190815260200160002060000160009054906101000a900473ffffffffffffffffffffffffffffffffffffffff169050600073ffffffffffffffffffffffffffffffffffffffff168173ffffffffffffffffffffffffffffffffffffffff1614610a7d576040517f08c379a00000000000000000000000000000000000000000000000000000000081526004018080602001828103825260198152602001807f706c656173652072656769737465722061206e6577206b65790000000000000081525060200191505060405180910390fd5b600073ffffffffffffffffffffffffffffffffffffffff168573ffffffffffffffffffffffffffffffffffffffff161415610b20576040517f08c379a00000000000000000000000000000000000000000000000000000000081526004018080602001828103825260178152602001807f5f6f7261636c65206d757374206e6f742062652030783000000000000000000081525060200191505060405180910390fd5b846003600084815260200190815260200160002060000160006101000a81548173ffffffffffffffffffffffffffffffffffffffff021916908373ffffffffffffffffffffffffffffffffffffffff1602179055508260036000848152602001908152602001600020600101819055506b033b2e3c9fd0803ce8000000861115610bf5576040517f08c379a000000000000000000000000000000000000000000000000000000000815260040180806020018281038252603c815260200180613026603c913960400191505060405180910390fd5b856003600084815260200190815260200160002060000160146101000a8154816bffffffffffffffffffffffff02191690836bffffffffffffffffffffffff1602179055507fae189157e0628c1e62315e9179156e1ea10e90e9c15060002f7021e907dc2cfe8287604051808381526020018281526020019250505060405180910390a1505050505050565b6101a081565b8080600460003373ffffffffffffffffffffffffffffffffffffffff1673ffffffffffffffffffffffffffffffffffffffff168152602001908152602001600020541015610d3d576040517f08c379a00000000000000000000000000000000000000000000000000000000081526004018080602001828103825260208152602001807f63616e2774207769746864726177206d6f7265207468616e2062616c616e636581525060200191505060405180910390fd5b610d8f82600460003373ffffffffffffffffffffffffffffffffffffffff1673ffffffffffffffffffffffffffffffffffffffff1681526020019081526020016000205461195590919063ffffffff16565b600460003373ffffffffffffffffffffffffffffffffffffffff1673ffffffffffffffffffffffffffffffffffffffff168152602001908152602001600020819055506000809054906101000a900473ffffffffffffffffffffffffffffffffffffffff1673ffffffffffffffffffffffffffffffffffffffff1663a9059cbb84846040518363ffffffff1660e01b8152600401808373ffffffffffffffffffffffffffffffffffffffff1673ffffffffffffffffffffffffffffffffffffffff16815260200182815260200192505050602060405180830381600087803b158015610e7a57600080fd5b505af1158015610e8e573d6000803e3d6000fd5b505050506040513d6020811015610ea457600080fd5b8101908080519060200190929190505050610ebb57fe5b505050565b6000610eca612f55565b60008060006101a0602001905080865114610f4d576040517f08c379a00000000000000000000000000000000000000000000000000000000081526004018080602001828103825260128152602001807f77726f6e672070726f6f66206c656e677468000000000000000000000000000081525060200191505060405180910390fd5b610f55612f9d565b60008060208901925060e08901519150838901519050610f7483610904565b9750610f8088836119de565b9550600260008781526020019081526020016000206040518060600160405290816000820160009054906101000a900473ffffffffffffffffffffffffffffffffffffffff1673ffffffffffffffffffffffffffffffffffffffff1673ffffffffffffffffffffffffffffffffffffffff1681526020016000820160149054906101000a90046bffffffffffffffffffffffff166bffffffffffffffffffffffff166bffffffffffffffffffffffff1681526020016001820154815250509650600073ffffffffffffffffffffffffffffffffffffffff16876000015173ffffffffffffffffffffffffffffffffffffffff1614156110e7576040517f08c379a00000000000000000000000000000000000000000000000000000000081526004018080602001828103825260188152602001807f6e6f20636f72726573706f6e64696e672072657175657374000000000000000081525060200191505060405180910390fd5b818160405160200180838152602001828152602001925050506040516020818303038152906040528051906020012087604001511461118e576040517f08c379a000000000000000000000000000000000000000000000000000000000815260040180806020018281038252601a8152602001807f77726f6e672070726553656564206f7220626c6f636b206e756d00000000000081525060200191505060405180910390fd5b6000814090506000801b8114156112c957600160009054906101000a900473ffffffffffffffffffffffffffffffffffffffff1673ffffffffffffffffffffffffffffffffffffffff1663e9413d38836040518263ffffffff1660e01b81526004018082815260200191505060206040518083038186803b15801561121257600080fd5b505afa158015611226573d6000803e3d6000fd5b505050506040513d602081101561123c57600080fd5b810190808051906020019092919050505090506000801b8114156112c8576040517f08c379a00000000000000000000000000000000000000000000000000000000081526004018080602001828103825260168152602001807f706c656173652070726f766520626c6f636b686173680000000000000000000081525060200191505060405180910390fd5b5b6000838260405160200180838152602001828152602001925050506040516020818303038152906040528051906020012060001c90508060e08c01526101a08b526113138b611a17565b96505050505050509193509193565b6000808284019050838110156113a0576040517f08c379a000000000000000000000000000000000000000000000000000000000815260040180806020018281038252601b8152602001807f536166654d6174683a206164646974696f6e206f766572666c6f77000000000081525060200191505060405180910390fd5b8091505092915050565b600060606394985ddd60e01b85856040516024018083815260200182815260200192505050604051602081830303815290604052907bffffffffffffffffffffffffffffffffffffffffffffffffffffffff19166020820180517bffffffffffffffffffffffffffffffffffffffffffffffffffffffff838183161783525050505090506000620324b09050805a10156114ac576040517f08c379a000000000000000000000000000000000000000000000000000000000815260040180806020018281038252601b8152602001807f6e6f7420656e6f7567682067617320666f7220636f6e73756d6572000000000081525060200191505060405180910390fd5b60008473ffffffffffffffffffffffffffffffffffffffff16836040518082805190602001908083835b602083106114f957805182526020820191506020810190506020830392506114d6565b6001836020036101000a0380198251168184511680821785525050505050509050019150506000604051808303816000865af19150503d806000811461155b576040519150601f19603f3d011682016040523d82523d6000602084013e611560565b606091505b5050905050505050505050565b81846003600082815260200190815260200160002060000160149054906101000a90046bffffffffffffffffffffffff166bffffffffffffffffffffffff16821015611621576040517f08c379a00000000000000000000000000000000000000000000000000000000081526004018080602001828103825260148152602001807f42656c6f7720616772656564207061796d656e7400000000000000000000000081525060200191505060405180910390fd5b60006005600088815260200190815260200160002060008573ffffffffffffffffffffffffffffffffffffffff1673ffffffffffffffffffffffffffffffffffffffff168152602001908152602001600020549050600061168488888785611bd8565b9050600061169289836119de565b9050600073ffffffffffffffffffffffffffffffffffffffff166002600083815260200190815260200160002060000160009054906101000a900473ffffffffffffffffffffffffffffffffffffffff1673ffffffffffffffffffffffffffffffffffffffff161461170057fe5b856002600083815260200190815260200160002060000160006101000a81548173ffffffffffffffffffffffffffffffffffffffff021916908373ffffffffffffffffffffffffffffffffffffffff1602179055506b033b2e3c9fd0803ce8000000871061176a57fe5b866002600083815260200190815260200160002060000160146101000a8154816bffffffffffffffffffffffff02191690836bffffffffffffffffffffffff16021790555081436040516020018083815260200182815260200192505050604051602081830303815290604052805190602001206002600083815260200190815260200160002060010181905550600360008a8152602001908152602001600020600101547f56bd374744a66d531874338def36c906e3a6cf31176eb1e9afd9f1de69725d518a84898b86604051808681526020018581526020018473ffffffffffffffffffffffffffffffffffffffff1673ffffffffffffffffffffffffffffffffffffffff1681526020018381526020018281526020019550505050505060405180910390a26118f66001600560008c815260200190815260200160002060008973ffffffffffffffffffffffffffffffffffffffff1673ffffffffffffffffffffffffffffffffffffffff1681526020019081526020016000205461132290919063ffffffff16565b600560008b815260200190815260200160002060008873ffffffffffffffffffffffffffffffffffffffff1673ffffffffffffffffffffffffffffffffffffffff16815260200190815260200160002081905550505050505050505050565b6000828211156119cd576040517f08c379a000000000000000000000000000000000000000000000000000000000815260040180806020018281038252601e8152602001807f536166654d6174683a207375627472616374696f6e206f766572666c6f77000081525060200191505060405180910390fd5b600082840390508091505092915050565b60008282604051602001808381526020018281526020019250505060405160208183030381529060405280519060200120905092915050565b60006101a0825114611a91576040517f08c379a00000000000000000000000000000000000000000000000000000000081526004018080602001828103825260128152602001807f77726f6e672070726f6f66206c656e677468000000000000000000000000000081525060200191505060405180910390fd5b611a99612f9d565b611aa1612f9d565b611aa9612fbf565b6000611ab3612f9d565b611abb612f9d565b6000888060200190516101a0811015611ad357600080fd5b810190809190826040019190826040019190826060018051906020019092919091908260400191908260400180519060200190929190505050839350809750819850829950839a50849b50859c50869d5050505050505050611b6f878787600060038110611b3d57fe5b602002015188600160038110611b4f57fe5b602002015189600260038110611b6157fe5b602002015189898989611c52565b6003866040516020018083815260200182600260200280838360005b83811015611ba6578082015181840152602081019050611b8b565b50505050905001925050506040516020818303038152906040528051906020012060001c975050505050505050919050565b600084848484604051602001808581526020018481526020018373ffffffffffffffffffffffffffffffffffffffff1673ffffffffffffffffffffffffffffffffffffffff1681526020018281526020019450505050506040516020818303038152906040528051906020012060001c9050949350505050565b611c5b89611f7d565b611ccd576040517f08c379a000000000000000000000000000000000000000000000000000000000815260040180806020018281038252601a8152602001807f7075626c6963206b6579206973206e6f74206f6e20637572766500000000000081525060200191505060405180910390fd5b611cd688611f7d565b611d48576040517f08c379a00000000000000000000000000000000000000000000000000000000081526004018080602001828103825260158152602001807f67616d6d61206973206e6f74206f6e206375727665000000000000000000000081525060200191505060405180910390fd5b611d5183611f7d565b611dc3576040517f08c379a000000000000000000000000000000000000000000000000000000000815260040180806020018281038252601d8152602001807f6347616d6d615769746e657373206973206e6f74206f6e20637572766500000081525060200191505060405180910390fd5b611dcc82611f7d565b611e3e576040517f08c379a000000000000000000000000000000000000000000000000000000000815260040180806020018281038252601c8152602001807f73486173685769746e657373206973206e6f74206f6e2063757276650000000081525060200191505060405180910390fd5b611e4a878a8887611fee565b611ebc576040517f08c379a000000000000000000000000000000000000000000000000000000000815260040180806020018281038252601a8152602001807f6164647228632a706b2b732a6729e289a05f755769746e65737300000000000081525060200191505060405180910390fd5b611ec4612f9d565b611ece8a87612226565b9050611ed8612f9d565b611ee7898b878b8689896122e5565b90506000611ef8838d8d8a86612489565b9050808a14611f6f576040517f08c379a000000000000000000000000000000000000000000000000000000000815260040180806020018281038252600d8152602001807f696e76616c69642070726f6f660000000000000000000000000000000000000081525060200191505060405180910390fd5b505050505050505050505050565b60007ffffffffffffffffffffffffffffffffffffffffffffffffffffffffefffffc2f80611fa757fe5b82600160028110611fb457fe5b602002015183600160028110611fc657fe5b602002015109611fe683600060028110611fdc57fe5b60200201516125b8565b149050919050565b60008073ffffffffffffffffffffffffffffffffffffffff168273ffffffffffffffffffffffffffffffffffffffff161415612092576040517f08c379a000000000000000000000000000000000000000000000000000000000815260040180806020018281038252600b8152602001807f626164207769746e65737300000000000000000000000000000000000000000081525060200191505060405180910390fd5b6000806002866001600281106120a457fe5b6020020151816120b057fe5b06146120bd57601c6120c0565b601b5b905060007ffffffffffffffffffffffffffffffffebaaedce6af48a03bbfd25e8cd0364141806120ec57fe5b85876000600281106120fa57fe5b6020020151097ffffffffffffffffffffffffffffffffebaaedce6af48a03bbfd25e8cd03641410360001b905060007ffffffffffffffffffffffffffffffffebaaedce6af48a03bbfd25e8cd03641418061215157fe5b8760006002811061215e57fe5b6020020151890960001b90506000600183858a60006002811061217d57fe5b602002015160001b8560405160008152602001604052604051808581526020018460ff1660ff1681526020018381526020018281526020019450505050506020604051602081039080840390855afa1580156121dd573d6000803e3d6000fd5b5050506020604051035190508573ffffffffffffffffffffffffffffffffffffffff168173ffffffffffffffffffffffffffffffffffffffff1614945050505050949350505050565b61222e612f9d565b61228f600184846040516020018084815260200183600260200280838360005b8381101561226957808201518184015260208101905061224e565b505050509050018281526020019350505050604051602081830303815290604052612646565b90505b61229b81611f7d565b6122df576122d8816000600281106122af57fe5b602002015160405160200180828152602001915050604051602081830303815290604052612646565b9050612292565b92915050565b6122ed612f9d565b60007ffffffffffffffffffffffffffffffffffffffffffffffffffffffffefffffc2f8460006002811061231d57fe5b60200201518860006002811061232f57fe5b6020020151038161233c57fe5b0614156123b1576040517f08c379a000000000000000000000000000000000000000000000000000000000815260040180806020018281038252601e8152602001807f706f696e747320696e2073756d206d7573742062652064697374696e6374000081525060200191505060405180910390fd5b6123bc878988612719565b612411576040517f08c379a00000000000000000000000000000000000000000000000000000000081526004018080602001828103825260218152602001806130626021913960400191505060405180910390fd5b61241c848685612719565b612471576040517f08c379a00000000000000000000000000000000000000000000000000000000081526004018080602001828103825260228152602001806130836022913960400191505060405180910390fd5b61247c8684846128a4565b9050979650505050505050565b6000600286868685876040516020018087815260200186600260200280838360005b838110156124c65780820151818401526020810190506124ab565b5050505090500185600260200280838360005b838110156124f45780820151818401526020810190506124d9565b5050505090500184600260200280838360005b83811015612522578082015181840152602081019050612507565b5050505090500183600260200280838360005b83811015612550578082015181840152602081019050612535565b505050509050018273ffffffffffffffffffffffffffffffffffffffff1673ffffffffffffffffffffffffffffffffffffffff1660601b815260140196505050505050506040516020818303038152906040528051906020012060001c905095945050505050565b6000807ffffffffffffffffffffffffffffffffffffffffffffffffffffffffefffffc2f806125e357fe5b7ffffffffffffffffffffffffffffffffffffffffffffffffffffffffefffffc2f8061260b57fe5b848509840990507ffffffffffffffffffffffffffffffffffffffffffffffffffffffffefffffc2f8061263a57fe5b60078208915050919050565b61264e612f9d565b61265782612a22565b8160006002811061266457fe5b60200201818152505061268f61268a8260006002811061268057fe5b60200201516125b8565b612a8f565b8160016002811061269c57fe5b60200201818152505060016002826001600281106126b657fe5b6020020151816126c257fe5b06141561271457806001600281106126d657fe5b60200201517ffffffffffffffffffffffffffffffffffffffffffffffffffffffffefffffc2f038160016002811061270a57fe5b6020020181815250505b919050565b60008083141561272857600080fd5b60008460006002811061273757fe5b6020020151905060008060028760016002811061275057fe5b60200201518161275c57fe5b061461276957601c61276c565b601b5b905060007ffffffffffffffffffffffffffffffffebaaedce6af48a03bbfd25e8cd03641418061279857fe5b83870960001b9050600060016000801b848660001b8560405160008152602001604052604051808581526020018460ff1660ff1681526020018381526020018281526020019450505050506020604051602081039080840390855afa158015612805573d6000803e3d6000fd5b5050506020604051035190506000866040516020018082600260200280838360005b83811015612842578082015181840152602081019050612827565b505050509050019150506040516020818303038152906040528051906020012060001c90508073ffffffffffffffffffffffffffffffffffffffff168273ffffffffffffffffffffffffffffffffffffffff1614955050505050509392505050565b6128ac612f9d565b6000806000612901876000600281106128c157fe5b6020020151886001600281106128d357fe5b6020020151886000600281106128e557fe5b6020020151896001600281106128f757fe5b6020020151612ac9565b80935081945082955050505060017ffffffffffffffffffffffffffffffffffffffffffffffffffffffffefffffc2f8061293757fe5b868309146129ad576040517f08c379a00000000000000000000000000000000000000000000000000000000081526004018080602001828103825260198152602001807f696e765a206d75737420626520696e7665727365206f66207a0000000000000081525060200191505060405180910390fd5b60405180604001604052807ffffffffffffffffffffffffffffffffffffffffffffffffffffffffefffffc2f806129e057fe5b87860981526020017ffffffffffffffffffffffffffffffffffffffffffffffffffffffffefffffc2f80612a1057fe5b87850981525093505050509392505050565b6000818051906020012060001c90505b7ffffffffffffffffffffffffffffffffffffffffffffffffffffffffefffffc2f8110612a8a5780604051602001808281526020019150506040516020818303038152906040528051906020012060001c9050612a32565b919050565b6000612ac282600260017ffffffffffffffffffffffffffffffffffffffffffffffffffffffffefffffc2f01901c612c9d565b9050919050565b60008060008060006001809150915060007ffffffffffffffffffffffffffffffffffffffffffffffffffffffffefffffc2f80612b0257fe5b897ffffffffffffffffffffffffffffffffffffffffffffffffffffffffefffffc2f038808905060007ffffffffffffffffffffffffffffffffffffffffffffffffffffffffefffffc2f80612b5357fe5b8b7ffffffffffffffffffffffffffffffffffffffffffffffffffffffffefffffc2f038a0890506000612b8883838585612dff565b8092508199505050612b9c88828e88612e69565b8092508199505050612bb088828c87612e69565b80925081995050506000612bc68d878b85612e69565b8092508199505050612bda88828686612dff565b8092508199505050612bee88828e89612e69565b8092508199505050808214612c89577ffffffffffffffffffffffffffffffffffffffffffffffffffffffffefffffc2f80612c2557fe5b818a0998507ffffffffffffffffffffffffffffffffffffffffffffffffffffffffefffffc2f80612c5257fe5b82890997507ffffffffffffffffffffffffffffffffffffffffffffffffffffffffefffffc2f80612c7f57fe5b8183099650612c8d565b8196505b5050505050509450945094915050565b600080612ca8612fe1565b602081600060068110612cb757fe5b602002018181525050602081600160068110612ccf57fe5b602002018181525050602081600260068110612ce757fe5b6020020181815250508481600360068110612cfe57fe5b6020020181815250508381600460068110612d1557fe5b6020020181815250507ffffffffffffffffffffffffffffffffffffffffffffffffffffffffefffffc2f81600560068110612d4c57fe5b602002018181525050612d5d613003565b60208160c0846005600019fa92506000831415612de2576040517f08c379a00000000000000000000000000000000000000000000000000000000081526004018080602001828103825260128152602001807f6269674d6f64457870206661696c75726521000000000000000000000000000081525060200191505060405180910390fd5b80600060018110612def57fe5b6020020151935050505092915050565b6000807ffffffffffffffffffffffffffffffffffffffffffffffffffffffffefffffc2f80612e2a57fe5b8487097ffffffffffffffffffffffffffffffffffffffffffffffffffffffffefffffc2f80612e5557fe5b848709809250819350505094509492505050565b60008060007ffffffffffffffffffffffffffffffffffffffffffffffffffffffffefffffc2f80612e9657fe5b878509905060007ffffffffffffffffffffffffffffffffffffffffffffffffffffffffefffffc2f80612ec557fe5b87877ffffffffffffffffffffffffffffffffffffffffffffffffffffffffefffffc2f030990507ffffffffffffffffffffffffffffffffffffffffffffffffffffffffefffffc2f80612f1457fe5b8183087ffffffffffffffffffffffffffffffffffffffffffffffffffffffffefffffc2f80612f3f57fe5b8689098094508195505050505094509492505050565b6040518060600160405280600073ffffffffffffffffffffffffffffffffffffffff16815260200160006bffffffffffffffffffffffff168152602001600080191681525090565b6040518060400160405280600290602082028036833780820191505090505090565b6040518060600160405280600390602082028036833780820191505090505090565b6040518060c00160405280600690602082028036833780820191505090505090565b604051806020016040528060019060208202803683378082019150509050509056fe796f752063616e277420636861726765206d6f7265207468616e20616c6c20746865204c494e4b20696e2074686520776f726c642c206772656564794669727374206d756c7469706c69636174696f6e20636865636b206661696c65645365636f6e64206d756c7469706c69636174696f6e20636865636b206661696c6564a2646970667358221220490cfcc798b8affda074c02707df182f8f94a3516c6517f679d95a0d4b2b909a64736f6c63430006060033",
  "compiler": {
    "name": "solc",
    "version": "0.6.6+commit.6c089d02.Emscripten.clang",
    "optimizer": {
      "enabled": false,
      "runs": 200
    },
    "evmVersion": "petersburg"
  }
}