{
  "fileName": "VRFRequestIDBaseTestHelper.sol",
  "contractName": "VRFRequestIDBaseTestHelper",
  "source": "pragma solidity 0.6.6;\n\nimport \"../VRFRequestIDBase.sol\";\n\ncontract VRFRequestIDBaseTestHelper is VRFRequestIDBase {\n\n  function makeVRFInputSeed_(bytes32 _keyHash, uint256 _userSeed,\n                            address _requester, uint256 _nonce)\n    public pure returns (uint256) {\n      return makeVRFInputSeed(_keyHash, _userSeed, _requester, _nonce);\n    }\n\n  function makeRequestId_(\n    bytes32 _keyHash, uint256 _vRFInputSeed) public pure returns (bytes32) {\n    return makeRequestId(_keyHash, _vRFInputSeed);\n  }\n}\n",
  "sourcePath": "contracts/chainlink_contracts/chainlink/tests/VRFRequestIDBaseTestHelper.sol",
  "abi": [
    {
      "inputs": [
        {
          "internalType": "bytes32",
          "name": "_keyHash",
          "type": "bytes32"
        },
        {
          "internalType": "uint256",
          "name": "_vRFInputSeed",
          "type": "uint256"
        }
      ],
      "name": "makeRequestId_",
      "outputs": [
        {
          "internalType": "bytes32",
          "name": "",
          "type": "bytes32"
        }
      ],
      "stateMutability": "pure",
      "type": "function"
    },
    {
      "inputs": [
        {
          "internalType": "bytes32",
          "name": "_keyHash",
          "type": "bytes32"
        },
        {
          "internalType": "uint256",
          "name": "_userSeed",
          "type": "uint256"
        },
        {
          "internalType": "address",
          "name": "_requester",
          "type": "address"
        },
        {
          "internalType": "uint256",
          "name": "_nonce",
          "type": "uint256"
        }
      ],
      "name": "makeVRFInputSeed_",
      "outputs": [
        {
          "internalType": "uint256",
          "name": "",
          "type": "uint256"
        }
      ],
      "stateMutability": "pure",
      "type": "function"
    }
  ],
  "bytecode": "0x608060405234801561001057600080fd5b50610212806100206000396000f3fe608060405234801561001057600080fd5b50600436106100365760003560e01c806337ab429a1461003b578063bda087ae146100b1575b600080fd5b61009b6004803603608081101561005157600080fd5b810190808035906020019092919080359060200190929190803573ffffffffffffffffffffffffffffffffffffffff169060200190929190803590602001909291905050506100fd565b6040518082815260200191505060405180910390f35b6100e7600480360360408110156100c757600080fd5b810190808035906020019092919080359060200190929190505050610115565b6040518082815260200191505060405180910390f35b600061010b85858585610129565b9050949350505050565b600061012183836101a3565b905092915050565b600084848484604051602001808581526020018481526020018373ffffffffffffffffffffffffffffffffffffffff1673ffffffffffffffffffffffffffffffffffffffff1681526020018281526020019450505050506040516020818303038152906040528051906020012060001c9050949350505050565b6000828260405160200180838152602001828152602001925050506040516020818303038152906040528051906020012090509291505056fea2646970667358221220697c87009c321b923ab32264dee1af2623ec5cf998652c371bc9dbc70c66777664736f6c63430006060033",
  "compiler": {
    "name": "solc",
    "version": "0.6.6+commit.6c089d02.Emscripten.clang",
    "optimizer": {
      "enabled": false,
      "runs": 200
    },
    "evmVersion": "petersburg"
  }
}