{
  "fileName": "VRFTestHelper.sol",
  "contractName": "VRFTestHelper",
  "source": "pragma solidity 0.6.6;\n\nimport \"../VRF.sol\";\n\n/** ***********************************************************************\n    @notice Testing harness for VRF.sol, exposing its internal methods. Not to\n    @notice be used for production.\n*/\ncontract VRFTestHelper is VRF {\n  function bigModExp_(uint256 base, uint256 exponent) public view returns (uint256) {\n    return super.bigModExp(base, exponent);\n  }\n  function squareRoot_(uint256 x) public view returns (uint256) {\n    return super.squareRoot(x);\n  }\n  function ySquared_(uint256 x) public pure returns (uint256) {\n    return super.ySquared(x);\n  }\n  function fieldHash_(bytes memory b) public pure returns (uint256) {\n    return super.fieldHash(b);\n  }\n  function hashToCurve_(uint256[2] memory pk, uint256 x) public view returns(uint256[2] memory) {\n    return super.hashToCurve(pk, x);\n  }\n  function ecmulVerify_(uint256[2] memory x, uint256 scalar, uint256[2] memory q) public pure returns (bool) {\n    return super.ecmulVerify(x, scalar, q);\n  }\n  function projectiveECAdd_(uint256 px, uint256 py, uint256 qx, uint256 qy) public pure returns(uint256, uint256, uint256) {\n    return super.projectiveECAdd(px, py, qx, qy);\n  }\n  function affineECAdd_(uint256[2] memory p1, uint256[2] memory p2, uint256 invZ) public pure returns (uint256[2] memory) {\n    return super.affineECAdd(p1, p2, invZ);\n  }\n  function verifyLinearCombinationWithGenerator_(uint256 c, uint256[2] memory p, uint256 s, address lcWitness) public pure returns (bool) {\n    return super.verifyLinearCombinationWithGenerator(c, p, s, lcWitness);\n  }\n  function linearCombination_(uint256 c, uint256[2] memory p1, uint256[2] memory cp1Witness, uint256 s, uint256[2] memory p2, uint256[2] memory sp2Witness, uint256 zInv) public pure returns (uint256[2] memory) {\n    return super.linearCombination(c, p1, cp1Witness, s, p2, sp2Witness, zInv);\n  }\n  function scalarFromCurvePoints_(uint256[2] memory hash, uint256[2] memory pk, uint256[2] memory gamma, address uWitness, uint256[2] memory v) public pure returns (uint256) {\n    return super.scalarFromCurvePoints(hash, pk, gamma, uWitness, v);\n  }\n  function verifyVRFProof_(\n    uint256[2] memory pk, uint256[2] memory gamma, uint256 c, uint256 s,\n    uint256 seed, address uWitness, uint256[2] memory cGammaWitness,\n    uint256[2] memory sHashWitness, uint256 zInv)\n    public view {\n      super.verifyVRFProof(pk, gamma, c, s, seed, uWitness, cGammaWitness, sHashWitness, zInv);\n    }\n  function randomValueFromVRFProof_(bytes memory proof)\n    public view returns (uint256 output) {\n    return super.randomValueFromVRFProof(proof);\n  }\n}\n",
  "sourcePath": "contracts/chainlink_contracts/chainlink/tests/VRFTestHelper.sol",
  "abi": [
    {
      "inputs": [],
      "name": "PROOF_LENGTH",
      "outputs": [
        {
          "internalType": "uint256",
          "name": "",
          "type": "uint256"
        }
      ],
      "stateMutability": "view",
      "type": "function"
    },
    {
      "inputs": [
        {
          "internalType": "uint256[2]",
          "name": "p1",
          "type": "uint256[2]"
        },
        {
          "internalType": "uint256[2]",
          "name": "p2",
          "type": "uint256[2]"
        },
        {
          "internalType": "uint256",
          "name": "invZ",
          "type": "uint256"
        }
      ],
      "name": "affineECAdd_",
      "outputs": [
        {
          "internalType": "uint256[2]",
          "name": "",
          "type": "uint256[2]"
        }
      ],
      "stateMutability": "pure",
      "type": "function"
    },
    {
      "inputs": [
        {
          "internalType": "uint256",
          "name": "base",
          "type": "uint256"
        },
        {
          "internalType": "uint256",
          "name": "exponent",
          "type": "uint256"
        }
      ],
      "name": "bigModExp_",
      "outputs": [
        {
          "internalType": "uint256",
          "name": "",
          "type": "uint256"
        }
      ],
      "stateMutability": "view",
      "type": "function"
    },
    {
      "inputs": [
        {
          "internalType": "uint256[2]",
          "name": "x",
          "type": "uint256[2]"
        },
        {
          "internalType": "uint256",
          "name": "scalar",
          "type": "uint256"
        },
        {
          "internalType": "uint256[2]",
          "name": "q",
          "type": "uint256[2]"
        }
      ],
      "name": "ecmulVerify_",
      "outputs": [
        {
          "internalType": "bool",
          "name": "",
          "type": "bool"
        }
      ],
      "stateMutability": "pure",
      "type": "function"
    },
    {
      "inputs": [
        {
          "internalType": "bytes",
          "name": "b",
          "type": "bytes"
        }
      ],
      "name": "fieldHash_",
      "outputs": [
        {
          "internalType": "uint256",
          "name": "",
          "type": "uint256"
        }
      ],
      "stateMutability": "pure",
      "type": "function"
    },
    {
      "inputs": [
        {
          "internalType": "uint256[2]",
          "name": "pk",
          "type": "uint256[2]"
        },
        {
          "internalType": "uint256",
          "name": "x",
          "type": "uint256"
        }
      ],
      "name": "hashToCurve_",
      "outputs": [
        {
          "internalType": "uint256[2]",
          "name": "",
          "type": "uint256[2]"
        }
      ],
      "stateMutability": "view",
      "type": "function"
    },
    {
      "inputs": [
        {
          "internalType": "uint256",
          "name": "c",
          "type": "uint256"
        },
        {
          "internalType": "uint256[2]",
          "name": "p1",
          "type": "uint256[2]"
        },
        {
          "internalType": "uint256[2]",
          "name": "cp1Witness",
          "type": "uint256[2]"
        },
        {
          "internalType": "uint256",
          "name": "s",
          "type": "uint256"
        },
        {
          "internalType": "uint256[2]",
          "name": "p2",
          "type": "uint256[2]"
        },
        {
          "internalType": "uint256[2]",
          "name": "sp2Witness",
          "type": "uint256[2]"
        },
        {
          "internalType": "uint256",
          "name": "zInv",
          "type": "uint256"
        }
      ],
      "name": "linearCombination_",
      "outputs": [
        {
          "internalType": "uint256[2]",
          "name": "",
          "type": "uint256[2]"
        }
      ],
      "stateMutability": "pure",
      "type": "function"
    },
    {
      "inputs": [
        {
          "internalType": "uint256",
          "name": "px",
          "type": "uint256"
        },
        {
          "internalType": "uint256",
          "name": "py",
          "type": "uint256"
        },
        {
          "internalType": "uint256",
          "name": "qx",
          "type": "uint256"
        },
        {
          "internalType": "uint256",
          "name": "qy",
          "type": "uint256"
        }
      ],
      "name": "projectiveECAdd_",
      "outputs": [
        {
          "internalType": "uint256",
          "name": "",
          "type": "uint256"
        },
        {
          "internalType": "uint256",
          "name": "",
          "type": "uint256"
        },
        {
          "internalType": "uint256",
          "name": "",
          "type": "uint256"
        }
      ],
      "stateMutability": "pure",
      "type": "function"
    },
    {
      "inputs": [
        {
          "internalType": "bytes",
          "name": "proof",
          "type": "bytes"
        }
      ],
      "name": "randomValueFromVRFProof_",
      "outputs": [
        {
          "internalType": "uint256",
          "name": "output",
          "type": "uint256"
        }
      ],
      "stateMutability": "view",
      "type": "function"
    },
    {
      "inputs": [
        {
          "internalType": "uint256[2]",
          "name": "hash",
          "type": "uint256[2]"
        },
        {
          "internalType": "uint256[2]",
          "name": "pk",
          "type": "uint256[2]"
        },
        {
          "internalType": "uint256[2]",
          "name": "gamma",
          "type": "uint256[2]"
        },
        {
          "internalType": "address",
          "name": "uWitness",
          "type": "address"
        },
        {
          "internalType": "uint256[2]",
          "name": "v",
          "type": "uint256[2]"
        }
      ],
      "name": "scalarFromCurvePoints_",
      "outputs": [
        {
          "internalType": "uint256",
          "name": "",
          "type": "uint256"
        }
      ],
      "stateMutability": "pure",
      "type": "function"
    },
    {
      "inputs": [
        {
          "internalType": "uint256",
          "name": "x",
          "type": "uint256"
        }
      ],
      "name": "squareRoot_",
      "outputs": [
        {
          "internalType": "uint256",
          "name": "",
          "type": "uint256"
        }
      ],
      "stateMutability": "view",
      "type": "function"
    },
    {
      "inputs": [
        {
          "internalType": "uint256",
          "name": "c",
          "type": "uint256"
        },
        {
          "internalType": "uint256[2]",
          "name": "p",
          "type": "uint256[2]"
        },
        {
          "internalType": "uint256",
          "name": "s",
          "type": "uint256"
        },
        {
          "internalType": "address",
          "name": "lcWitness",
          "type": "address"
        }
      ],
      "name": "verifyLinearCombinationWithGenerator_",
      "outputs": [
        {
          "internalType": "bool",
          "name": "",
          "type": "bool"
        }
      ],
      "stateMutability": "pure",
      "type": "function"
    },
    {
      "inputs": [
        {
          "internalType": "uint256[2]",
          "name": "pk",
          "type": "uint256[2]"
        },
        {
          "internalType": "uint256[2]",
          "name": "gamma",
          "type": "uint256[2]"
        },
        {
          "internalType": "uint256",
          "name": "c",
          "type": "uint256"
        },
        {
          "internalType": "uint256",
          "name": "s",
          "type": "uint256"
        },
        {
          "internalType": "uint256",
          "name": "seed",
          "type": "uint256"
        },
        {
          "internalType": "address",
          "name": "uWitness",
          "type": "address"
        },
        {
          "internalType": "uint256[2]",
          "name": "cGammaWitness",
          "type": "uint256[2]"
        },
        {
          "internalType": "uint256[2]",
          "name": "sHashWitness",
          "type": "uint256[2]"
        },
        {
          "internalType": "uint256",
          "name": "zInv",
          "type": "uint256"
        }
      ],
      "name": "verifyVRFProof_",
      "outputs": [],
      "stateMutability": "view",
      "type": "function"
    },
    {
      "inputs": [
        {
          "internalType": "uint256",
          "name": "x",
          "type": "uint256"
        }
      ],
      "name": "ySquared_",
      "outputs": [
        {
          "internalType": "uint256",
          "name": "",
          "type": "uint256"
        }
      ],
      "stateMutability": "pure",
      "type": "function"
    }
  ],
  "bytecode": "0x608060405234801561001057600080fd5b50612250806100206000396000f3fe608060405234801561001057600080fd5b50600436106100ea5760003560e01c80639d6f03371161008c578063cefda0c511610066578063cefda0c514610769578063e911439c14610838578063ef3b10ec14610856578063fe54f2a2146109c7576100ea565b80639d6f033714610590578063aa7b2fbb146105d2578063b481e2601461069a576100ea565b80637f8f50a8116100c85780637f8f50a8146102d25780638af046ea1461042f57806391d5f6911461047157806395e6ee9214610522576100ea565b8063244f896d146100ef57806335452450146101db5780635de6004214610286575b600080fd5b61019d600480360360a081101561010557600080fd5b8101908080604001906002806020026040519081016040528092919082600260200280828437600081840152601f19601f820116905080830192505050505050919291929080604001906002806020026040519081016040528092919082600260200280828437600081840152601f19601f820116905080830192505050505050919291929080359060200190929190505050610b4a565b6040518082600260200280838360005b838110156101c85780820151818401526020810190506101ad565b5050505090500191505060405180910390f35b610248600480360360608110156101f157600080fd5b8101908080604001906002806020026040519081016040528092919082600260200280828437600081840152601f19601f820116905080830192505050505050919291929080359060200190929190505050610b66565b6040518082600260200280838360005b83811015610273578082015181840152602081019050610258565b5050505090500191505060405180910390f35b6102bc6004803603604081101561029c57600080fd5b810190808035906020019092919080359060200190929190505050610b80565b6040518082815260200191505060405180910390f35b61041960048036036101208110156102e957600080fd5b8101908080604001906002806020026040519081016040528092919082600260200280828437600081840152601f19601f820116905080830192505050505050919291929080604001906002806020026040519081016040528092919082600260200280828437600081840152601f19601f820116905080830192505050505050919291929080604001906002806020026040519081016040528092919082600260200280828437600081840152601f19601f8201169050808301925050505050509192919290803573ffffffffffffffffffffffffffffffffffffffff16906020019092919080604001906002806020026040519081016040528092919082600260200280828437600081840152601f19601f8201169050808301925050505050509192919290505050610b94565b6040518082815260200191505060405180910390f35b61045b6004803603602081101561044557600080fd5b8101908080359060200190929190505050610bae565b6040518082815260200191505060405180910390f35b610508600480360360a081101561048757600080fd5b810190808035906020019092919080604001906002806020026040519081016040528092919082600260200280828437600081840152601f19601f820116905080830192505050505050919291929080359060200190929190803573ffffffffffffffffffffffffffffffffffffffff169060200190929190505050610bc0565b604051808215151515815260200191505060405180910390f35b61056c6004803603608081101561053857600080fd5b8101908080359060200190929190803590602001909291908035906020019092919080359060200190929190505050610bd8565b60405180848152602001838152602001828152602001935050505060405180910390f35b6105bc600480360360208110156105a657600080fd5b8101908080359060200190929190505050610bf9565b6040518082815260200191505060405180910390f35b610680600480360360a08110156105e857600080fd5b8101908080604001906002806020026040519081016040528092919082600260200280828437600081840152601f19601f82011690508083019250505050505091929192908035906020019092919080604001906002806020026040519081016040528092919082600260200280828437600081840152601f19601f8201169050808301925050505050509192919290505050610c0b565b604051808215151515815260200191505060405180910390f35b610753600480360360208110156106b057600080fd5b81019080803590602001906401000000008111156106cd57600080fd5b8201836020820111156106df57600080fd5b8035906020019184600183028401116401000000008311171561070157600080fd5b91908080601f016020809104026020016040519081016040528093929190818152602001838380828437600081840152601f19601f820116905080830192505050505050509192919290505050610c21565b6040518082815260200191505060405180910390f35b6108226004803603602081101561077f57600080fd5b810190808035906020019064010000000081111561079c57600080fd5b8201836020820111156107ae57600080fd5b803590602001918460018302840111640100000000831117156107d057600080fd5b91908080601f016020809104026020016040519081016040528093929190818152602001838380828437600081840152601f19601f820116905080830192505050505050509192919290505050610c33565b6040518082815260200191505060405180910390f35b610840610c45565b6040518082815260200191505060405180910390f35b6109c560048036036101a081101561086d57600080fd5b8101908080604001906002806020026040519081016040528092919082600260200280828437600081840152601f19601f820116905080830192505050505050919291929080604001906002806020026040519081016040528092919082600260200280828437600081840152601f19601f8201169050808301925050505050509192919290803590602001909291908035906020019092919080359060200190929190803573ffffffffffffffffffffffffffffffffffffffff16906020019092919080604001906002806020026040519081016040528092919082600260200280828437600081840152601f19601f820116905080830192505050505050919291929080604001906002806020026040519081016040528092919082600260200280828437600081840152601f19601f820116905080830192505050505050919291929080359060200190929190505050610c4b565b005b610b0c60048036036101608110156109de57600080fd5b810190808035906020019092919080604001906002806020026040519081016040528092919082600260200280828437600081840152601f19601f820116905080830192505050505050919291929080604001906002806020026040519081016040528092919082600260200280828437600081840152601f19601f82011690508083019250505050505091929192908035906020019092919080604001906002806020026040519081016040528092919082600260200280828437600081840152601f19601f820116905080830192505050505050919291929080604001906002806020026040519081016040528092919082600260200280828437600081840152601f19601f820116905080830192505050505050919291929080359060200190929190505050610c67565b6040518082600260200280838360005b83811015610b37578082015181840152602081019050610b1c565b5050505090500191505060405180910390f35b610b5261214f565b610b5d848484610c8b565b90509392505050565b610b6e61214f565b610b788383610e09565b905092915050565b6000610b8c8383610ec8565b905092915050565b6000610ba3868686868661102a565b905095945050505050565b6000610bb982611159565b9050919050565b6000610bce85858585611193565b9050949350505050565b6000806000610be9878787876113cb565b9250925092509450945094915050565b6000610c048261159f565b9050919050565b6000610c1884848461162d565b90509392505050565b6000610c2c826117b8565b9050919050565b6000610c3e82611825565b9050919050565b6101a081565b610c5c8989898989898989896119e6565b505050505050505050565b610c6f61214f565b610c7e88888888888888611d11565b9050979650505050505050565b610c9361214f565b6000806000610ce887600060028110610ca857fe5b602002015188600160028110610cba57fe5b602002015188600060028110610ccc57fe5b602002015189600160028110610cde57fe5b60200201516113cb565b80935081945082955050505060017ffffffffffffffffffffffffffffffffffffffffffffffffffffffffefffffc2f80610d1e57fe5b86830914610d94576040517f08c379a00000000000000000000000000000000000000000000000000000000081526004018080602001828103825260198152602001807f696e765a206d75737420626520696e7665727365206f66207a0000000000000081525060200191505060405180910390fd5b60405180604001604052807ffffffffffffffffffffffffffffffffffffffffffffffffffffffffefffffc2f80610dc757fe5b87860981526020017ffffffffffffffffffffffffffffffffffffffffffffffffffffffffefffffc2f80610df757fe5b87850981525093505050509392505050565b610e1161214f565b610e72600184846040516020018084815260200183600260200280838360005b83811015610e4c578082015181840152602081019050610e31565b505050509050018281526020019350505050604051602081830303815290604052611eb5565b90505b610e7e81611f88565b610ec257610ebb81600060028110610e9257fe5b602002015160405160200180828152602001915050604051602081830303815290604052611eb5565b9050610e75565b92915050565b600080610ed3612171565b602081600060068110610ee257fe5b602002018181525050602081600160068110610efa57fe5b602002018181525050602081600260068110610f1257fe5b6020020181815250508481600360068110610f2957fe5b6020020181815250508381600460068110610f4057fe5b6020020181815250507ffffffffffffffffffffffffffffffffffffffffffffffffffffffffefffffc2f81600560068110610f7757fe5b602002018181525050610f88612193565b60208160c0846005600019fa9250600083141561100d576040517f08c379a00000000000000000000000000000000000000000000000000000000081526004018080602001828103825260128152602001807f6269674d6f64457870206661696c75726521000000000000000000000000000081525060200191505060405180910390fd5b8060006001811061101a57fe5b6020020151935050505092915050565b6000600286868685876040516020018087815260200186600260200280838360005b8381101561106757808201518184015260208101905061104c565b5050505090500185600260200280838360005b8381101561109557808201518184015260208101905061107a565b5050505090500184600260200280838360005b838110156110c35780820151818401526020810190506110a8565b5050505090500183600260200280838360005b838110156110f15780820151818401526020810190506110d6565b505050509050018273ffffffffffffffffffffffffffffffffffffffff1673ffffffffffffffffffffffffffffffffffffffff1660601b815260140196505050505050506040516020818303038152906040528051906020012060001c905095945050505050565b600061118c82600260017ffffffffffffffffffffffffffffffffffffffffffffffffffffffffefffffc2f01901c610ec8565b9050919050565b60008073ffffffffffffffffffffffffffffffffffffffff168273ffffffffffffffffffffffffffffffffffffffff161415611237576040517f08c379a000000000000000000000000000000000000000000000000000000000815260040180806020018281038252600b8152602001807f626164207769746e65737300000000000000000000000000000000000000000081525060200191505060405180910390fd5b60008060028660016002811061124957fe5b60200201518161125557fe5b061461126257601c611265565b601b5b905060007ffffffffffffffffffffffffffffffffebaaedce6af48a03bbfd25e8cd03641418061129157fe5b858760006002811061129f57fe5b6020020151097ffffffffffffffffffffffffffffffffebaaedce6af48a03bbfd25e8cd03641410360001b905060007ffffffffffffffffffffffffffffffffebaaedce6af48a03bbfd25e8cd0364141806112f657fe5b8760006002811061130357fe5b6020020151890960001b90506000600183858a60006002811061132257fe5b602002015160001b8560405160008152602001604052604051808581526020018460ff1660ff1681526020018381526020018281526020019450505050506020604051602081039080840390855afa158015611382573d6000803e3d6000fd5b5050506020604051035190508573ffffffffffffffffffffffffffffffffffffffff168173ffffffffffffffffffffffffffffffffffffffff1614945050505050949350505050565b60008060008060006001809150915060007ffffffffffffffffffffffffffffffffffffffffffffffffffffffffefffffc2f8061140457fe5b897ffffffffffffffffffffffffffffffffffffffffffffffffffffffffefffffc2f038808905060007ffffffffffffffffffffffffffffffffffffffffffffffffffffffffefffffc2f8061145557fe5b8b7ffffffffffffffffffffffffffffffffffffffffffffffffffffffffefffffc2f038a089050600061148a83838585611ff9565b809250819950505061149e88828e88612063565b80925081995050506114b288828c87612063565b809250819950505060006114c88d878b85612063565b80925081995050506114dc88828686611ff9565b80925081995050506114f088828e89612063565b809250819950505080821461158b577ffffffffffffffffffffffffffffffffffffffffffffffffffffffffefffffc2f8061152757fe5b818a0998507ffffffffffffffffffffffffffffffffffffffffffffffffffffffffefffffc2f8061155457fe5b82890997507ffffffffffffffffffffffffffffffffffffffffffffffffffffffffefffffc2f8061158157fe5b818309965061158f565b8196505b5050505050509450945094915050565b6000807ffffffffffffffffffffffffffffffffffffffffffffffffffffffffefffffc2f806115ca57fe5b7ffffffffffffffffffffffffffffffffffffffffffffffffffffffffefffffc2f806115f257fe5b848509840990507ffffffffffffffffffffffffffffffffffffffffffffffffffffffffefffffc2f8061162157fe5b60078208915050919050565b60008083141561163c57600080fd5b60008460006002811061164b57fe5b6020020151905060008060028760016002811061166457fe5b60200201518161167057fe5b061461167d57601c611680565b601b5b905060007ffffffffffffffffffffffffffffffffebaaedce6af48a03bbfd25e8cd0364141806116ac57fe5b83870960001b9050600060016000801b848660001b8560405160008152602001604052604051808581526020018460ff1660ff1681526020018381526020018281526020019450505050506020604051602081039080840390855afa158015611719573d6000803e3d6000fd5b5050506020604051035190506000866040516020018082600260200280838360005b8381101561175657808201518184015260208101905061173b565b505050509050019150506040516020818303038152906040528051906020012060001c90508073ffffffffffffffffffffffffffffffffffffffff168273ffffffffffffffffffffffffffffffffffffffff1614955050505050509392505050565b6000818051906020012060001c90505b7ffffffffffffffffffffffffffffffffffffffffffffffffffffffffefffffc2f81106118205780604051602001808281526020019150506040516020818303038152906040528051906020012060001c90506117c8565b919050565b60006101a082511461189f576040517f08c379a00000000000000000000000000000000000000000000000000000000081526004018080602001828103825260128152602001807f77726f6e672070726f6f66206c656e677468000000000000000000000000000081525060200191505060405180910390fd5b6118a761214f565b6118af61214f565b6118b76121b5565b60006118c161214f565b6118c961214f565b6000888060200190516101a08110156118e157600080fd5b810190809190826040019190826040019190826060018051906020019092919091908260400191908260400180519060200190929190505050839350809750819850829950839a50849b50859c50869d505050505050505061197d87878760006003811061194b57fe5b60200201518860016003811061195d57fe5b60200201518960026003811061196f57fe5b6020020151898989896119e6565b6003866040516020018083815260200182600260200280838360005b838110156119b4578082015181840152602081019050611999565b50505050905001925050506040516020818303038152906040528051906020012060001c975050505050505050919050565b6119ef89611f88565b611a61576040517f08c379a000000000000000000000000000000000000000000000000000000000815260040180806020018281038252601a8152602001807f7075626c6963206b6579206973206e6f74206f6e20637572766500000000000081525060200191505060405180910390fd5b611a6a88611f88565b611adc576040517f08c379a00000000000000000000000000000000000000000000000000000000081526004018080602001828103825260158152602001807f67616d6d61206973206e6f74206f6e206375727665000000000000000000000081525060200191505060405180910390fd5b611ae583611f88565b611b57576040517f08c379a000000000000000000000000000000000000000000000000000000000815260040180806020018281038252601d8152602001807f6347616d6d615769746e657373206973206e6f74206f6e20637572766500000081525060200191505060405180910390fd5b611b6082611f88565b611bd2576040517f08c379a000000000000000000000000000000000000000000000000000000000815260040180806020018281038252601c8152602001807f73486173685769746e657373206973206e6f74206f6e2063757276650000000081525060200191505060405180910390fd5b611bde878a8887611193565b611c50576040517f08c379a000000000000000000000000000000000000000000000000000000000815260040180806020018281038252601a8152602001807f6164647228632a706b2b732a6729e289a05f755769746e65737300000000000081525060200191505060405180910390fd5b611c5861214f565b611c628a87610e09565b9050611c6c61214f565b611c7b898b878b868989611d11565b90506000611c8c838d8d8a8661102a565b9050808a14611d03576040517f08c379a000000000000000000000000000000000000000000000000000000000815260040180806020018281038252600d8152602001807f696e76616c69642070726f6f660000000000000000000000000000000000000081525060200191505060405180910390fd5b505050505050505050505050565b611d1961214f565b60007ffffffffffffffffffffffffffffffffffffffffffffffffffffffffefffffc2f84600060028110611d4957fe5b602002015188600060028110611d5b57fe5b60200201510381611d6857fe5b061415611ddd576040517f08c379a000000000000000000000000000000000000000000000000000000000815260040180806020018281038252601e8152602001807f706f696e747320696e2073756d206d7573742062652064697374696e6374000081525060200191505060405180910390fd5b611de887898861162d565b611e3d576040517f08c379a00000000000000000000000000000000000000000000000000000000081526004018080602001828103825260218152602001806121d86021913960400191505060405180910390fd5b611e4884868561162d565b611e9d576040517f08c379a00000000000000000000000000000000000000000000000000000000081526004018080602001828103825260228152602001806121f96022913960400191505060405180910390fd5b611ea8868484610c8b565b9050979650505050505050565b611ebd61214f565b611ec6826117b8565b81600060028110611ed357fe5b602002018181525050611efe611ef982600060028110611eef57fe5b602002015161159f565b611159565b81600160028110611f0b57fe5b6020020181815250506001600282600160028110611f2557fe5b602002015181611f3157fe5b061415611f835780600160028110611f4557fe5b60200201517ffffffffffffffffffffffffffffffffffffffffffffffffffffffffefffffc2f0381600160028110611f7957fe5b6020020181815250505b919050565b60007ffffffffffffffffffffffffffffffffffffffffffffffffffffffffefffffc2f80611fb257fe5b82600160028110611fbf57fe5b602002015183600160028110611fd157fe5b602002015109611ff183600060028110611fe757fe5b602002015161159f565b149050919050565b6000807ffffffffffffffffffffffffffffffffffffffffffffffffffffffffefffffc2f8061202457fe5b8487097ffffffffffffffffffffffffffffffffffffffffffffffffffffffffefffffc2f8061204f57fe5b848709809250819350505094509492505050565b60008060007ffffffffffffffffffffffffffffffffffffffffffffffffffffffffefffffc2f8061209057fe5b878509905060007ffffffffffffffffffffffffffffffffffffffffffffffffffffffffefffffc2f806120bf57fe5b87877ffffffffffffffffffffffffffffffffffffffffffffffffffffffffefffffc2f030990507ffffffffffffffffffffffffffffffffffffffffffffffffffffffffefffffc2f8061210e57fe5b8183087ffffffffffffffffffffffffffffffffffffffffffffffffffffffffefffffc2f8061213957fe5b8689098094508195505050505094509492505050565b6040518060400160405280600290602082028036833780820191505090505090565b6040518060c00160405280600690602082028036833780820191505090505090565b6040518060200160405280600190602082028036833780820191505090505090565b604051806060016040528060039060208202803683378082019150509050509056fe4669727374206d756c7469706c69636174696f6e20636865636b206661696c65645365636f6e64206d756c7469706c69636174696f6e20636865636b206661696c6564a2646970667358221220c3b3b4dec46a43c3298d36f3def7a8fe2cf5d2bb7951a438c5262e567832ea8c64736f6c63430006060033",
  "compiler": {
    "name": "solc",
    "version": "0.6.6+commit.6c089d02.Emscripten.clang",
    "optimizer": {
      "enabled": false,
      "runs": 200
    },
    "evmVersion": "petersburg"
  }
}