{
  "fileName": "VRFTestnetD20.sol",
  "contractName": "VRFTestnetD20",
  "source": "pragma solidity 0.6.6;\n\nimport \"../VRFConsumerBase.sol\";\n\ncontract VRFTestnetD20 is VRFConsumerBase {\n    using SafeMath_Chainlink for uint;\n    uint256[] public d20Results;\n    bytes32 internal keyHash;\n    uint256 internal fee;\n\n    /**\n     * @notice Constructor inherits VRFConsumerBase\n     * @dev Ropsten deployment params:\n     * @dev   _vrfCoordinator: 0xf720CF1B963e0e7bE9F58fd471EFa67e7bF00cfb\n     * @dev   _link:           0x20fE562d797A42Dcb3399062AE9546cd06f63280\n     */\n    constructor(address _vrfCoordinator, address _link, bytes32 _keyHash)\n        VRFConsumerBase(_vrfCoordinator, _link) public\n    {\n        keyHash = _keyHash;\n        fee = 10 ** 18;\n    }\n\n    /** \n     * @notice Requests randomness from a user-provided seed\n     * @dev This is only an example implementation and not necessarily suitable for mainnet.\n     * @dev You must review your implementation details with extreme care.\n     */\n    function rollDice(uint256 userProvidedSeed) public returns (bytes32 requestId) {\n        require(LINK.balanceOf(address(this)) >= fee,\n          \"Not enough LINK - fill contract with faucet\");\n        bytes32 _requestId = requestRandomness(keyHash, fee, userProvidedSeed);\n        return _requestId;\n    }\n\n    /**\n     * @notice Callback function used by VRF Coordinator\n     * @dev Important! Add a modifier to only allow this function to be called by the VRFCoordinator\n     * @dev This is where you do something with randomness!\n     * @dev The VRF Coordinator will only send this function verified responses.\n     */\n    function fulfillRandomness(bytes32 /* requestId */, uint256 randomness) internal override {\n        uint256 d20Result = randomness.mod(20).add(1); // Simplified example\n        d20Results.push(d20Result);\n    }\n\n    /**\n     * @notice Convenience function to show the latest roll\n     */\n    function latestRoll() public view returns (uint256 d20result) {\n        return d20Results[d20Results.length - 1];\n    }\n}\n",
  "sourcePath": "contracts/chainlink_contracts/chainlink/tests/VRFTestnetD20.sol",
  "abi": [
    {
      "inputs": [
        {
          "internalType": "address",
          "name": "_vrfCoordinator",
          "type": "address"
        },
        {
          "internalType": "address",
          "name": "_link",
          "type": "address"
        },
        {
          "internalType": "bytes32",
          "name": "_keyHash",
          "type": "bytes32"
        }
      ],
      "stateMutability": "nonpayable",
      "type": "constructor"
    },
    {
      "inputs": [
        {
          "internalType": "uint256",
          "name": "",
          "type": "uint256"
        }
      ],
      "name": "d20Results",
      "outputs": [
        {
          "internalType": "uint256",
          "name": "",
          "type": "uint256"
        }
      ],
      "stateMutability": "view",
      "type": "function"
    },
    {
      "inputs": [],
      "name": "latestRoll",
      "outputs": [
        {
          "internalType": "uint256",
          "name": "d20result",
          "type": "uint256"
        }
      ],
      "stateMutability": "view",
      "type": "function"
    },
    {
      "inputs": [
        {
          "internalType": "bytes32",
          "name": "",
          "type": "bytes32"
        }
      ],
      "name": "nonces",
      "outputs": [
        {
          "internalType": "uint256",
          "name": "",
          "type": "uint256"
        }
      ],
      "stateMutability": "view",
      "type": "function"
    },
    {
      "inputs": [
        {
          "internalType": "bytes32",
          "name": "requestId",
          "type": "bytes32"
        },
        {
          "internalType": "uint256",
          "name": "randomness",
          "type": "uint256"
        }
      ],
      "name": "rawFulfillRandomness",
      "outputs": [],
      "stateMutability": "nonpayable",
      "type": "function"
    },
    {
      "inputs": [
        {
          "internalType": "bytes32",
          "name": "_keyHash",
          "type": "bytes32"
        },
        {
          "internalType": "uint256",
          "name": "_fee",
          "type": "uint256"
        },
        {
          "internalType": "uint256",
          "name": "_seed",
          "type": "uint256"
        }
      ],
      "name": "requestRandomness",
      "outputs": [
        {
          "internalType": "bytes32",
          "name": "requestId",
          "type": "bytes32"
        }
      ],
      "stateMutability": "nonpayable",
      "type": "function"
    },
    {
      "inputs": [
        {
          "internalType": "uint256",
          "name": "userProvidedSeed",
          "type": "uint256"
        }
      ],
      "name": "rollDice",
      "outputs": [
        {
          "internalType": "bytes32",
          "name": "requestId",
          "type": "bytes32"
        }
      ],
      "stateMutability": "nonpayable",
      "type": "function"
    }
  ],
  "bytecode": "0x60c060405234801561001057600080fd5b506040516109f63803806109f68339818101604052606081101561003357600080fd5b8101908080519060200190929190805190602001909291908051906020019092919050505082828173ffffffffffffffffffffffffffffffffffffffff1660a08173ffffffffffffffffffffffffffffffffffffffff1660601b815250508073ffffffffffffffffffffffffffffffffffffffff1660808173ffffffffffffffffffffffffffffffffffffffff1660601b81525050505080600281905550670de0b6b3a764000060038190555050505060805160601c60a05160601c6108e0610116600039806101fc52806104965250806102e8528061045a52506108e06000f3fe608060405234801561001057600080fd5b50600436106100625760003560e01c80634ab5fc501461006757806394985ddd146100a95780639e317f12146100e1578063acfff37714610123578063ae383a4d14610165578063dc6cfe1014610183575b600080fd5b6100936004803603602081101561007d57600080fd5b81019080803590602001909291905050506101d9565b6040518082815260200191505060405180910390f35b6100df600480360360408110156100bf57600080fd5b8101908080359060200190929190803590602001909291905050506101fa565b005b61010d600480360360208110156100f757600080fd5b81019080803590602001909291905050506102c9565b6040518082815260200191505060405180910390f35b61014f6004803603602081101561013957600080fd5b81019080803590602001909291905050506102e1565b6040518082815260200191505060405180910390f35b61016d610431565b6040518082815260200191505060405180910390f35b6101c36004803603606081101561019957600080fd5b81019080803590602001909291908035906020019092919080359060200190929190505050610456565b6040518082815260200191505060405180910390f35b600181815481106101e657fe5b906000526020600020016000915090505481565b7f000000000000000000000000000000000000000000000000000000000000000073ffffffffffffffffffffffffffffffffffffffff163373ffffffffffffffffffffffffffffffffffffffff16146102bb576040517f08c379a000000000000000000000000000000000000000000000000000000000815260040180806020018281038252601f8152602001807f4f6e6c7920565246436f6f7264696e61746f722063616e2066756c66696c6c0081525060200191505060405180910390fd5b6102c58282610661565b5050565b60006020528060005260406000206000915090505481565b60006003547f000000000000000000000000000000000000000000000000000000000000000073ffffffffffffffffffffffffffffffffffffffff166370a08231306040518263ffffffff1660e01b8152600401808273ffffffffffffffffffffffffffffffffffffffff1673ffffffffffffffffffffffffffffffffffffffff16815260200191505060206040518083038186803b15801561038357600080fd5b505afa158015610397573d6000803e3d6000fd5b505050506040513d60208110156103ad57600080fd5b81019080805190602001909291905050501015610415576040517f08c379a000000000000000000000000000000000000000000000000000000000815260040180806020018281038252602b815260200180610880602b913960400191505060405180910390fd5b600061042660025460035485610456565b905080915050919050565b60006001808080549050038154811061044657fe5b9060005260206000200154905090565b60007f000000000000000000000000000000000000000000000000000000000000000073ffffffffffffffffffffffffffffffffffffffff16634000aea07f000000000000000000000000000000000000000000000000000000000000000085878660405160200180838152602001828152602001925050506040516020818303038152906040526040518463ffffffff1660e01b8152600401808473ffffffffffffffffffffffffffffffffffffffff1673ffffffffffffffffffffffffffffffffffffffff16815260200183815260200180602001828103825283818151815260200191508051906020019080838360005b8381101561056557808201518184015260208101905061054a565b50505050905090810190601f1680156105925780820380516001836020036101000a031916815260200191505b50945050505050602060405180830381600087803b1580156105b357600080fd5b505af11580156105c7573d6000803e3d6000fd5b505050506040513d60208110156105dd57600080fd5b810190808051906020019092919050505050600061060f8584306000808a8152602001908152602001600020546106ba565b905061063760016000808881526020019081526020016000205461073490919063ffffffff16565b6000808781526020019081526020016000208190555061065785826107bc565b9150509392505050565b600061068a600161067c6014856107f590919063ffffffff16565b61073490919063ffffffff16565b90506001819080600181540180825580915050600190039060005260206000200160009091909190915055505050565b600084848484604051602001808581526020018481526020018373ffffffffffffffffffffffffffffffffffffffff1673ffffffffffffffffffffffffffffffffffffffff1681526020018281526020019450505050506040516020818303038152906040528051906020012060001c9050949350505050565b6000808284019050838110156107b2576040517f08c379a000000000000000000000000000000000000000000000000000000000815260040180806020018281038252601b8152602001807f536166654d6174683a206164646974696f6e206f766572666c6f77000000000081525060200191505060405180910390fd5b8091505092915050565b60008282604051602001808381526020018281526020019250505060405160208183030381529060405280519060200120905092915050565b60008082141561086d576040517f08c379a00000000000000000000000000000000000000000000000000000000081526004018080602001828103825260188152602001807f536166654d6174683a206d6f64756c6f206279207a65726f000000000000000081525060200191505060405180910390fd5b81838161087657fe5b0690509291505056fe4e6f7420656e6f756768204c494e4b202d2066696c6c20636f6e7472616374207769746820666175636574a264697066735822122054529f00a9ba5432653d4a01f22d4e926d8da7c579b2b342a4bb4926a7c4448a64736f6c63430006060033",
  "compiler": {
    "name": "solc",
    "version": "0.6.6+commit.6c089d02.Emscripten.clang",
    "optimizer": {
      "enabled": false,
      "runs": 200
    },
    "evmVersion": "petersburg"
  }
}